:020000040800F2
:10000000E84B0020E1010008E9010008EB010008CD
:10001000ED010008EF010008F101000800000000F8
:10002000000000000000000000000000F3010008D4
:10003000F501000800000000F7010008F9010008C0
:10004000FB010008FB010008FB010008FB010008A0
:10005000FB010008FB010008FB010008FB01000890
:10006000FB010008FB010008FB010008FB01000880
:10007000FB010008FB010008FB010008FB01000870
:10008000FB010008FB010008FB010008FB01000860
:10009000FB010008FB010008FB010008FB01000850
:1000A000FB010008FB010008FB010008FB01000840
:1000B000FB010008FB010008FB010008FB01000830
:1000C000FB010008FB010008FB010008FB01000820
:1000D000FB010008FB010008FB010008D9390008FA
:1000E000FB010008FB010008FB010008FB01000800
:1000F000FB010008FB010008FB010008FB010008F0
:10010000FB01000871270008FB010008FB01000843
:10011000FB010008FB010008FB010008FB010008CF
:10012000FB010008FB010008FB01000811030008A7
:10013000FB0100080000000000000000FB010008B7
:10014000FB010008FB010008FB010008FB0100089F
:10015000FB01000821030008FB010008FB01000867
:10016000FB010008FB010008FB010008FB0100087F
:10017000FB010008FB010008FB0100080000000073
:1001800000000000FB01000800000000000000006B
:10019000FB0100080000000000000000FB01000857
:1001A000000000000000000000000000FB0100084B
:1001B000FB010008FB010008FB010008FB0100082F
:1001C000FB010008DFF80CD000F090F80048004771
:1001D0005D500008E84B002080F30888704700005D
:1001E0000648804706480047FEE7FEE7FEE7FEE7D1
:1001F000FEE7FEE7FEE7FEE7FEE7FEE74938000818
:10020000C50100082DE9F05F0546002092469B4697
:1002100088460646814640241BE02846414647461C
:10022000224600F053F853465A46C01A914110D363
:1002300011461846224600F03AF82D1A67EB0108DD
:100240004F4622460120002100F031F817EB00094B
:100250004E41201EA4F10104DFDC484631462A4607
:100260004346BDE8F09F40EA01039B0703D009E045
:1002700008C9121F08C0042AFAD203E011F8013B92
:1002800000F8013B521EF9D27047D2B201E000F8EB
:10029000012B491EFBD270470022F6E710B513462A
:1002A0000A4604461946FFF7F0FF204610BD202AF3
:1002B00004DB203A00FA02F1002070479140C2F1BD
:1002C000200320FA03F3194390407047202A04DBEF
:1002D000203A21FA02F00021704721FA02F3D040BF
:1002E000C2F120029140084319467047064C074D61
:1002F00006E0E06840F0010394E8070098471034F6
:10030000AC42F6D3FFF762FF807E0008A07E0008B3
:1003100010B5024800F0CAFA10BD0000D400002059
:1003200010B5024800F0C2FA10BD000034010020F0
:100330000146087810381823B0FBF3F20848805CB7
:10034000C865032A05D908686FF30900001D886590
:1003500003E008686FF309008865886D7047000046
:100360001C5B0008014600208A6A8B69CBB932B158
:10037000012A0DD0022A03D0032A10D10EE000BFBB
:10038000CB6A03F08073B3F1807F00D1012007E0D6
:10039000CB6AB3F1C07F00D1012001E000E000BFD3
:1003A00034E08B69B3F5005F1AD132B1012A07D06E
:1003B000022A03D0032A11D10AE000BF01200EE077
:1003C000CB6A03F08073B3F1807F00D1012006E097
:1003D000CB6AB3F1C07F00D1012000E000BF15E07F
:1003E00032B1012A05D0022A04D0032A0CD103E03D
:1003F00000BF00BF012008E0CB6A03F08073B3F1B7
:10040000807F00D1012000E000BF00BF704730B501
:100410000468246824F4802405682C600468636000
:100420008468402C04D10468A2600468E16003E0A1
:100430000468A1600468E26030BD00004FF0E02174
:10044000096921F004014FF0E02211610146C21751
:1004500000EB5272C2F3C702014B1A7070470000E2
:100460001800002030B50446002505E04FF47A70EE
:1004700000F006F8681C85B2A542F7DB30BD00002D
:1004800001460D4A12784A434FF0E0235A61002298
:100490009A6101221A6100BF4FF0E022106900F05A
:1004A00001021AB100F48032002AF5D000224FF088
:1004B000E0231A619A6170471800002010B500BF50
:1004C00080200A49086000BF00BF00040849086096
:1004D00000BF0A20FFF7C6FF00BF80200449086064
:1004E00000BF6420FFF7BEFF10BD0000180C0240E3
:1004F0001818024000B587B0032005900020049032
:10050000012003908020029000BF00200190284825
:10051000006840F00800264908600846006800F0BE
:100520000800019000BF00BF02A9224800F064FC4F
:1005300000BF002001901E48006840F040001C49A8
:1005400008600846006800F04000019000BF00BF4E
:1005500002A9194800F050FC00BF8020154918314D
:10056000086000BF00BF14491831086000BF4FF495
:10057000E1312D2003F09AF900BF4FF400000D493E
:100580001831086000BF00BF0B491831086000BF78
:100590006420FFF767FF00BF80200749183108601B
:1005A00000BF4FF47A70FFF75DFF07B000BD000099
:1005B00030380240000C02400018024010B5002202
:1005C00001B909E0012901D10A0205E0022901D19E
:1005D0000A0201E04FF440720E4B1B6823F4407393
:1005E0000C4C236023461B681343236023461B687F
:1005F00023F0F803236023461B68022444EAC00466
:100600002343044C236023461B6843F48033236058
:1006100010BD0000103C02401C48006800F400704F
:10062000B0B11A48006820F400701849086000BF93
:100630000846006840F4006008600846006820F43E
:100640000060086000BF0846006840F40070086061
:100650000E48006800F48060B0B10C48006820F4D7
:1006600080600A49086000BF0846006840F4805076
:1006700008600846006820F48050086000BF084603
:10068000006840F48060086070470000003C024051
:100690000A4A126822F44072084B1A601A4612681D
:1006A00042F004021A601A4612684FF4803343EA9B
:1006B00000231A43014B1A6070470000103C0240AF
:1006C000074A126822F44072054B1A601A461268F3
:1006D0001A601A46126842F001021A6001707047EF
:1006E000103C024010B50A49096821F44071084CD9
:1006F00021602146096841F4407121602146096862
:1007000041F0010121600260BFF36F8F436010BDB3
:10071000103C0240084A126822F44072064B1A60EC
:100720001A46126842F480721A601A46126842F041
:1007300001021A6001807047103C0240084A1268AA
:1007400022F44072064B1A601A46126842F4007294
:100750001A601A46126842F001021A60016070477E
:10076000103C02402A48006800F0100040B12948BF
:10077000C06940F010002749C86110202449086072
:100780002348006800F0200040B12248C06940F0D2
:1007900008002049C86120201D4908601C480068E5
:1007A00000F0400040B11B48C06940F00400194906
:1007B000C8614020164908601548006800F08000B4
:1007C00040B11448C06940F002001249C86180205D
:1007D0000F4908600E48006800F4807048B10D4869
:1007E000C06940F001000B49C8614FF480700849AE
:1007F00008600748006800F0020040B10548C06981
:1008000040F020000349C861022001490860704798
:100810000C3C02403000002070B50446002500204A
:100820001449C86100F0F0FB054609E0601C38B1CE
:1008300024B100F0E9FB401BA04201D9032070BDA8
:100840000D48006800F480300028EFD10A480068A5
:1008500000F0010010B10120074908600648006857
:1008600000F4F97018B1FFF77DFF0120E7E70020E1
:10087000E5E70000300000200C3C0240014691F802
:100880003500022803D080204865012070470520EC
:1008900081F835000868006820F001000A681060DF
:1008A0000020F3E70146486D70470000F8B50446A4
:1008B000002000908C4800684FF41651B0FBF1F70F
:1008C000A56D2E6894F85C1008208840304098B1DF
:1008D0002068006800F0040070B12068006820F013
:1008E00004002168086094F85C1008208840A86023
:1008F000606D40F00100606594F85C100120884054
:10090000304068B12068406900F0800040B194F840
:100910005C1001208840A860606D40F002006065B6
:1009200094F85C1004208840304068B1206800686A
:1009300000F0020040B194F85C1004208840A860E8
:10094000606D40F00400606594F85C1010208840F1
:10095000304078B32068006800F0080050B394F885
:100960005C1010208840A8602068006800F4802097
:1009700080B12068006800F4002028B9206CC8B15C
:100980002046216C884715E0A06C98B12046A16CE8
:1009900088470FE02068006800F4807028B920685C
:1009A000006820F0080021680860206C10B1204623
:1009B000216C884794F85C10202088403040002843
:1009C00065D02068006800F0100000285FD094F81F
:1009D0005C1020208840A86094F83500052828D1B4
:1009E0002068006820F016002168086020684069CF
:1009F00020F0800021684861206C08B9A06C28B103
:100A00002068006820F008002168086094F85C10F5
:100A10003F208840A86000BF002084F8340000BF59
:100A2000012084F83500206D10B12046216D8847E3
:100A3000F8BD2068006800F4802080B1206800685C
:100A400000F4002028B9606C10B12046616C884722
:100A50001DE0E06BD8B12046E16B884717E02068C5
:100A6000006800F4807068B92068006820F0100009
:100A70002168086000BF002084F8340000BF012016
:100A800084F83500E06B10B12046E16B8847606D5B
:100A900038B3606D00F00100F0B1052084F8350036
:100AA0002068006820F001002168086000BF0098FD
:100AB000401C0090B84200D905E02068006800F0B2
:100AC00001000028F3D100BF00BF002084F83400EB
:100AD00000BF012084F83500E06C10B12046E16CC5
:100AE000884700BFA4E70000000000202DE9F04186
:100AF0000446002500F088FA074614B90120BDE835
:100B0000F081606A00B100BF00BF002084F83400AB
:100B100000BF022084F835002068006820F0010042
:100B2000216808600AE000F06FFAC01B052805D9AB
:100B300020206065032084F83500E0E72068006825
:100B400000F001000028EED120680568214805402A
:100B5000D4E901010843E168084321690843616958
:100B60000843A1690843E1690843216A0843054332
:100B7000606A042803D1D4E90B01084305432068C7
:100B800005602068456925F00705606A0543606ACD
:100B900004280DD1A06A0543E06A48B12046FFF75A
:100BA000E1FB28B140206065012084F83500A6E70C
:100BB000206845612046FFF7BBFB064694F85C10B1
:100BC0003F208840B06000206065012084F8350037
:100BD000002094E73F8010F02DE9F04704460D46D1
:100BE00016461F464FF00008D4F8589000BF94F8FE
:100BF0003400012802D10220BDE8F087012084F8EA
:100C0000340000BF94F83500012825D1022084F873
:100C10003500002060653B46324629462046FFF7F6
:100C2000F6FB94F85C103F208840C9F80800206863
:100C3000006840F0160021680860206C28B1206828
:100C4000006840F00800216808602068006840F0F3
:100C500001002168086006E000BF002084F834002D
:100C600000BF4FF002084046C6E700002DE9F04102
:100C700004460E460127002500BF2548007E0128B6
:100C800002D10220BDE8F08101202149087600BF91
:100C90004CF25030FFF7C0FD0746002F31D1401E07
:100CA0003060206801280FD1207C6168FFF7F0FCDC
:100CB0004CF25030FFF7B0FD07461648006820F0B0
:100CC0000400144908601AE0A56812E0217C284657
:100CD000FFF774FC4CF25030FFF79EFD07460D48BD
:100CE000006820F0FA000B4908600FB1356005E09C
:100CF0006D1CD4E902100844A842E7D800BFFFF7F2
:100D00008BFC00BF00200249087600BF3846B9E7D7
:100D100030000020103C02400348006840F00040D2
:100D20000149086000207047103C02402DE9F04165
:100D300006460F4614461D464FF0010800BF1F48E7
:100D4000007E012802D10220BDE8F08101201B496C
:100D5000087600BF4CF25030FFF75EFD8046B8F1D8
:100D6000000F23D126B9E1B23846FFF7A9FC12E003
:100D7000012E04D1A1B23846FFF7CCFC0BE0022EC5
:100D800004D121463846FFF7D9FC04E022462B4621
:100D90003846FFF7A7FC4CF25030FFF73DFD804688
:100DA0000748006820F001000549086000BF0020E6
:100DB0000249087600BF4046C6E700003000002028
:100DC000103C024000200949096801F0004159B176
:100DD0000749064A0C3A116006491160034909683F
:100DE00001F0004101B1012070470000103C0240B9
:100DF00023016745AB89EFCDF8B502460B460025C8
:100E0000002400200021D7E0012606FA01F51E6823
:100E100006EA0504AC4273D15E68012E08D05E6814
:100E2000022E05D05E68112E02D05E68122E13D1FC
:100E300090684F000326BE40B0434F00DE68BE40BE
:100E400030439060506801268E40B0431E79C6F34F
:100E500000168E4030435060D0684F000326BE40DD
:100E6000B0434F009E68BE403043D0605E68022EA3
:100E700002D05E68122E13D1CF0802F1200656F878
:100E800027004E07F70E0F26BE40B0434F07FF0E58
:100E90001E69BE403043CF0802F1200646F8270005
:100EA00010684F000326BE40B0431E7906F00306CB
:100EB0004F00BE40304310605E6806F08056B6F1C9
:100EC000805F78D100BF002600963D4E366846F41C
:100ED00080463B4F3E603E46366806F480460096AC
:100EE00000BF00BF374E8F0856F827008E07370F18
:100EF0000F26BE40B043344EB24202D100261FE05E
:100F000059E0324EB24201D1012619E0304EB242D0
:100F100001D1022614E02F4EB24201D103260FE088
:100F20002D4EB24201D104260AE02C4EB24201D12C
:100F3000052605E02A4EB24201D1062600E007262A
:100F40008F073F0FBE4030431E4E8F0846F82700E4
:100F5000244E3068A0435E6806F48036B6F5803FC4
:100F600000D120431F4E3060361D3068A0435E68BC
:100F700006F40036B6F5003F00D12043194E361D69
:100F80003060361D3068A0435E6806F48016B6F502
:100F9000801F00D12043134E08363060361D306864
:100FA000A0435E6806F40016B6F5001F00D120438A
:100FB0000C4E0C363060491C1029FFF425AFF8BDEB
:100FC000443802400838014000000240000402405A
:100FD00000080240000C02400010024000140240D1
:100FE00000180240003C014042690A408A4202D196
:100FF0000A04826100E0816170470AB1816101E009
:101000000B048361704700000148006870470000CE
:101010000400002070B504460E4800784FF47A7141
:10102000B1FBF0F00C490968B1FBF0F5284601F07E
:10103000F9FA08B1012070BD102C07D20022214618
:10104000501E00F00DF80548046001E00120F2E7B1
:101050000020F0E70C000020000000200800002025
:101060002DE9F05F80460D461646002701F03EFB55
:10107000074639462A46334601F00700C0F1070A01
:10108000BAF1040F02D94FF0040A01E0C0F1070AD7
:10109000D14600F1040ABAF1070F02D24FF0000A5C
:1010A00001E0A0F1030AD4464FF0010A0AFA09FA56
:1010B000AAF1010A0AEA020A0AFA0CFA4FF0010B35
:1010C0000BFA0CFBABF1010B0BEA030B4AEA0B0426
:1010D0002146404601F012FBBDE8F09F00BF00F042
:1010E0000702064B19684FF6FF031940044B0B43E8
:1010F00043EA0221014B196000BF70470CED00E08C
:101100000000FA0538B5002400BF002000901D48FB
:10111000006840F080501B4908600846006800F0F5
:101120008050009000BF00BF012017490864FFF7FE
:101130006BFF044607E0FFF767FF001BB0F57A7FFF
:1011400001D9032038BD1148406800F48030B0F563
:10115000803FF0D101200C494864FFF755FF044659
:1011600007E0FFF751FF001BB0F57A7F01D903209C
:10117000E8E70648406800F40030B0F5003FF0D1E1
:101180000020DFE74038024000000E4200700040BF
:101190002DE9FE4F0446002500260027A846A94653
:1011A000AA46AB46002002900190207800F0010092
:1011B00058B1FE48006820F0C060A16B0843FB49AD
:1011C0000860A06B08B901200290207800F00200AE
:1011D00002280BD1F548006820F0C050E16B0843AD
:1011E000F2490860E06B08B901200290207800F015
:1011F0000400042811D1ED48006820F44010216B50
:101200000843EA490860206BB0F5801F01D1012036
:101210000290206B08B901200190207800F00800AE
:10122000082811D1E148006820F44000616B0843B0
:10123000DE490860606BB0F5800F01D1012002909B
:10124000606B08B901200190207800F02000202870
:101250006FD100BF00200090D4484C38006840F0A7
:101260008050D2494C3908600846006800F0805030
:10127000009000BF00BFCE48006840F48070CC49A9
:101280000860FFF7C1FE054607E0FFF7BDFE401B03
:10129000022802D90320BDE8FE8FC548006800F48B
:1012A00080700028F1D0C1481C38006800F44076F6
:1012B00056B3B4F8400000F44070B04224D0BB48AC
:1012C0001C38006820F440760120BA4908600020EC
:1012D0000860B6481C380660006800F0010098B14C
:1012E000FFF792FE054608E0FFF78EFE401B41F235
:1012F0008831884201D90320CDE7AC481C3800680A
:10130000C0F340000028EFD000BFB4F8400000F464
:101310004070B0F5407F0DD1A4488438006820F4B7
:10132000F810A54A216C11400843A049843908608F
:1013300008E013E09D488438006820F4F8109B49C9
:101340008439086099481C380068B4F84010C1F32B
:101350000B01084395491C39086000BF207800F054
:101360001000102803D194F85800944908602078A0
:1013700000F08000802809D18C480830006820F4F3
:101380004000E16C0843894908310860207800F08A
:101390004000402809D185480830006820F080606E
:1013A000A16C0843814908310860208800F48070EE
:1013B000B0F5807F0FD17D480830006820F00060D4
:1013C000616D0843794908310860606DB0F1006FC4
:1013D00001D101200190208800F40070B0F5007F59
:1013E00009D172480830006820F08050616C0843D1
:1013F0006E4908310860208800F48060B0F5806F85
:101400000FD16A480830006820F00050216D084371
:10141000664908310860206DB0F1005F01D10120FC
:1014200002900298012803D02068B0F5006F7DD1AA
:10143000002063498866FFF7E7FD054606E0FFF7F1
:10144000E3FD401B022801D9032024E757488C38CC
:101450000068C0F3C0600028F1D1207800F00100DE
:1014600008B1A06B30B1207800F0020002281ED134
:10147000E06BE0B94D4808380068C0F30140401CFB
:1014800047004A4808380068C0F30368D4E90110EF
:1014900041EA80100121C1EB570140EA014040EAD6
:1014A0000861207D41EA00704049083908602078D1
:1014B00000F00400042803D1206BB0F5801F08D091
:1014C000207800F00800082829D1606BB0F5800F63
:1014D00025D1364808380068C0F30140401C470059
:1014E000324808380068C0F30279D4E9011041EAB3
:1014F00080100121C1EB570140EA0141207C41EA03
:10150000006040EA097029490839086027480068E6
:1015100020F01F00A16A491E084324490860208862
:1015200000F48060B0F5806F23D100E05BE0206DB7
:10153000B0F1005F1DD11D4808380068C0F30140BC
:10154000401C4FEA4008194808380068C0F3027987
:10155000D4E9011041EA80110122E068C2EB500099
:1015600041EA004040EA086040EA09700F49083942
:101570000860208800F40060B0F5006F12D1D4E953
:10158000011041EA80110122E068C2EB500041EAFB
:101590000041207C41EA0061207D41EA007003495E
:1015A000083908600120064988660BE08C38024043
:1015B00000700040400E4742FFFCFF0FE011474221
:1015C00000004742FFF720FD054606E0FFF71CFD3F
:1015D000401B022801D903205DE641480068C0F3A2
:1015E000C0600028F2D00198012877D100203D4941
:1015F0000867FFF709FD054606E0FFF705FD401BFC
:10160000022801D9032046E635480068C0F340703F
:101610000028F2D1207800F00400042801D1206BCA
:1016200030B1207800F00800082824D1606B10BB8E
:101630002B4888300068C0F30140401C4FEA400A44
:10164000D4E9061041EA80100121C1EB5A0140EAB9
:1016500001412420005D41EA006021498831086091
:10166000081D006820F4F851E06A401E41EA00209D
:101670001B498C310860208800F48070B0F5807FB1
:1016800017D1606DB0F1006F13D115488830006834
:10169000C0F3036BD4E9061041EA80110122206AED
:1016A000C2EB500041EA004040EA0B600C4988312F
:1016B000086001200B490867FFF7A6FC054607E014
:1016C000FFF7A2FC401B022802D90320E3E505E056
:1016D00003480068C0F340700028F1D00020DAE52C
:1016E000003802400000474270B504460D460CB970
:1016F000012070BD5848006800F00F00A84209D2D0
:1017000055490D700846006800F00F00A84201D04E
:101710000120EEE7207800F0020002281DD1207899
:1017200000F00400042805D14C48006840F4E05063
:101730004A490860207800F00800082805D1474889
:10174000006840F46040454908604448006820F063
:10175000F000A168084341490860207800F00100CA
:10176000A8B36068012807D13C4808380068C0F376
:101770004040B8B90120BCE76068022802D0606828
:10178000032807D1354808380068C0F3406048B9DD
:101790000120AEE7314808380068C0F3400008B9BE
:1017A0000120A6E72D48006820F003006168084387
:1017B0002A490860FFF728FC064609E0FFF724FCE9
:1017C000801B41F28831884202D9032091E707E06B
:1017D0002248006800F00C006168B0EB810FEDD189
:1017E0001D48006800F00F00A84209D91A490D7081
:1017F0000846006800F00F00A84201D0012078E7F9
:10180000207800F00400042807D11448006820F470
:10181000E050E168084311490860207800F00800B2
:10182000082808D10D48006820F46040216940EA8A
:10183000C1000A49086000F019F808490968C1F3B5
:101840000311074A515CC840064908600648006811
:10185000FFF7E0FB00204CE7003C02400838024064
:10186000045B000800000020080000202DE9F0477C
:10187000002400250026A146A2463F48006800F04B
:101880000C0030B1042807D0082808D00C286BD1F0
:1018900038E0DFF8E8A06AE0DFF8E4A067E0364867
:1018A000001F006800F03F043348001F006800F488
:1018B000800078B132483049091F0968C1F38811A6
:1018C000A0FB01700146224600233846FEF79AFC31
:1018D00005460DE029482849091F0968C1F3881108
:1018E000A0FB0171224600233846FEF78BFC05461B
:1018F0002148001F0068C0F30140401C4600B5FBB2
:10190000F6FA34E01C48001F006800F03F041A4853
:10191000001F006800F4800078B119481649091FBB
:101920000968C1F38811A0FB01700146224600231B
:101930003846FEF767FC05460EE010480E49091FC1
:101940000968C1F38811A0FB0170014622460023FB
:101950003846FEF757FC05460748001F0068C0F3ED
:101960000279B5FBF9FA02E0DFF810A000BF00BF72
:101970005046BDE8F0870000083802400024F4001B
:10198000001BB700F8B504460025207800F00100E0
:1019900000286FD0FD48006800F00C0004281BD020
:1019A000FA48006800F00C00082807D1F748001F2B
:1019B000006800F48000B0F5800F0DD0F348006897
:1019C00000F00C000C2813D1F048001F006800F450
:1019D0008000B0F5800F0BD1EC4808380068C0F3E8
:1019E0004040002859D06068002856D10120F8BD39
:1019F00000BF6068B0F5803F08D1E448083800684F
:101A000040F48030E149083908601EE06068B0F5B4
:101A1000A02F0DD1DD480838006840F48020DB4954
:101A2000083908600846006840F4803008600CE01F
:101A3000D6480838006820F48030D4490839086056
:101A40000846006820F48020086000BF606890B1FC
:101A5000FFF7DAFA054606E0FFF7D6FA401B6428DE
:101A600001D90320C3E7C94808380068C0F34040E3
:101A70000028F1D011E0FFF7C7FA054606E0FFF7AE
:101A8000C3FA401B642801D90320B0E7BF480838D7
:101A90000068C0F340400028F1D1207800F0020037
:101AA00002286BD1B948006800F00C00B8B1B74803
:101AB000006800F00C00082805D1B448001F006839
:101AC00000F4800058B1B148006800F00C000C2808
:101AD0001CD1AE48001F006800F48000B0B9AB48CC
:101AE00008380068C0F3400020B1E068012801D048
:101AF00001207CE7A5480838006820F0F80021693B
:101B000040EAC100A1490839086037E0E06800B345
:101B100001209F490860FFF777FA054606E0FFF7C6
:101B200073FA401B022801D9032060E79748083860
:101B30000068C0F340000028F1D0944808380068DD
:101B400020F0F800216940EAC10090490839086096
:101B500014E000208E490860FFF756FA054606E0BB
:101B6000FFF752FA401B022801D903203FE78748BC
:101B700008380068C0F340000028F1D1207800F058
:101B8000080008282CD16069A8B1012081490860AB
:101B9000FFF73AFA054606E0FFF736FA401B02283F
:101BA00001D9032023E779486C300068C0F3400076
:101BB0000028F1D014E0002076490860FFF724FAED
:101BC000054606E0FFF720FA401B022801D9032052
:101BD0000DE76E486C300068C0F340000028F1D17A
:101BE000207800F00400042870D1002667483830BF
:101BF000006800F0805090B900BF0020009063485A
:101C00003830006840F0805060493831086008463C
:101C1000006800F08050009000BF00BF01265E48C1
:101C2000006800F48070B0B95B48006840F48070D0
:101C300059490860FFF7E8F9054606E0FFF7E4F9BF
:101C4000401B022801D90320D1E65348006800F464
:101C500080700028F2D000BFA068012808D14B484E
:101C60006830006840F001004849683108601DE0B4
:101C7000A06805280DD145486830006840F0040090
:101C80004249683108600846006840F00100086079
:101C90000CE03E486830006820F001003B496831A4
:101CA00008600846006820F00400086000BFA068D3
:101CB000A8B1FFF7A9F9054609E0FFF7A5F9401B10
:101CC00041F28831884202D9032090E626E02F486D
:101CD00068300068C0F340000028EED013E0FFF742
:101CE00093F9054608E0FFF78FF9401B41F2883170
:101CF000884201D903207AE6244868300068C0F39E
:101D000040000028EFD1012E07D12048383000686C
:101D100020F080501D493831086000BFA069E8B349
:101D20001A48006800F00C00082862D0A069022858
:101D30004AD1002016490866FFF766F9054606E015
:101D4000FFF762F9401B022801D903204FE60F4834
:101D500008380068C0F340600028F1D1D4E90701D9
:101D60000843616A40EA81110122A06AC2EB500077
:101D700041EA00412C20005D41EA00613020005D15
:101D800041EA00700149091F086008E00838024074
:101D900000004742800E4742007000402BE00120C7
:101DA00016490866FFF730F9054606E0FFF72CF9FB
:101DB000401B022801D9032019E611480068C0F32E
:101DC00040600028F2D016E000200C490866FFF7BA
:101DD0001BF9054606E0FFF717F9401B022801D959
:101DE000032004E606480068C0F340600028F2D1F2
:101DF00001E00120FBE50020F9E50000000047427A
:101E0000003802407047000070B58AB004460D46A5
:101E1000032084F83400606C032820D0B5F5805F7F
:101E200004D1A06B40F08050A0631CE0B5F5006FBA
:101E300007D1204601F047FC0646A06B3043A06363
:101E400011E03DB9204601F00AFC0646A06B304384
:101E5000A06308E0A06B40F00060A06303E0A06B0B
:101E600040F08050A063A06B38B1104821688863AF
:101E7000012084F834000AB070BD60680490A06846
:101E80000590E0680690079560690890A069099040
:101E900007A807C88DE80700206804A90EC900F04C
:101EA0006FFC012084F834000020E4E7FF054000C7
:101EB0007047000010B50246506E800F0870506EDB
:101EC000C0F383604870506EC0F301608870506E3C
:101ED000000CC870B2F86400000A087192F864003F
:101EE0004871906E000DC880906EC0F30340087278
:101EF0006820805AC0F3C03048726820805AC0F30E
:101F0000803088726820805AC0F34030C8726820E0
:101F1000805AC0F30030087300204873506C0028CA
:101F200036D16820805A8005030DD06E43EA907048
:101F30000861D06EC0F3C2600875D06EC0F3026055
:101F40004875D06EC0F342508875D06EC0F38240A1
:101F5000C875D06EC0F3C23008760869401C506561
:101F60000B7E506D03F007039B1C01249C406043D3
:101F70005065087A00F00F03012098409065D2E97F
:101F800015035B0A5843D0654FF40073136621E0D4
:101F9000506C012813D16820805C8006830AD06EC3
:101FA00043EA104008610869401C83025365536D81
:101FB000D3654FF400739365936D13660AE02E4862
:101FC00013689863906B40F080509063012082F812
:101FD000340010BD6C20805AC0F3803001F8190F16
:101FE0006C20805AC0F3C61048706C20805C00F0F2
:101FF0007F008870106FC00FC870106FC0F3417001
:102000000871106FC0F382604871106FC0F3835085
:102010008871106FC0F34050C87100200872106FB3
:10202000C0F3004048727020805AC0F3C0308872FC
:102030007020805AC0F38030C8727020805AC0F37C
:10204000403008737020805AC0F30030487370200D
:10205000805AC0F3812088737020805AC0F3012019
:10206000C8737020805CC0F3460008740120487477
:1020700019390020ADE70000FF054000F8B504461F
:10208000002000906946204601F0D1FA054615B1BE
:10209000A06B2843A0630098C0F343263046F8BDE8
:1020A00070B50446256B2068406BC0F3C03030B17A
:1020B00005F0080018B1204601F094FAEDE0206820
:1020C000406BC0F30020002862D04FF4807021687C
:1020D00088632068C06B4CF23A1188432168C8635A
:1020E0002068C06A20F001002168C86205F008007D
:1020F00038B305F0020010B905F0200050B1206897
:1021000000F004FE06462EB1A06B3043A0632046CB
:10211000FFF7CEFE40F23A5021688863012084F830
:1021200034000020206305F0010010B905F0020022
:1021300018B1204600F0C0F9AFE0204600F0C2F927
:10214000ABE005F080000028B8D005F0200050B1C9
:10215000206800F0DBFD06462EB1A06B3043A06383
:102160002046FFF7A5FE05F001000028A6D105F0E6
:1021700002000028A2D12068C06A20F0080021686F
:10218000C862012084F83400204600F09BF984E006
:102190002068406BC0F3803030B105F0080018B102
:1021A000204601F0C4FA78E02068406B00F03A0065
:1021B00008B1012000E0002000286ED02068406BAC
:1021C000C0F3400018B1A06B40F00200A06320688B
:1021D000406BC0F3C00018B1A06B40F00800A063D2
:1021E0002068406BC0F3401018B1A06B40F0200095
:1021F000A0632068406BC0F3001018B1A06B40F0E2
:102200001000A06340F23A50216888632068C06BD8
:1022100020F49D702168C863206800F077FDA16BF1
:102220000843A06305F0080040B1012084F83400A1
:10223000002020632046FFF73BFE2EE005F08000E3
:1022400000B305F0100010B905F0200050B113489C
:10225000E16B0865E06BFEF711FB98B1E06B01F0F4
:102260001CF81AE005F0010010B905F0020050B1A9
:102270000B48216C0865206CFEF700FB10B1206C48
:1022800000F0DEFF09E00020A063012084F83400A4
:10229000002020632046FFF7B5FD70BD9B3200088B
:1022A0004132000810B504460CB9012010BD94F865
:1022B000340020B900202077204600F053F8032096
:1022C00084F83400204600F00BF808B10120EDE757
:1022D0000020A0632063012084F834000020E5E79B
:1022E00070B58AB0044600200490059006900790CF
:1022F00008907620099007A807C88DE80700206895
:1023000004A90EC900F03CFA064616B101200AB035
:1023100070BD002012490860206800F0F1FA012029
:102320000F49A039C1F8A000204601F0F5F8054694
:102330003DB1012084F83400A06B2843A063012044
:10234000E5E7204601F067F805463DB1012084F835
:102350003400A06B2843A0630120D8E70020D6E713
:10236000A0802542704700002DE9F04387B0044665
:102370000F4691461E46C8463FB9A06B40F000602C
:10238000A063012007B0BDE8F08394F83400012871
:1023900070D10020A06308EB0601E06D814205D9F1
:1023A000A06B40F00070A0630120EBE7032084F8ED
:1023B000340000202168C8622068C06B40F495702A
:1023C0002168C8633848216CC8633848216CC864E8
:1023D0000020216C086572029308226802F18001D6
:1023E0003A46206CFEF7F8FB80B12068C06B20F401
:1023F00095702168C8632E4821688863A06B40F0FF
:102400008040A063012084F83400BBE70120294903
:102410000860606C012801D04FEA48284FF4007131
:10242000206800F02FFB05464DB1214821688863E4
:10243000A06B2843A063012084F83400A2E74FF08A
:10244000FF300190700202909020039002200490CF
:10245000002005900120069001A9206800F062F993
:10246000012E08D9822020634146206800F072FBCB
:10247000054607E016E0812020634146206800F011
:1024800085FB054665B10A4821688863A06B28432F
:10249000A063012084F8340000202063012071E74C
:1024A00000206FE702206DE7F93100088531000850
:1024B000FF0540008C8525420021014A11707047BC
:1024C000160000200021014A1170704717000020FB
:1024D0002DE9F04387B00446884691461E464F4694
:1024E000B8F1000F07D1A06B40F00060A06301209D
:1024F00007B0BDE8F08394F83400012875D10020BE
:10250000A063B919E06D814205D9A06B40F000705D
:10251000A0630120ECE7032084F834000020216848
:10252000C8622068C06B40F01A002168C86339484F
:10253000E16BC8633848E16BC8640020E16B086553
:10254000606C012800D07F024FF40071206800F019
:1025500099FA05464DB1314821688863A06B28433C
:10256000A063012084F83400C2E7012E07D9A0201F
:1025700020633946206800F0E7FB054606E090201E
:1025800020633946206800F0FBFB054665B123480F
:1025900021688863A06B2843A063012084F834007D
:1025A000002020630120A3E701201D49086071027B
:1025B0008B08216801F180024146E06BFEF70CFBBD
:1025C000A0B12068C06B20F01A002168C8631348CE
:1025D00021688863A06B40F08040A063012084F8EC
:1025E000340000202063012082E711E04FF0FF302B
:1025F00001907002029090200390002004900590BA
:102600000120069001A9206800F08CF800206FE7F7
:1026100002206DE78932000885310008FF0540007F
:102620008C85254270B504462546681EB0F1807F32
:1026300001D301200FE0681E4FF0E02148610F2117
:102640004FF0FF3000F05AF800204FF0E021886191
:1026500007200861002070BD00B587B000BF0020D2
:1026600001900D48006840F001000B4908600846E1
:10267000006800F00100019000BF00BF012003903E
:102680000490032005904FF40050029002A90348E3
:10269000FEF7B2FB07B000BD303802400000024038
:1026A00010B504460CB1012000E0002002464FF4B2
:1026B00000510248FEF7A1FC10BD000000000240DE
:1026C00010B54FF400510248FEF78EFC10BD00001B
:1026D0000000024000F01F020121914042099200D7
:1026E00002F1E022C2F800117047000002480068C1
:1026F000C0F30220704700000CED00E010B5002888
:1027000007DA0A07140E054A00F00F031B1FD45402
:1027100003E00A07130E024A135410BD18ED00E03F
:1027200000E400E010B502460023086850624868E3
:102730009062D1E9020420430C6920434C69204394
:102740000343D06A20F0F7001843D062002010BD88
:1027500001460869C0B270470146086800F00300EE
:102760007047024602F114004318186870470000D1
:1027700010B50248FFF794FC10BD00005000002087
:102780000FB410B504460021DDE903021043059A99
:102790001043069A1043079A1043089A10430143C6
:1027A000606847F6FF62904308436060002010BCF9
:1027B0005DF814FB10B588B0002400BF0020029023
:1027C0004848006840F400604649086008460068D0
:1027D00000F40060029000BF00BF00BF0020029024
:1027E00040481438006840F004003E49143908603D
:1027F0000846006800F00400029000BF00BF00BF60
:10280000002002900846006840F008000860084672
:10281000006800F00800029000BF00BF032006908F
:10282000022004900C200790012005904FF4706066
:10283000039003A92C48FEF7DFFA002005904FF41F
:102840008050039003A92848FEF7D6FA002005908F
:102850000420039003A92548FEF7CEFA00BF00200C
:10286000029020481438006840F480001D49143953
:1028700008600846006800F48000029000BF00BFB6
:102880003120FFF727FF4FF4806000213B234204F3
:10289000CDE900101649174802F08BFB4FF4806019
:1028A000402145234204CDE9001011494831124826
:1028B00002F07FFB00BF0F481049086408460D492D
:1028C000886300BF00BF0C480C49C86308460A492A
:1028D000886300BF002003F021F80446204608B0BA
:1028E00010BD00004438024000080240000C0240C5
:1028F00058640240D4000020340100205000002021
:1029000010B50446032020600220FDF7ABFD002037
:1029100010BD00002DE9F04106460F4690464FF6E7
:10292000FF7404E014B90120BDE8F081641E0F4873
:10293000FFF7A4FB0428F5D101200D490870434698
:102940003A4631460948FFF70FFD05460DB1012013
:10295000EAE74FF6FF7403E00CB90120E4E7641ED8
:10296000034800780028F7D100BFDDE750000020C1
:10297000160000200146D1F88000704710B50246CD
:10298000002308689060D1E901042043CC6820430B
:102990000C6920430343D0686FF30B001843D060E9
:1029A000002010BD2DE9F04106460F4690464FF637
:1029B000FF7404E014B90120BDE8F081641E0F48E3
:1029C000FFF75CFB0428F5D101200D490870434650
:1029D0003A4631460948FFF77BFD05460DB1012017
:1029E000EAE74FF6FF7403E00CB90120E4E7641E48
:1029F000034800780028F7D100BFDDE75000002031
:102A00001700002002460868C2F8800000207047C6
:102A100070B586B005460C460194372002904020E0
:102A20000390002004904FF48060059001A928468F
:102A3000FFF7A4FF41F288323721284600F0DCF985
:102A40000646304606B070BD70B586B005460C46E9
:102A50000B48204301902920029040200390002041
:102A600004904FF48060059001A92846FFF786FF87
:102A7000284600F0C9FA0646304606B070BD000090
:102A80000000108070B586B005460C4601941020F9
:102A9000029040200390002004904FF48060059045
:102AA00001A92846FFF76AFF41F288321021284623
:102AB00000F0A2F90646304606B070BD70B586B08B
:102AC00005460C4601940620029040200390002009
:102AD00004904FF48060059001A92846FFF74EFF4F
:102AE00041F288320621284600F086F90646304633
:102AF00006B070BD30B585B004460020009001904E
:102B0000029003904FF48060049069462046FFF7DE
:102B100035FF204600F050F90546284605B030BD87
:102B200030B585B004464FF4D57000900820019070
:102B300040200290002003904FF48060049069468A
:102B40002046FFF71BFF204600F0E6FA0546284620
:102B500005B030BD70B586B005460C460194122014
:102B6000029040200390002004904FF48060059074
:102B700001A92846FFF702FF41F2883212212846B8
:102B800000F03AF90646304606B070BD70B586B022
:102B900005460C460194112002904020039000202D
:102BA00004904FF48060059001A92846FFF7E6FEE7
:102BB00041F288321121284600F01EF906463046BF
:102BC00006B070BDF0B585B0064614461D460094AB
:102BD0000720019040200290002003904FF4806075
:102BE000049069463046FFF7C9FE41F2883207215A
:102BF000304600F001F90746384605B0F0BD30B563
:102C000085B004460020009002200190C020029070
:102C1000002003904FF48060049069462046FFF73F
:102C2000ADFE204600F0BEF90546284605B030BD91
:102C300070B586B005460C46019409200290C0206C
:102C40000390002004904FF48060059001A928466D
:102C5000FFF794FE284600F0A5F90646304606B078
:102C600070BD30B585B0044600200090332001903F
:102C700040200290002003904FF480600490694649
:102C80002046FFF77BFE41F288323321204600F0D8
:102C9000B3F80546284605B030BD70B586B0054688
:102CA0000C4601940D2002904020039000200490D7
:102CB0004FF48060059001A92846FFF75FFE41F2BE
:102CC00088320D21284600F097F80646304606B0B7
:102CD00070BD70B586B005460C46002001900320FB
:102CE000029040200390002004904FF480600590F3
:102CF00001A92846FFF742FE22460321284600F09C
:102D0000AFF90646304606B070BD000030B585B05C
:102D10000446002000900C200190402002900020EA
:102D200003904FF48060049069462046FFF726FE2A
:102D3000044A0C21204600F05FF80546284605B0FD
:102D400030BD000000E1F50570B586B005460C46C3
:102D500001941920029040200390002004904FF429
:102D60008060059001A92846FFF708FE41F28832ED
:102D70001921284600F040F80646304606B070BDDE
:102D800070B586B005460C4601941820029040208C
:102D90000390002004904FF48060059001A928461C
:102DA000FFF7ECFD41F288321821284600F024F8A4
:102DB0000646304606B070BD01460E480068C008A1
:102DC0004FF47A73B0FBF3F041F2883300FB03F267
:102DD00000BF101EA2F1010202D14FF00040704767
:102DE000486B00F080000028F3D0C52088630020E5
:102DF000F5E70000000000202DE9F04305460F46EE
:102E0000904666480068C0084FF47A71B0FBF1F054
:102E100000FB08F900BFB9F10000A9F1010903D1D5
:102E20004FF00040BDE8F0836E6B06F045000028CF
:102E3000F1D006F400600028EDD1686B00F00400CA
:102E400010B10420A863EDE7686B00F0010010B139
:102E50000120A863E6E7C520A8632846FFF778FCB1
:102E6000B84201D00120DDE700212846FFF779FCB8
:102E700004464B48204008B90020D3E704F0004046
:102E8000B0F1004F02D14FF00070CBE704F080406A
:102E9000B0F1804F01D14020C4E704F00050B0F100
:102EA000005F01D18020BDE704F08050B0F1805F69
:102EB00002D14FF48070B5E704F00060B0F1006F0C
:102EC00002D14FF40070ADE704F08060B0F1806F84
:102ED00002D14FF48060A5E704F08070B0F1807FEC
:102EE00002D14FF400609DE704F40000B0F5000F3C
:102EF00002D14FF4805095E704F48000B0F5800FC4
:102F000002D14FF400508DE704F40010B0F5001F1B
:102F100002D14FF4804085E704F48010B0F5801FA3
:102F200002D14FF400407DE704F48020B0F5802FFB
:102F300002D14FF4003075E704F40030B0F5003FE3
:102F400002D14FF480206DE704F48030B0F5803F6B
:102F500002D14FF4002065E704F40040B0F5004FC3
:102F600002D14FF480105DE704F48040B0F5804F4B
:102F700002D14FF4001055E704F40050B0F5005FA3
:102F800002D14FF480004DE704F00800082801D179
:102F9000000547E74FF4803044E7000000000020C0
:102FA00008E0FFFD10B5014616480068C0084FF460
:102FB0007A74B0FBF4F041F2883400FB04F300BFF4
:102FC000181EA3F1010302D14FF0004010BD4A6B5F
:102FD00002F045000028F3D002F400600028EFD191
:102FE000486B00F0040010B104208863EEE7486BE2
:102FF00000F0010010B101208863E7E7C520886375
:103000000020E3E70000002010B5014613480068E7
:10301000C0084FF47A74B0FBF4F041F2883400FB3E
:1030200004F300BF181EA3F1010302D14FF00040CA
:1030300010BD4A6B02F045000028F3D002F4006096
:103040000028EFD1486B00F0040010B10420886321
:10305000EEE7C52088630020EAE7000000000020BA
:103060002DE9F04304460F4690462A480068C00800
:103070004FF47A71B0FBF1F041F2883100FB01F9B5
:1030800000BFB9F10000A9F1010903D14FF00040E0
:10309000BDE8F083666B06F045000028F1D006F429
:1030A00000600028EDD1606B00F0040010B1042036
:1030B000A063EDE7606B00F0010010B10120A06398
:1030C000E6E72046FFF744FBB84201D00120DFE7E6
:1030D000C520A06300212046FFF743FB054605F409
:1030E000604020B9280CA8F800000020D0E705F4C3
:1030F0008040B0F5804F02D14FF40050C8E705F48E
:103100000040B0F5004F02D14FF48050C0E74FF4BB
:103110008030BDE70000002010B501461848006867
:10312000C0084FF47A74B0FBF4F041F2883400FB2D
:1031300004F300BF181EA3F1010302D14FF00040B9
:1031400010BD4A6B02F045000028F3D002F4006085
:103150000028EFD1486B00F0040010B10420886310
:10316000EEE7486B00F0010010B101208863E7E74B
:10317000486B00F0400008B1402088630020DFE782
:10318000000000202DE9F0410646B46B3046FDF703
:1031900089FB02282CD0206C476DE06BD0F854805E
:1031A000012F02D0B8F1010F1FD1124821688863A6
:1031B0002068C06B20F49D702168C863A06B40F04C
:1031C0008040A0632046FEF759FF0546062D01D03A
:1031D000052D05D12068FFF799FDA16B0843A06379
:1031E000012084F83400002020632046FEF760FEB2
:1031F000BDE8F081FF05400070B50646B46B206B5A
:1032000082280AD12068FFF781FD05462DB1A06B09
:103210002843A0632046FEF74BFE2068C06A20F0DA
:1032200008002168C86240F23A5021688863012092
:1032300084F83400002020632046FFF73DF970BD7C
:1032400070B50546AC6B40F23A5021688863204661
:10325000FEF714FF0646012084F8340000202063A6
:10326000062E01D0052E05D12068FFF74FFDA16B7A
:103270000843A063A06B18B92046FEF7C3FD02E027
:103280002046FEF715FE70BD0146886B0268D26BC2
:1032900042F480720368DA63704770B50546AC6B20
:1032A00040F23A50216888632046FEF7E7FE064662
:1032B000012084F8340000202063062E01D0052E62
:1032C00005D12068FFF722FDA16B0843A063A06B26
:1032D00018B92046FEF796FD02E02046FEF7E8FD0D
:1032E00070BD2DE9F04389B004460F46FDF78CFE12
:1032F00081464FF000080020019002903E460821D0
:103300002068FFF7BFFB05461DB1284609B0BDE8A0
:10331000F0835022125B11042068FFF779FB054609
:103320000DB12846F2E74FF0FF30039008200490DB
:103330003020059002200690002007900120089080
:1033400003A92068FFF7EEF92068FFF78AFC05461D
:103350000DB12846DAE715E02068406B00F4001054
:1033600038B12068FFF706FB01A941F8280008F1F1
:103370000108FDF749FEA0EB0900401C10B94FF011
:103380000040C3E72068406B40F22A410840002813
:10339000E2D02068406B00F0080018B108202168D6
:1033A0008863B3E72068406B00F0020018B1022088
:1033B00021688863AAE72068406B00F0200018B1FC
:1033C000202021688863A1E740F23A502168886391
:1033D00002980006029901F47F4140EA0120029917
:1033E00001F47F0140EA1120029940EA1160306047
:1033F000361D01980006019901F47F4140EA012041
:10340000019901F47F0140EA1120019940EA11601D
:10341000306000207AE730B58FB004460120039079
:103420002068FFF799F918B94FF080600FB030BDF0
:10343000606C03281BD02068FFF7E1FB05460DB147
:103440002846F3E700212068FFF78BF96067042125
:103450002068FFF786F9A06708212068FFF781F947
:10346000E0670C212068FFF77CF980210851606C2F
:10347000032807D003A92068FFF72BFC05460DB1F0
:103480002846D3E7606C032820D0BDF80C102165D6
:103490005022125B11042068FFF7CAFB05460DB1EC
:1034A0002846C3E700212068FFF75BF96066042126
:1034B0002068FFF756F9A06608212068FFF751F948
:1034C000E0660C212068FFF74CF920670421206892
:1034D000FFF747F9010DE16404A92046FEF7EAFC75
:1034E00010B14FF08050A1E75020005B01040A4664
:1034F00000232068FFF766FB05460DB1284695E7D7
:10350000D4E90412A069CDE90012029094E80F00FA
:10351000FFF736F9002089E7F8B50446002000904F
:10352000002600272068FFF7E5FA05460DB128467A
:10353000F8BD2068FFF7F4FA054645B10021A16403
:103540002068FFF7D7FA05461DB12846F0E70121AC
:10355000A164A06C012808D100212068FFF758FA67
:10356000054615B14FF08050E2E71DE000212068CC
:10357000FFF74EFA05460DB12846D9E718492068ED
:10358000FFF762FA054615B14FF08050D0E70021F1
:103590002068FFF7E6F80646012080EAD67080F042
:1035A00001070098401C00904FF6FF710098884278
:1035B00001D2002FDAD04FF6FF710098884202D373
:1035C0004FF08070B4E706F08040B0F1804F02D138
:1035D0000120606401E0002060640020A8E7000092
:1035E000000010C12DE9F0410546AC6AEF6AE7B171
:1035F0004FF0000814E02868FFF7BCF90646267073
:10360000641C7F1E300A2070641C7F1E300C2070EA
:10361000641C7F1E300E2070641C7F1E08F10108A0
:10362000B8F1080FE7D3AC62EF62BDE8F08170B586
:1036300004460D4615B94FF0006070BD5022125B74
:1036400011042068FFF729FB06460EB13046F4E767
:1036500000212068FFF785F828600020EDE77CB5A1
:10366000044600200090019000212068FFF779F8BF
:1036700000F00070B0F1007F02D14FF400607CBD1B
:1036800069462046FFF72DFE05460DB12846F6E7B0
:10369000019800F4803098B15022125B1104206828
:1036A000FFF7B6F905460DB12846E8E70021206886
:1036B000FFF704FA05460DB12846E0E70020DEE7F3
:1036C0004FF08060DBE77CB504460020009001905D
:1036D00000212068FFF745F800F00070B0F1007F8E
:1036E00002D14FF400607CBD69462046FFF7F9FD2A
:1036F00005460DB12846F6E7019800F4802098B100
:103700005022125B11042068FFF782F905460DB1C3
:103710002846E8E702212068FFF7D0F905460DB1F9
:103720002846E0E70020DEE74FF08060DBE7F8B5F1
:1037300005462C6A6E6A1EB300271DE020780090B3
:10374000641C761E2078009941EA00200090641CD9
:10375000761E2078009941EA00400090641C761E95
:103760002078009941EA00600090641C761E69464A
:103770002868FFF747F97F1C082FDFD32C626E62A1
:10378000F8BD000000B5ABB000BF002001902C4890
:10379000006840F080502A4908600846006800F040
:1037A0008050019000BF00BF00BF0020019025485D
:1037B000006840F44040234908600846006800F46F
:1037C0004040019000BF00BF0120199000041A90F2
:1037D00002201F90410519A8C16106210162B42190
:1037E0004162022181620821C16202210163FEF768
:1037F000C9F8FDF787FC0F202690032027900020B2
:1038000028904FF4A05029904FF480502A90052121
:1038100026A8FDF769FF4FF48070029006200890FB
:103820006021099102210B9104210A9101200D9040
:10383000C006179002A8FDF7ABFC2BB000BD00003E
:1038400040380240007000401448006840F47000A6
:10385000124908601248006840F0010010490860F1
:1038600000200F49083108600D4800680D490840E4
:103870000B4908600C48091D0860081F006820F407
:103880008020091F0860002005490C3108604FF0B6
:1038900000600249803908607047000088ED00E050
:1038A00000380240FFFFF6FE10300024F0B52DED89
:1038B000028B87B005460E46434905FB01F000EE3A
:1038C000100AF8EE400A300100EE100AB8EE400A85
:1038D00080EE801AB0EE418ABCEEC80A10EE100AE3
:1038E00084B200EE104AB8EE400A38EE400AF3EE19
:1038F000000A20EE200ABCEEC00A10EE100A87B2C1
:103900004FF6FF7000EA0414E01984B2032005901A
:103910000020049002200390072006904FF440708E
:10392000029000BF002001902848006840F0080085
:10393000264908600846006800F00800019000BFB2
:1039400000BF02A92248FDF757FA272000F01F0206
:10395000012191404209920002F1E022C2F80011D7
:1039600000BF00BF0020019018481030006840F4EC
:1039700080201649103108600846006800F4802055
:10398000019000BF00BF13480460001D006820F4D0
:1039900000401049091D08600846006840F0080012
:1039A00008600846006840F00400086008460068A7
:1039B00040F0200008600846006840F400500860AD
:1039C00007B0BDEC028BF0BD40420F003038024022
:1039D000000C0240084800401449096801F0200129
:1039E00019B31249091D0968C8B2C02811D110497C
:1039F000097831B900210F4A117001210C4A117068
:103A000013E000210A4A117001210B4A82F82010AC
:103A10000BE007490978012907D106490A78097896
:103A2000491C044B197004498854704700480040F1
:103A30002100002020000020C443002000BF0549D1
:103A4000096801F040010029F9D00249091D086008
:103A5000704700000048004002E008C8121F08C17B
:103A6000002AFAD170477047002001E001C1121FFF
:103A7000002AFBD17047000070B504460D460020B7
:103A8000E070401EE0622946204601F0E3FC08B1E8
:103A9000042070BD04F22E2001F0D9FA4AF6552117
:103AA000884201D00320F4E700BF94F83000E928F1
:103AB00007D094F83000EB2803D094F83000E828C1
:103AC00011D1032209A104F1660001F047FB08B9F6
:103AD0000020DEE7052206A104F1820001F03EFB92
:103AE00008B90020D5E70220D3E700004641540082
:103AF0004641543332000000024600E0521C107868
:103B000010B110788842F9D1107870470246891EAA
:103B10005069801E884201D8002070475389906AFE
:103B200003FB0100F9E72DE9F04782468846DAF801
:103B30000040B8F1000F06D1E76817B16069B842DC
:103B400015D8012713E04146504601F09BF9054680
:103B5000022D02D20120BDE8F087681C08B9284672
:103B6000F9E76069A84201D92846F4E74746206989
:103B700008B90020EFE70026474518D17E1C606990
:103B8000B04200D802263146504601F07BF9054686
:103B9000012D01D0681C08B92846DCE73DB1E56875
:103BA000022D03D36069A84200D92F460026E6B94A
:103BB0003E4600BF761C6069B04204D80226BE4271
:103BC00001D90020C7E73146504601F05BF90546B0
:103BD00005B909E0012D01D0681C08B92846BAE7EB
:103BE000BE42E7D10020B6E700BF4FF0FF323146BA
:103BF000204601F049FC8146B9F1000F08D1B8F127
:103C0000000F05D032464146204601F03DFC81467A
:103C1000B9F1000F0DD1E660D4E90410801E814295
:103C200002D82069401E2061207940F001002071F7
:103C300007E0B9F1010F02D14FF0FF3000E00120A1
:103C40000646304687E700002DE9F35F8946D9F83C
:103C50000080009800F120050B222021284601F069
:103C60009CFA0020074606464FF0080B00BF30467E
:103C7000761C18F80040202C00DC50E02F2C01D0DE
:103C80005C2C0AD100E0761C18F806002F28FAD028
:103C900018F806005C28F6D041E02E2C01D05F45D4
:103CA0000BD3BBF10B0F01D02E2C02D00620BDE8A8
:103CB000FC9F08274FF00B0BD9E7802C03DB04F0A7
:103CC0007F0021490C5C204600F048F8A8B130463E
:103CD000761C18F800A0504600F046F818B1ABF179
:103CE0000100B84201D80620E1E738467F1C2C5479
:103CF00038467F1C05F800A010E0214613A0FFF70E
:103D0000FBFE08B10620D2E7612C04DB7A2C02DC32
:103D1000A4F12000C4B238467F1C2C54A7E700BF92
:103D200008EB0600C9F800000FB90620BFE72878A5
:103D3000E52801D105202870202C01DC042000E0BA
:103D40000020E8720020B2E7245B0008222A2B2C16
:103D50003A3B3C3D3E3F5B5D7C7F0000014609B144
:103D6000002070470020FCE7014609B100207047A1
:103D70000020FCE72DE9F04104460E46D4F800800F
:103D80000021204600F059F90546EDB9002700BF93
:103D90004046A16901F05EFB054605B113E0E0690C
:103DA0000078E52802D0E069007820B9781C074641
:103DB000B04201D107E000270121204600F070F851
:103DC0000546002DE4D000BF042D00D1072528466C
:103DD000BDE8F0812DE9F04704468946204601F010
:103DE00077FD10B10120BDE8F08749462046FFF776
:103DF0008DFE0646E6624FF40072002104F13000A9
:103E000001F0CBF904F130080127002500E03D4422
:103E10006089A84207D9721960783B46414600F094
:103E2000A1F90028F3D06089A84201D00120DAE787
:103E30000020D8E72DE9F0410446276800212046FC
:103E400000F0FBF8054615B12846BDE8F08100BF3B
:103E50003846A16901F0FEFA054605B11DE0E069AA
:103E600006780EB9042518E0E069C07A00F03F003A
:103E7000A071E069C07A00F0080038B90B2204F1A3
:103E80002001E06901F06AF900B906E0002120464E
:103E900000F006F80546002DDAD000BF2846D4E72A
:103EA0002DE9F041044688462768206900F1200684
:103EB000B6F5001F01D30020A061A06910B904204D
:103EC000BDE8F081C6F30800002845D1A069401C78
:103ED000A061606938B93889B0EB561F3CD8002022
:103EE000A0610420ECE77889401E00EA562098BBC8
:103EF0002046616900F0C6FF0546012D01D8022069
:103F0000DEE7681C08B90120DAE77869A8421DD805
:103F1000B8F1000F03D10020A0610420D0E72046B3
:103F20006169FFF700FE05460DB90720C8E7012DBE
:103F300001D10220C4E7681C08B90120C0E7294666
:103F40003846FFF747FF08B10120B9E76561294608
:103F50003846FFF7DBFDA0612661C6F3080107F1D3
:103F600030000844E0610020AAE72DE9F04704464C
:103F700088460425D4F8009027E04846A16901F05E
:103F800069FA054605B123E0E06906780EB9042513
:103F90001EE0E069C07A00F03F07A771E52E0DD062
:103FA0002E2E0BD00F2F09D027F02000082801D18A
:103FB000012000E00020404500D109E0002120461A
:103FC000FFF76EFF054605B102E0A0690028D4D1D5
:103FD00000BF0DB10020A0612846BDE8F08770B594
:103FE0000446266801212046FFF7C4FE054695B920
:103FF0003046A16901F02EFA054665B9202200215C
:10400000E06901F0CAF80B2204F12001E06901F037
:10401000B7F80120F070284670BD70B504462668D8
:104020003046A16901F016FA054625B9E520E16997
:1040300008700120F070284670BD2DE9F04104465B
:104040000D462668B5F5001F02D205F01F0010B11D
:104050000220BDE8F0812561A7681FB930780328E8
:1040600000DB776A47B93089B0EB551F01D80220D1
:10407000EFE7706AA0611CE070894FEA402811E008
:104080003946204600F0FEFE0746781C08B901209C
:10409000DFE7022F02D37069B84201D80220D8E7C7
:1040A000A5EB08054545EBD239463046FFF72EFD16
:1040B000A0616761A06908B90220CAE7A06900EBA6
:1040C0005520A061C5F3080106F130000844E06105
:1040D0000020BEE710B504460120094908704CB91C
:1040E000FEF768FB28B90648007820F00100044973
:1040F000087001E0042010BD00BF01480078FAE715
:104100000D00002003460BB9002070470420FCE797
:104110002DE9F04105460E4617461C4614B9042009
:10412000BDE8F0810948007800F0010008B10320E3
:10413000F6E74DB9224639463046FEF7EBFB08B9A3
:104140000020EDE70120EBE70420E9E70D00002067
:104150000146012901DB0120704701480078FBE797
:104160000D0000202DE9F04105460E4617461C467D
:1041700014B90420BDE8F0810D48007800F001007A
:1041800008B10320F6E70A48007800F0040008B1FF
:104190000220EFE74DB9224639463046FEF702FCD1
:1041A00008B90020E6E70120E4E70420E2E7000088
:1041B0000D000020024691F8200008B90020704749
:1041C000002081F820000878012801D00020F6E7BF
:1041D0004878904201D00020F1E7087A08B1002029
:1041E000EDE7487A08B10020E9E70120E7E77CB570
:1041F00004460D46009401956A4608210F2000F000
:1042000037F80F2000F046FA7CBD000031B56A4651
:1042100004210A2000F02CF80A2000F03BFA50B1EB
:10422000072404E02D020548005D0543641E042CAC
:10423000F8D2284638BD0020FCE70000C443002027
:1042400010B5044609480068B0F5FA6F04D9FEF7C6
:1042500037FA00200549086004480068401C0349FB
:1042600008602046FFF7EAFB10BD00001C0000209C
:1042700037B582B00546144600200190C020FFF7F4
:10428000DFFF0020FFF7DCFF2846FFF7D9FF022100
:1042900003A801F0A3FA042101A801F09FFABDF8D8
:1042A0000C10204601F09AFAC020FFF7C9FF05B0B4
:1042B00030BDFFB585B0064614461D460E9F04F17D
:1042C000100080B2049000200090019002900390B2
:1042D00000940195C020FFF7B3FF0020FFF7B0FF67
:1042E0003046FFF7ADFF022104A801F077FA042160
:1042F00006A801F073FA1021684601F06FFA214612
:10430000384601F06BFAC020FFF79AFF09B0F0BD04
:104310002DE9FF4104460D4617461E4600940195BF
:10432000029703966A4610210220FFF7A1FF0220A0
:1043300000F0B0F904B0BDE8F081F8B504460E46CF
:104340001546A1B2284600F0D3F90746F3B2A2B24F
:10435000394603200095FFF7ACFF032000F09AF9DF
:10436000F8BD2DE9FF4104460D4617461E46009450
:104370000195029703966A4610210520FFF778FF02
:10438000052000F087F904B0BDE8F081F8B50446D7
:104390000E461546A1B2284600F0AAF90746F3B228
:1043A000A2B2394607200095FFF783FF072000F0EF
:1043B00071F9F8BD2DE9F0470646894614461F46B7
:1043C00000253019401EB0FBF4F01FFA80F800BF42
:1043D0000BE03A4629462046FFF7D8FF10B90020E7
:1043E000BDE8F0872744681C85B2A8F10100A84207
:1043F000EFDC04FB15603A462946FFF7C7FFEFE7FD
:104400007CB504460D46009401956A4608210620B5
:10441000FFF72EFF062000F03DF97CBD10B58AB0F5
:10442000202102A8FBF738FF094800680190042406
:1044300004E0552001A90855601CC4B2242CF8DB07
:1044400001AA24210820FFF713FF0AB010BD0000C5
:10445000E07D00087FB505460C46002000900190E5
:1044600002900390009501946A4610211320FFF7F3
:10447000FFFE012004B070BD2DE9F04387B0044673
:104480000D4616461F46DDE90E89019402950396F6
:104490000497CDF81480CDF8189001AA18210B20AC
:1044A000FFF7E6FE0B2000F0F5F807B0BDE8F0835B
:1044B0002DE9F04391B0002500BFFFF7AFFF6D1C61
:1044C0006420FBF7CFFFFEF7FBF8322D03D9002065
:1044D00011B0BDE8F08346490820FFF76BFE0028C5
:1044E000EBD041F63C7602274FF4C058414B424690
:1044F00039463046FFF735FF3F4B42463946304696
:10450000FFF758FF4FF44076012700BF3B4B424670
:1045100039463046FFF725FF394B4246394630468B
:10452000FFF748FF3349091D0020FFF769FF1C22F0
:1045300034490AA8FBF797FE142232491C3105A81A
:10454000FBF791FE14222F4930316846FBF78BFEB2
:10455000002407E00AA951F82400FFF757FE81461E
:10456000601CC4B2072CF5D3002408E05DF82410C9
:1045700005AA52F8240000F0A5F8601CC4B2052C6E
:10458000F4D32049443103C9CDE90F011D494C3111
:1045900003C9CDE90D011B49543103C9CDE90B0114
:1045A000002407E00FA951F82400FFF72FFE8146F1
:1045B000601CC4B2022CF5D3002409E00BAA52F807
:1045C00024100DAA52F8240000F07CF8601CC4B23C
:1045D000022CF3D34FF6FF704FF480710B01421C95
:1045E000CDE9001009040020FFF746FF70E7000046
:1045F000C443002000001040A45B0008A4ABFF3FB0
:10460000E07A0008F47D00082DE9F043ADF50B7D5C
:1046100006460D464FF000090122314601A800F080
:10462000B3F820B100200DF50B7DBDE8F083049CAC
:1046300004F58040401E870B4FF480482B464246CD
:1046400039462046FFF764FE11E06B464FF4804286
:104650000F4901A800F08AF949464A1C02F0FF09F7
:104660000B4A0098FFF769FE08B90020DBE70499C0
:104670000698884201D1012000E000200028E4D003
:1046800001A800F046F821462846FFF7E3FECAE7F6
:10469000C403002070B50546002409E0FEF710F8B9
:1046A0006420FBF7DFFE641C322C01D9002070BDB2
:1046B00003492846FFF77EFD0028EFD00120F6E7EA
:1046C000C44300207FB504460D46084B0FCB8DE850
:1046D0000F00009401956A4610210920FFF7C8FDDC
:1046E0000920FFF7D7FF04B070BD0000E47D00088B
:1046F00010B503460022EF2409B9002010BD0022A6
:1047000003E0985C4440501C82B28A42F9DB2046A8
:10471000F4E738B50546284600F084FA04463CB96B
:104720006946284601F0D0F904460CB900202860FB
:10473000204638BDF7B582B016460398019001A80F
:1047400000F010FC0546002D02DA0B2005B0F0BD8C
:104750000C4850F825400CB100202070029810B190
:104760000020029908700749029841F825000EB907
:104770000020EBE7002202A903A800F017FD07467E
:104780003846E3E7100000202DE9F74F8CB00446CF
:1047900016461CB909200FB0BDE8F08F06F03F06A1
:1047A000324669460DA800F001FD0546002D7DD179
:1047B0000098019001A80D9900F015FB05462DB950
:1047C0009DF82F0000F0800000B1062506F01C00C7
:1047D00000284DD045B1042D03D101A8FFF7FFFB00
:1047E000054646F008060AE09DF80A0000F01100B0
:1047F00008B1072503E006F0040000B10825002DEC
:1048000047D106F00800002843D00899009800F02E
:10481000FFFB8146089901F10E00534900F0FDFFAE
:1048200020200899C87200220899009800F0E3FF40
:10483000089901F11C00002100F0EFFF0120009910
:10484000C870B9F1000F24D00098D0F82CA0002235
:10485000494601A800F0B4FE0546D5B95146009876
:1048600000F0F8FD0546A9F101000099C86010E0CC
:104870007DB99DF80A0000F0100008B1042508E099
:1048800006F0020028B19DF80A0000F0010000B116
:1048900007254DB906F0080008B146F0400600981B
:1048A000C06A206208986062002D00E049E056D19D
:1048B0000899009800F0ACFBA060089901F11C0079
:1048C00000F0B9FBE060009820600098C088A080EC
:1048D000267400206074E06160614FF40072002172
:1048E00004F1280000F059FC06F0200048B3E0680D
:1048F00038B3E0686061009840894FEA402BA768B0
:10490000D4F80C800CE03946204600F0BBFA07468C
:10491000012F00D80225781C00B90125A8EB0B084F
:104920000DB9D845EFD8A7615DB9C8F3080040B10B
:1049300039460098FFF7EAF88246BAF1000F01D134
:1049400002250CE00AEB5820E061E2690099487802
:10495000012304F12801FFF7DBFB00B101250DB1B4
:1049600000202060284616E70000214E2DE9FF4F69
:1049700085B0044615469A46DDF818B00020CAF8FE
:10498000000003A9204601F09FF80490049810B994
:10499000607C049018B1049809B0BDE8F08F207CC9
:1049A00000F0010008B90720F6E76169E068401AE5
:1049B00001900198854200D9019DA0E0A08AC0F332
:1049C000080000287ED103984089401E616900EAF2
:1049D0005129B9F1000F17D1606910B9A068029090
:1049E00004E02046A16900F04DFA029002980228E6
:1049F00002D202206074CFE70298401C10B9012057
:104A00006074C9E70298A061A1690398FFF77EF876
:104A1000064616B902206074BEE74E444FEA552898
:104A2000B8F1000F29D009EB0800039949898842A1
:104A300003D903984089A0EB0908039948784346B5
:104A400032465946FFF764FB10B101206074A3E7BA
:104A5000207C00F0800068B1E069801B404509D2ED
:104A6000E169891B0BEB41204FF4007204F128012E
:104A700000F086FB4FEA482737E0E069B04220D0DB
:104A8000207C00F0800078B1E26903994878012326
:104A900004F12801FFF766FB10B1012060747BE789
:104AA000207C00F07F00207403994878012332466F
:104AB00004F12801FFF72CFB18B1012060746BE7AB
:104AC00000E0E661A08AC0F30800C0F50077AF42BD
:104AD00000D92F46A08AC0F3080204F1280011185B
:104AE0003A46584600F04CFB00BFED1BDAF80000D8
:104AF0003844CAF80000BB44606938446061002D46
:104B00007FF45CAF002047E7F3B59FB020A800F02A
:104B100029FA022208A91FA800F048FB0446002C2D
:104B20007CD10898149014A81F9900F05CF90446F1
:104B30002CB99DF87B0000F0A00000B10624002CE9
:104B40006CD1202268461B9900F01AFB2C2214A974
:104B500009A800F015FB09A8209900F044F90446C3
:104B60005CB916990B98884205D118990D9888421E
:104B700001D1042000E008200446042C44D109A8F7
:104B8000FFF72DFA0446002C3ED1109D13220DF1A3
:104B90000D0105F10D0000F0F3FA9DF80B00E8722D
:104BA000E87A00F0100018B9E87A40F02000E872C6
:104BB00001200899C870E87A00F0100020B30B9922
:104BC0001698884220D02946089800F021FA074616
:104BD00039460898FEF79AFF06460EB9022413E0FC
:104BE0003146089800F036FC0446089800F150055C
:104BF00054B968782E2807D129460B9A089800F0F6
:104C0000FAFD01200899C87044B914A8FFF705FA05
:104C100004461CB9089800F013FE0446204621B053
:104C2000F0BD0000F8B504466946204600F04CFF90
:104C30000646002E42D1207C00F0400000283DD0E6
:104C4000207C00F0800070B1E2690099487801236F
:104C500004F12801FFF786FA08B10120F8BD207C95
:104C600000F07F002074164F216A009800F0F2FBDC
:104C700006461EBB656AE87A40F02000E8722946C5
:104C8000A268206800F0B7FD05F11C00E16800F0A3
:104C9000C4FD394605F1160000F0BFFD002105F105
:104CA000120000F0C6FD01200099C870009800F0C5
:104CB000C7FD0646207C00F0BF0020743046CDE7DB
:104CC0000000214E31B598B00025022201A918A894
:104CD00000F06CFA0446002C46D101980D900DA806
:104CE000189900F080F8044600BF002C3CD19DF8D4
:104CF0005F0000F0800008B1062405E09DF83A004E
:104D000000F0010000B10724E4B91499019800F003
:104D10007FF905469DF83A0000F0100090B1019827
:104D200002900495002102A8FFF787F904464CB9C8
:104D3000002102A8FFF719F9044604B90724042C3E
:104D400000D1002484B90DA8FFF767F9044634B9EF
:104D50002DB1002229460DA800F032FC04461CB9F2
:104D6000019800F06DFD0446204619B030BD2DE9D4
:104D7000FF4107460D4600213846FEF77DFE0646F8
:104D8000022E06D0032E00D21DB9304604B0BDE875
:104D9000F08100BF00240AE007F5F77101EB041170
:104DA00001F1080000F047F94DF82400641C042CC0
:104DB000F2D30DB1681E00E00020044600BF5DF88C
:104DC000240028B15DF824103846FEF755FE00E0B7
:104DD000032006462DB9022E03D3601C0446042886
:104DE000EDD33046D2E72DE9F3410446276802E0CF
:104DF0000198401C0190019800782F28F8D0019864
:104E000000785C28F4D00020A06001980078202869
:104E100008D280212B20015500212046FFF70DF9F3
:104E200005462CE000BF01A92046FEF70DFF054610
:104E300005B123E02046FEF7FDFF05462B20065D69
:104E40003DB1042D04D100BF06F0040000B90525D2
:104E500014E006F0040000B110E0A07900F01000AA
:104E600008B905250AE0208AC0F3080207F13000DE
:104E70001118384600F0CCF8A060D4E700BF2846EF
:104E8000BDE8FC812DE9F04781460C46D9F8005079
:104E9000022C02D36869A04202D84FF001085EE0FC
:104EA0004FF0FF382878012804D002282CD003289E
:104EB00051D13CE0264606EB5606286A00EB562107
:104EC000284600F0C7FA00B148E03046761CC0F32F
:104ED000080105F13000475C286A00EB562128469E
:104EE00000F0B8FA00B139E0C6F3080105F130006E
:104EF000405C47EA002704F0010008B1380901E0EE
:104F0000C7F30B00804629E0286A00EB14212846ED
:104F100000F0A0FA00B121E040F2FF1101EA4402E2
:104F200005F13001501800F092F8804616E0286A2A
:104F300000EBD411284600F08DFA00B10EE040F2EB
:104F4000FF1101EA840205F13001501800F073F8F6
:104F500020F0704802E04FF0010800BF00BF40465B
:104F6000BDE8F08770B504464FF0FF302668314643
:104F7000324601B970BD00BF12F8013B212B01D3AD
:104F80003A2BF9D13A2B11D101250E78302E08DBBE
:104F90000E78392E05DC8E1C964202D10E78A6F1D1
:104FA0003005012D01DA28462260E3E7002000BF2A
:104FB000E0E72DE9F04704460D4616461F46DDE9B9
:104FC000088925606660C4F808800021E160C4F8A3
:104FD00010904FF4805161618900A1612021E1614D
:104FE00000212162042161620321A1624FF40001CA
:104FF000E162891021632046FBF778FD18B141F288
:105000008830FBF72FFA3846FDF764FBBDE8F087E0
:1050100070B505460C4604F11A0000F018F8064673
:105020002878032805D104F1140000F010F846EAAE
:105030000046304670BD0146C8788A7842EA0020B2
:105040004A7842EA00200A7842EA00207047014686
:1050500048780A7842EA002070470000FEF792FB89
:105060000320FCF73BF8B420FBF7E8F9C820FBF776
:10507000F9F9FDF7F1FA012226A12748FFF75AFBBB
:105080000546002D34D100F053FB044604F0040023
:1050900058B100F069FC04F0020030B91FA0FFF71E
:1050A00011FE1EA121A0FFF72FFD04F00800F0B1B2
:1050B000FBF720FAFFF7FCF9B8B14FF4E1311F48D4
:1050C000FFF795F81D492D20FEF7F0FB00211CA0ED
:1050D000FFF79AFA48B104F0020030B91BA0FFF7BD
:1050E000F1FD1AA116A0FFF70FFDFBF7E7F900BFCE
:1050F0001948406800F07F40B0F1006F05D1FBF720
:10510000F9F9FBF7DBF900F0A9FA0120FDF7C8FA7D
:1051100000BFFEE7303A0000940100204649524D9E
:10512000574152452E435552000000006669726D8A
:10513000776172652E62696E0000000090D00300F6
:1051400065737033642E62696E000000657370339E
:10515000642E43555200000000800008F0B503465D
:105160001D460C46002000BF15F8017B14F801CB4A
:10517000A7EB0C00561E321E01D00028F4D0F0BD63
:1051800030B503460C463AB100BF14F8015B03F892
:10519000015B551E2A1EF8D130BD10B5034600BF75
:1051A00003F8011B541E221EFAD110BD2DE9F74F42
:1051B00084B00021059801600498FFF7D3FE0390A6
:1051C0000398002803DA0B2007B0BDE8F08F9C4954
:1051D000039851F820400CB90C20F5E705980460BD
:1051E000069800F0FE000690207878B16078FEF70F
:1051F000AFFF074607F0010040B9069820B107F05D
:10520000040008B10A20DFE70020DDE7002020705D
:10521000039860706078FEF75DFF074607F00100B5
:1052200008B10320D0E7069820B107F0040008B1C8
:105230000A20C9E700212046FFF799FD0546042D05
:1052400001D10120C0E7022D01D30D20BCE7D4F825
:105250002C9004F13B00FFF7FAFEB0F5007F01D07F
:105260000D20B1E704F14600FFF7F1FE064626B92E
:1052700004F15400FFF7DFFE0646A6614020005D02
:10528000A070A078012804D0A078022801D00D20B9
:105290009AE7A07846433D20005D6081608918B19F
:1052A0006089411E084008B10D208DE704F14100DE
:1052B000FFF7CDFE2081207A00F00F0008B10D200D
:1052C00082E704F14300FFF7C2FE8246BAF1000F05
:1052D00004D104F15000FFF7AEFE824604F13E0017
:1052E000FFF7B5FE8346BBF1000F01D10D206BE740
:1052F0000BEB0600218900EB111002900298824509
:1053000001D20D2060E70298AAEB00006189B0FB92
:10531000F1F8B8F1000F01D10D2055E700254948FB
:10532000804500D803254FF6F570804500D802254A
:1053300040F6F570804500D801250DB90D2043E7F2
:1053400008F102006061C4F81C9009EB0B002062B8
:1053500002984844A062032D13D104F15A00FFF7CC
:1053600076FE08B10D202FE7208908B10D202BE72C
:1053700004F15C00FFF75FFE6062606980000190ED
:1053800014E0208908B90D201EE7206A30446062CD
:10539000022D02D16069400007E0207D00F001008D
:1053A000616901EB410100EB51000190A169019895
:1053B00000F2FF10B1EB502F01D20D2004E74FF0A7
:1053C000FF302061E06080202071032D2DD104F199
:1053D0006000FFF73CFE012827D109F101012046BA
:1053E00000F038F808BB0020207104F22E20FFF7EF
:1053F0002EFE4AF65521884217D104F13000FFF7FE
:105400001AFE1149884210D104F50570FFF713FE0A
:105410000E49884209D104F50670FFF70CFE2061A1
:1054200004F50770FFF707FEE06025700848008864
:10543000401C80B206490880E0800020C4E60000DD
:1054400010000020F5FFFF0F52526141727241615E
:105450001400002070B504460D460026E06AA842FC
:1054600010D0204600F034FA06465EB96078012379
:105470002A4604F13001FEF74BFE10B14FF0FF3524
:105480000126E562304670BD2DE9F04704460D4621
:1054900016464FF00209022D74D36069A84271D9F3
:1054A0002078012804D0022849D003280DD15EE0DD
:1054B0002F4607EB5707206A00EB57212046FFF7DE
:1054C000C9FF8146B9F1000F00D075E038467F1C56
:1054D000C0F3080104F1300001EB000805F0010001
:1054E00028B1F1B298F8000061F31F1000E03046D7
:1054F00088F800000120E070206A00EB5721204668
:10550000FFF7A8FF8146B9F1000F00D054E0C7F3C0
:10551000080104F1300001EB000805F0010010B1B2
:10552000C6F3071006E098F8000000F0F000C6F39C
:105530000321084388F800000120E0703CE0206A65
:1055400000EB15212046FFF785FF8146B9F1000FDA
:1055500000D031E0B1B240F2FF1202EA450304F19B
:105560003002981800F065F90120E07024E0206A0C
:1055700000EBD5112046FFF76DFF8146B9F1000F12
:1055800001D019E019E040F2FF1101EA850204F1AF
:1055900030015018FFF74FFD66F31B00064640F23E
:1055A000FF1101EA850204F130015018314600F084
:1055B00034F90120E07000BF00BF4846BDE8F08725
:1055C0002DE9F04781460E4617464FF00008D9F8FE
:1055D0000040022E02D36069B04202D80220BDE82A
:1055E000F08767B100BF4FF0FF3239462046FFF722
:1055F0004BFF8046B8F1000F01D04046EFE700BFF7
:1056000031464846FFF73EFC054605B922E0012D2C
:1056100001D10220E3E7681C08B90120DFE700227E
:1056200031462046FFF730FF8046B8F1000F01D029
:105630004046D4E7D4E90410801E814206D2206996
:10564000401C2061207940F0010020712E466069E5
:10565000B042D5D800BF0020C1E7000010B53148E6
:10566000006840F001002F4908600846006840F0DB
:10567000040008600846006840F00800086008461A
:10568000006840F04000086026481430006840F48C
:1056900000602449143108602248006840F480000A
:1056A000204908601F481030006840F480201D49E0
:1056B000103108601B48006820F00100194908609B
:1056C0000846006820F0040008600846006820F0E2
:1056D000080008600846006820F040000860114893
:1056E0001430006820F400600E49143108600D4841
:1056F000006820F480000B4908600A4810300068F8
:1057000020F48020074910310860074840680749A5
:10571000086005490868FAF75FFD0448006880479B
:1057200010BD000010380240008000082400002056
:1057300010B5ADF50A7D0024002212A16846FFF7DE
:1057400023F820B944F002046846FEF7E2FF002285
:105750000FA16846FFF718F820B944F00404684622
:10576000FEF7D7FF00220EA16846FFF70DF820B91B
:1057700044F008046846FEF7CCFF20460DF50A7D8C
:1057800010BD000061646D696E2E747874000000B5
:105790006669726D776172652E62696E0000000045
:1057A00065737033642E62696E00000010B50446A4
:1057B000C02C06D1DB20FEF743FDDC20FEF740FDC8
:1057C0000BE0DB2C06D1DB20FEF73AFDDD20FEF7F7
:1057D00037FD02E02046FEF733FD10BD70B50546EB
:1057E0000E46002404E0285DFFF7E0FF601C84B251
:1057F000B442F8DB70BD70B506460C461546A9B23A
:1058000004F11A0000F015F83078032804D1290CAF
:1058100004F1140000F00DF870BD00F8011B090A36
:1058200000F8011B090A00F8011B090A00F8011B16
:10583000704700F8011B091200F8011B70470000B7
:1058400070B50446204600F043F80546002D38D1D7
:10585000207803282ED1207901282BD14202002163
:1058600004F13000FFF799FC4AF6552104F22E208E
:10587000FFF7DFFF144904F13000FFF7CEFF1349B3
:1058800004F50570FFF7C9FF04F506702169FFF7FD
:10589000C4FF04F50770E168FFF7BFFFE069401C33
:1058A000E0626078012304F13001E26AFEF75AFCFD
:1058B00000202071607800221146FEF723FC00B121
:1058C0000125284670BD000052526141727241614B
:1058D00070B504460025E078E8B16078012304F152
:1058E0003001E26AFEF73EFCA0B90020E070216AB8
:1058F000E06A401AA16988420DD2A07802280AD134
:10590000A369E16ACA186078012304F13001FEF747
:1059100029FC00E00125284670BD000070B5044652
:1059200000250F480F4908600020486014B14FF46B
:10593000806100E000210B4881600021C1600161AD
:1059400041618161FCF7AEFC054635B94FF4006159
:105950000448FCF759FA00B10125284670BD000043
:10596000002C01405000002070B5ADF5127D0024E0
:105970000026022501224AA103A8FEF705FF18B15F
:1059800000200DF5127D70BD494906980844B0F11C
:10599000016F01D30020F4E7FBF714FA6CE0B6F5D1
:1059A000FA6F02D9FCF78CFE0026761C02AB0422AB
:1059B000404903A8FEF7DAFF00B166E03C48204406
:1059C0003D4951F82510884244D10020FCF768FE7B
:1059D000002001908D9002209190384830F81500F9
:1059E0008F900120909001A98DA8FBF73FF908B195
:1059F0000020C6E7681CC5B23148006820F480600A
:105A00002F4908600846006820F40070086000BF55
:105A10000846006840F4805008600846006820F49A
:105A20008050086000BF00BF0846006840F4006076
:105A300008600846006820F40060086000BF08465F
:105A4000006840F4007008600846006840F4806018
:105A5000086000BF1648211816480023026802207B
:105A6000FBF764F9174908700846007810B90298E6
:105A7000044401E0002084E706990898884201D197
:105A8000012000E00020002889D000BF03A8FEF715
:105A900040FEFBF741F90020FCF702FE012070E711
:105AA0006669726D776172652E62696E0000000032
:105AB0000080000828000020507E0008707E00084A
:105AC000003C02402C00002070B504460D4609261B
:105AD0008CB1206878B12068007860B1A088216816
