:020000040800F2
:1000000038070024ED020008F5020008F702000896
:10001000F9020008FB020008FD02000800000000D1
:10002000000000000000000000000000FF020008C7
:100030000103000800000000030300083B4D000816
:100040000703000807030008070300080703000868
:100050000703000807030008070300080703000858
:100060000703000807030008070300080703000848
:100070000703000807030008070300080703000838
:100080000703000807030008070300080703000828
:100090000703000807030008070300080703000818
:1000A0000703000807030008070300080703000808
:1000B00007030008070300080703000807030008F8
:1000C00007030008070300080703000807030008E8
:1000D000070300080703000807030008594F00083A
:1000E00007030008070300080000000007030008DA
:1000F00007030008070300080703000807030008B8
:1001000007030008B53E00080703000807030008BE
:100110000703000807030008070300080703000897
:100120000703000807030008070300080703000887
:100130000703000807030008070300080703000877
:1001400000000000000000000000000000000000AF
:100150000703000807030008070300080703000857
:100160000703000807030008070300080703000847
:100170000703000807030008070300080000000049
:100180000703000807030008070300080703000827
:100190000703000807030008070300080703000817
:1001A0000703000807030008070300080000000019
:1001B00007030008070300080703000807030008F7
:1001C000070300080703000800000000000000000B
:1001D000000000000000000007030008000000000D
:1001E000000000000000000000000000000000000F
:1001F00000000000000000000703000807030008DB
:1002000007030008070300080000000007030008B8
:100210000703000807030008070300080703000896
:1002200007030008000000000703000800000000AA
:100230000703000807030008000000000703000888
:100240000703000807030008070300080703000866
:100250000703000807030008070300080703000856
:100260000703000807030008070300080703000846
:100270000703000807030008070300080000000048
:100280000703000807030008070300080703000826
:10029000000000000703000807030008000000003A
:1002A0000000000007030008070300080703000818
:1002B00007030008070300080703000807030008F6
:1002C000070300080703000807030008DFF810D041
:1002D00000F030F8004800473D600008AFF30080B0
:1002E0003807002480F308887047000006488047DC
:1002F00006480047FEE7FEE7FEE7FEE7FEE7FEE70B
:10030000FEE7FEE7FEE7FEE7714E0008CD020008BB
:10031000D2B201E000F8012B491EFBD27047002247
:10032000F6E710B513460A4604461946FFF7F0FFF4
:10033000204610BD064C074D06E0E06840F0010382
:1003400094E8070098471034AC42F6D3FFF7C2FF99
:10035000086A0008286A000810B50446204600F024
:10036000B3F810BD10B501F001037BB1084BDB6899
:1003700023F4E663064CE36042F0040343EA0023FF
:1003800043F08003E4682343014CE36010BD0000A8
:100390000020005201F0010272B1084AD26822F036
:1003A0003002064BDA601A46D2680243DA601A4617
:1003B000D26842F08802DA607047000000200052E4
:1003C0002DE9F04104460E4604271A4800691A49EF
:1003D00000EA010500F0A6FA80460BE0601C48B177
:1003E00000F0A0FAA0EB0800A04200D814B9032046
:1003F000BDE8F0810F4800693840B842EED025F0E2
:10040000004040B10D48806928430C498861094883
:1004100045610120ECE7012E09D10648006900F48E
:100420008030B0F5803F02D130040249486100209D
:10043000DEE70000002000520000EE172800002434
:1004400010B5184818490860002008601748091DB1
:100450000860002008601648091D08600020086038
:100460001448091D0860002008600820091D086064
:10047000002008601048091D0860002008600F482F
:10048000091D0860002008600D48091D0860002053
:1004900008600C48091D08600020086000F0B0FAF0
:1004A000002010BD1150E9007C4402582380000256
:1004B00071020300FF062803FFC3FFEA36010003B1
:1004C000F3305740AADE200470B5044600F02AFA43
:1004D00006462546681C10B104480078054400BF54
:1004E00000F020FA801BA842FAD370BD100000244F
:1004F0002DE9F04104460E46002700BF2F48007D3D
:10050000012802D10220BDE8F08101202B490875A5
:1005100000BF00208861207900F0010030B1012186
:100520004CF25030FFF74CFF00B10127002F3DD1B6
:100530002068012815D161682069FFF72BFF207919
:1005400000F0010090B301214CF25030FFF738FF6A
:1005500000B101271A48C06820F008001849C86097
:1005600024E04FF0FF303060A56819E0284622698A
:100570006168FFF7F7FE207900F0010060B101210A
:100580004CF25030FFF71CFF07460D48C06840F2A0
:10059000047188430A49C8600FB1356005E06D1CDD
:1005A000D4E902100844A842E0D800BF00BF0020F0
:1005B0000249087500BF3846A5E70000280000245E
:1005C000002000520748C06840F001000549C8609B
:1005D0000846C06800F0010008B9012070470020FB
:1005E000FCE70000002000522DE9F05F83460C4636
:1005F00016462746B0464FF0080A00BF3348007D34
:10060000012802D10220BDE8F09F01202F49087582
:1006100000BFB4F1006F04D3B4F1016F01D2814681
:1006200001E00120EFE700202849886149464CF2AB
:100630005030FFF7C5FE0546F5BB2548C06840F0C1
:1006400002002349C86000BF00BF00BFBFF36F8F27
:1006500000BF00BF00BF00BF00BF00BFBFF34F8F90
:1006600000BF00BF00BF00BFD8F8000038603F1DCA
:1006700008F10408AAF1010000F0FF0ABAF1000F26
:10068000F2D100BF00BF00BFBFF36F8F00BF00BF3C
:1006900000BF00BF00BF00BFBFF34F8F00BF00BF50
:1006A00000BF49464CF25030FFF78AFE0546084825
:1006B000C06820F0020000E001E00549C86000BF0A
:1006C00000200249087500BF28469CE72800002446
:1006D000002000520948C06800F0010058B10848E5
:1006E00006494860074848600846C06800F00100B5
:1006F00008B1012070470020FCE7000000200052F4
:1007000023016745AB89EFCDF8B502460023714D53
:10071000D9E001279F400E6806EA0704002C71D03B
:100720004E68012E08D04E68022E05D04E68112E5C
:1007300002D04E68122E13D190685F000326BE408F
:10074000B0435F00CE68BE403043906050680126E1
:100750009E40B0430E79C6F300169E403043506071
:10076000D0685F000326BE40B0435F008E68BE4085
:100770003043D0604E68022E02D04E68122E13D144
:10078000DF0802F1200656F827005E07F70E0F2655
:10079000BE40B0435F07FF0E0E69BE403043DF0826
:1007A00002F1200646F8270010685F000326BE40CD
:1007B000B0430E7906F003065F00BE403043106080
:1007C0004E6806F08056B6F1805F7BD100BF424E86
:1007D000366846F00206404F3E603E46366806F0F8
:1007E0000206009600BF00BF3C4E9F0856F8270047
:1007F0009E07370F0F26BE40B043394EB24202D19A
:10080000002629E05EE0374EB24201D1012623E006
:10081000354EB24201D102261EE0344EB24201D121
:10082000032619E0324EB24201D1042614E0314EC3
:10083000B24201D105260FE02F4EB24201D1062669
:100840000AE02E4EB24201D1072605E02C4EB242FC
:1008500001D1092600E00A269F073F0FBE40304322
:100860001E4E9F0846F827002868A0434E6806F4ED
:100870008036B6F5803F00D1204328606868A043E9
:100880004E6806F40036B6F5003F00D1204368609C
:100890004FF0B0463068A0434E6806F48016B6F5B7
:1008A000801F00D120434FF0B04630607068A043F5
:1008B0004E6806F40016B6F5001F00D120434FF035
:1008C000B04670605B1C0E68DE40002E7FF421AFE6
:1008D000F8BD000080000058F44402580804005895
:1008E000000002580004025800080258000C025888
:1008F000001002580014025800180258001C025838
:100900000024025810B5426921EA020302EA0104F8
:1009100043EA0443836110BD0AB1816101E00B0425
:100920008361704701480068704700000800002498
:100930000348006803490978084401490860704782
:10094000080000241000002410B5032000F098F8DF
:1009500001F084FE10490968C1F303210F4A515C7C
:1009600001F01F0120FA01F40B48006800F00F00AD
:100970001146085C00F01F0024FA00F008490860E6
:10098000084804600F2000F00FF808B1012010BDE6
:1009900000F037F80020FAE71844025828690008E8
:1009A000040000240000002470B5044611480078BB
:1009B00008B9012070BD0F4800784FF47A71B1FB7F
:1009C000F0F00D490968B1FBF0F5284602F0DCFFB4
:1009D00008B10120EEE7102C07D200222146501E5C
:1009E00000F010F80548046001E00120E2E7002073
:1009F000E0E7000010000024000000240C000024A8
:100A0000704770472DE9F05F80460D46164604F0AA
:100A1000D5FA074639462A46334601F00700C0F1A9
:100A2000070ABAF1040F02D94FF0040A01E0C0F13D
:100A3000070AD14600F1040ABAF1070F02D24FF0BB
:100A4000000A01E0A0F1030AD4464FF0010A0AFAB5
:100A500009FAAAF1010A0AEA020A0AFA0CFA4FF0A4
:100A6000010B0BFA0CFBABF1010B0BEA030B4AEA8F
:100A70000B042146404604F0A9FABDE8F09F0000AF
:100A800000BF00F00702064B19684FF6FF0319403C
:100A9000044B0B4343EA0221014B196000BF70472E
:100AA0000CED00E00000FA0570B50446154800683A
:100AB000C0F3800048B91348006800F00700A04266
:100AC00001D0012070BD0020FCE70E48006820F036
:100AD000070020430B490860FFF724FF054607E0A5
:100AE000FFF720FF401BB0F57A7F01D90120E9E72D
:100AF000044808380068C0F340300028F0D00020D7
:100B0000E0E700000C48025810B501F081FD0549EE
:100B10000968C1F30211044A515C01F01F01C84089
:100B200010BD0000204402582869000870B5014635
:100B3000844D2D6805F00303824D2D68C5F3051023
:100B4000804D2D1D2D6805F001047E4D0C352D685E
:100B5000C5F3CC0515FB04F501EE105AB8EE411AA9
:100B6000F0EE410A00286FD023B1012B4ED0022BAA
:100B70006BD16BE0734D283D2D68C5F340153DB337
:100B8000704D283D2D68C5F3C1066F4D25FA06F25C
:100B900001EE102AF8EE411A01EE100AB8EE411AE1
:100BA00081EE812A9FED691AC0EE811A654D0835E4
:100BB0002D68C5F3080501EE105AB8EE411A31EE62
:100BC000811AF7EE001A31EE211A22EE010A1CE01A
:100BD00001EE100AB8EE411ADFED5D1A81EE812AAE
:100BE0009FED5A1AC0EE811A564D08352D68C5F38F
:100BF000080501EE105AB8EE411A31EE811AF7EEEF
:100C0000001A31EE211A22EE010A5BE001EE100A11
:100C1000B8EE411ADFED4F1A81EE812A9FED4B1A93
:100C2000C0EE811A474D08352D68C5F3080501EE61
:100C3000105AB8EE411A31EE811AF7EE001A31EE71
:100C4000211A22EE010A3DE077E01DE001EE100AD4
:100C5000B8EE411A9FED402AC2EE011A9FED3B1AF1
:100C600080EE812A374D08352D68C5F3080501EE61
:100C7000105AB8EE411A32EE011AB7EE002A31EEE0
:100C8000021A21EE810A1DE001EE100AB8EE411AA7
:100C9000DFED2F1A81EE812A9FED2C1AC0EE811A0A
:100CA000284D08352D68C5F3080501EE105AB8EE39
:100CB000411A31EE811AF7EE001A31EE211A22EEB6
:100CC000010A00BF00BF1F4D08352D68C5F346253A
:100CD00001EE105AB8EE411AF7EE001A31EE211A61
:100CE000C0EE011ABCEEE11A81ED001A154D08356F
:100CF0002D68C5F3064501EE105AB8EE411AF7EE1D
:100D0000001A31EE211AC0EE011ABCEEE11A81ED93
:100D1000011A0C4D08352D68C5F3066501EE105A11
:100D2000B8EE411AF7EE001A31EE211AC0EE011AA0
:100D3000BCEEE11A81ED021A03E000250D604D6062
:100D40008D6070BD284402580090D003000000461A
:100D50000024744C0024744A20BCBE4B70B501467C
:100D6000844D2D6805F00303824D2D68C5F30530D1
:100D7000804D2D1D2D68C5F300147E4D14352D6852
:100D8000C5F3CC0515FB04F501EE105AB8EE411A77
:100D9000F0EE410A00286FD023B1012B4ED0022B78
:100DA0006BD16BE0734D283D2D68C5F340153DB305
:100DB000704D283D2D68C5F3C1066F4D25FA06F22A
:100DC00001EE102AF8EE411A01EE100AB8EE411AAF
:100DD00081EE812A9FED691AC0EE811A654D1035AA
:100DE0002D68C5F3080501EE105AB8EE411A31EE30
:100DF000811AF7EE001A31EE211A22EE010A1CE0E8
:100E000001EE100AB8EE411ADFED5D1A81EE812A7B
:100E10009FED5A1AC0EE811A564D10352D68C5F354
:100E2000080501EE105AB8EE411A31EE811AF7EEBC
:100E3000001A31EE211A22EE010A5BE001EE100ADF
:100E4000B8EE411ADFED4F1A81EE812A9FED4B1A61
:100E5000C0EE811A474D10352D68C5F3080501EE27
:100E6000105AB8EE411A31EE811AF7EE001A31EE3F
:100E7000211A22EE010A3DE077E01DE001EE100AA2
:100E8000B8EE411A9FED402AC2EE011A9FED3B1ABF
:100E900080EE812A374D10352D68C5F3080501EE27
:100EA000105AB8EE411A32EE011AB7EE002A31EEAE
:100EB000021A21EE810A1DE001EE100AB8EE411A75
:100EC000DFED301A81EE812A9FED2C1AC0EE811AD7
:100ED000284D10352D68C5F3080501EE105AB8EEFF
:100EE000411A31EE811AF7EE001A31EE211A22EE84
:100EF000010A00BF00BF1F4D10352D68C5F3462500
:100F000001EE105AB8EE411AF7EE001A31EE211A2E
:100F1000C0EE011ABCEEE11A81ED001A154D103534
:100F20002D68C5F3064501EE105AB8EE411AF7EEEA
:100F3000001A31EE211AC0EE011ABCEEE11A81ED61
:100F4000011A0C4D10352D68C5F3066501EE105AD7
:100F5000B8EE411AF7EE001A31EE211AC0EE011A6E
:100F6000BCEEE11A81ED021A03E000250D604D6030
:100F70008D6070BD284402580090D00300000046E8
:100F80000024744C0024744A20BCBE4B70B501464A
:100F9000844D2D6805F00303824D2D68C5F305507F
:100FA000804D2D1D2D68C5F300247E4D1C352D6808
:100FB000C5F3CC0515FB04F501EE105AB8EE411A45
:100FC000F0EE410A00286FD023B1012B4ED0022B46
:100FD0006BD16BE0734D283D2D68C5F340153DB3D3
:100FE000704D283D2D68C5F3C1066F4D25FA06F2F8
:100FF00001EE102AF8EE411A01EE100AB8EE411A7D
:1010000081EE812A9FED691AC0EE811A654D18356F
:101010002D68C5F3080501EE105AB8EE411A31EEFD
:10102000811AF7EE001A31EE211A22EE010A1CE0B5
:1010300001EE100AB8EE411ADFED5D1A81EE812A49
:101040009FED5A1AC0EE811A564D18352D68C5F31A
:10105000080501EE105AB8EE411A31EE811AF7EE8A
:10106000001A31EE211A22EE010A5BE001EE100AAD
:10107000B8EE411ADFED4F1A81EE812A9FED4B1A2F
:10108000C0EE811A474D18352D68C5F3080501EEED
:10109000105AB8EE411A31EE811AF7EE001A31EE0D
:1010A000211A22EE010A3DE077E01DE001EE100A70
:1010B000B8EE411A9FED402AC2EE011A9FED3B1A8D
:1010C00080EE812A374D18352D68C5F3080501EEED
:1010D000105AB8EE411A32EE011AB7EE002A31EE7C
:1010E000021A21EE810A1DE001EE100AB8EE411A43
:1010F000DFED301A81EE812A9FED2C1AC0EE811AA5
:10110000284D18352D68C5F3080501EE105AB8EEC4
:10111000411A31EE811AF7EE001A31EE211A22EE51
:10112000010A00BF00BF1F4D18352D68C5F34625C5
:1011300001EE105AB8EE411AF7EE001A31EE211AFC
:10114000C0EE011ABCEEE11A81ED001A154D1835FA
:101150002D68C5F3064501EE105AB8EE411AF7EEB8
:10116000001A31EE211AC0EE011ABCEEE11A81ED2F
:10117000011A0C4D18352D68C5F3066501EE105A9D
:10118000B8EE411AF7EE001A31EE211AC0EE011A3C
:10119000BCEEE11A81ED021A03E000250D604D60FE
:1011A0008D6070BD284402580090D00300000046B6
:1011B0000024744C0024744A20BCBE4B2DE9F0413D
:1011C0008AB00746B7F5807F70D1FD48006800F00F
:1011D0000708B8F1050F65D2DFE808F003122162B5
:1011E0003000F7485038006800F00070B0F1007F20
:1011F00004D107A8FFF79AFC089C00E0002453E004
:10120000EF485038006800F00060B0F1006F04D182
:1012100004A8FFF7A3FD049C00E0002444E0E84894
:101220005038006800F00050B0F1005F04D101A810
:10123000FFF7ACFE019C00E0002435E0E048001F11
:10124000006800F04055DE485038006800F00400A7
:10125000042809D145B9DA4850380068C0F3C10103
:10126000D84820FA01F41AE0D5485038006800F454
:101270008070B0F5807F04D1B5F1805F01D1D24C90
:101280000DE0CF485038006800F40030B0F5003F62
:1012900004D1B5F1005F01D1CC4C00E0002403E0A3
:1012A000CB4C01E0002400BFACE2FFE7B7F5806F54
:1012B0007BD1C3480830006800F46008B8F5800F9F
:1012C0002CD006DCB8F1000F0AD0B8F5001F69D1A8
:1012D00015E0B8F5C00F63D0B8F5000F62D12CE06F
:1012E000B7485038006800F00070B0F1007F04D1BA
:1012F00007A8FFF71BFC089C00E0002454E0B0485E
:101300005038006800F00060B0F1006F04D104A80C
:10131000FFF724FD049C00E0002445E0A848503875
:10132000006800F00050B0F1005F04D101A8FFF7A1
:101330002DFE019C00E0002436E0A148001F00685B
:1013400000F040559E485038006800F00400042822
:1013500009D145B99A4850380068C0F3C10199488D
:1013600020FA01F41BE096485038006800F48070C1
:10137000B0F5807F04D1B5F1805F01D1924C0EE0D1
:101380008F485038006800F40030B0F5003F05D1B8
:10139000B5F1005F02D18D4C01E006E0002403E0CE
:1013A0008B4C01E0002400BF2CE2B7F5006F7BD12D
:1013B00083480830006800F0E068B8F1007F2CD066
:1013C00006DCB8F1000F0AD0B8F1807F69D115E0D2
:1013D000B8F1407F63D0B8F1806F62D12CE07848DB
:1013E0005038006800F00070B0F1007F04D107A809
:1013F000FFF79CFB089C00E0002454E07048503844
:10140000006800F00060B0F1006F04D104A8FFF79D
:10141000A5FC049C00E0002445E0694850380068C1
:1014200000F00050B0F1005F04D101A8FFF7AEFD5D
:10143000019C00E0002436E06148001F006800F0D5
:1014400040555F485038006800F00400042809D176
:1014500045B95B4850380068C0F3C101594820FACB
:1014600001F41BE056485038006800F48070B0F575
:10147000807F04D1B5F1805F01D1534C0EE050481C
:101480005038006800F40030B0F5003F05D1B5F1E8
:10149000005F02D14D4C01E006E0002403E04C4C1B
:1014A00001E0002400BFADE1B7F5805F78D144488A
:1014B000006800F4E046B6F5005F2AD004DC56B1BF
:1014C000B6F5805F69D115E0B6F5405F63D0B6F53B
:1014D000804F62D12CE03A485038006800F000702C
:1014E000B0F1007F04D107A8FFF720FB089C00E0C3
:1014F000002454E032485038006800F00060B0F139
:10150000006F04D104A8FFF729FC049C00E000242C
:1015100045E02B485038006800F00050B0F1005F03
:1015200004D101A8FFF732FD019C00E0002436E061
:101530002348001F006800F04055214850380068DB
:1015400000F00400042809D145B91D48503800684E
:10155000C0F3C1011B4820FA01F41BE018485038C1
:10156000006800F48070B0F5807F04D1B5F1805F31
:1015700001D1154C0EE012485038006800F40030DC
:10158000B0F5003F05D1B5F1005F02D10F4C01E08D
:1015900006E0002403E00E4C01E0002400BF31E12E
:1015A000B7F5002F63D106480830006800F44036D4
:1015B00086B1B6F5803F1BD0B6F5003F54D125E08B
:1015C000504402580090D00300093D0040787D014E
:1015D0000080BB008D48006800F00060B0F1006F33
:1015E00004D104A8FFF7BAFB049C00E000243DE00E
:1015F0008648006800F00050B0F1005F04D101A8F7
:10160000FFF7C4FC039C00E000242FE07F484C302F
:10161000006800F040557D48006800F00400042890
:1016200008D13DB979480068C0F3C101784820FA73
:1016300001F418E07548006800F48070B0F5807F10
:1016400004D1B5F1805F01D1724C0CE06F480068A5
:1016500000F40030B0F5003F04D1B5F1005F01D1D6
:101660006D4C00E0002401E0002400BFCAE0B7F5A3
:10167000803F28D165484C30006800F480361EB1A8
:10168000B6F5803F1CD10DE06048006800F00070A6
:10169000B0F1007F04D107A8FFF748FA089C00E0EA
:1016A00000240FE05948006800F00060B0F1006FBE
:1016B00004D104A8FFF752FB069C00E0002401E0DF
:1016C000002400BF9EE0B7F5804F60D14F485830EE
:1016D000006800F0E046B6F1405F2FD007DC6EB145
:1016E000B6F1805F0ED0B6F1005F4DD118E0B6F1D3
:1016F000804F33D0B6F1A04F46D13AE0FFF704FA5D
:10170000044643E04148006800F00060B0F1006F1B
:1017100004D104A8FFF722FB059C00E0002435E07B
:101720003A48006800F00050B0F1005F04D101A811
:10173000FFF72CFC029C00E0002427E033480068FF
:1017400000F00400042807D130480068C0F3C1014C
:101750002F4820FA01F400E0002417E02B4800682D
:1017600000F48070B0F5807F01D12A4C00E00024A5
:101770000CE02648006800F40030B0F5003F01D1CD
:10178000254C00E0002401E0002400BF3AE0B7F55A
:10179000004F36D11D485030006800F0405636B139
:1017A000B6F1805F0ED0B6F1005F27D118E0174880
:1017B000006800F40030B0F5003F01D1164C00E0A5
:1017C00000241DE01148006800F00070B0F1007FB7
:1017D00004D107A8FFF7AAF9089C00E000240FE055
:1017E0000A48006800F00060B0F1006F04D104A85E
:1017F000FFF7B4FA059C00E0002401E0002400BFDC
:1018000000E0002420460AB0BDE8F0810044025800
:101810000090D00300093D0040787D012DE9F041A2
:1018200004460025A846206800F00060B0F1006F73
:1018300030D1206E48B1B0F5801F0DD0B0F5001F3B
:1018400010D0B0F5401F15D113E0F748006840F400
:101850000030F54908600FE00221201D02F0EAF88F
:10186000054609E0022104F1240002F095F905463D
:1018700002E001E0012500BF00BF55B9EA4824306D
:10188000006820F44010216E0843E74924310860C5
:1018900000E0A846208800F48070B0F5807F2DD14C
:1018A000606D05281AD2DFE800F0030A101718004F
:1018B000DD48006840F40030DB49086010E000219A
:1018C000201D02F0B7F805460AE0002104F12400CB
:1018D00002F062F9054603E002E001E0012500BFE5
:1018E00000BF55B9D0482430006820F00700616D72
:1018F0000843CD492431086000E0A846208800F460
:101900008060B0F5806F3CD1D4F8A000B0F5C00F76
:1019100023D007DC68B1B0F5001F11D0B0F5800FFF
:101920001ED113E0B0F5000F18D0B0F5200F17D17D
:1019300015E0BD48006840F40030BB49086011E084
:101940000021201D02F076F805460BE0002104F18D
:10195000240002F021F9054604E003E002E001E082
:10196000012500BF00BF5DB9AF482C30006820F4EE
:101970006000D4F8A0100843AB492C31086000E0A7
:10198000A846208800F40060B0F5006F3CD1D4F880
:10199000A400B0F1407F23D007DC68B1B0F1807FB4
:1019A00011D0B0F1007F1ED113E0B0F1806F18D0DC
:1019B000B0F1A06F17D115E09B48006840F40030EB
:1019C0009949086011E00021201D02F033F8054616
:1019D0000BE0002104F1240002F0DEF8054604E0EB
:1019E00003E002E001E0012500BF00BF5DB98E48C1
:1019F0002C30006820F0E060D4F8A41008438A4935
:101A00002C31086000E0A846206800F00070B0F1BA
:101A1000007F27D1A06CA0B1102804D0202809D0C5
:101A200030280FD10CE08048006840F400307E4937
:101A3000086009E00221201D01F0FCFF054603E0DB
:101A400002E001E0012500BF00BF55B97648203013
:101A5000006820F03000A16C084373492031086011
:101A600000E0A846208800F48050B0F5805F36D1B1
:101A7000A06DB0F5005F19D004DC50B1B0F5805F07
:101A80001DD10DE0B0F5405F17D0B0F5804F16D1F5
:101A900014E06548006840F400306349086010E0D5
:101AA0000021201D01F0C6FF05460AE0002104F1D7
:101AB000240002F071F8054603E002E001E0012590
:101AC00000BF00BF55B958482430006820F4E040FA
:101AD000A16D084354492431086000E0A8462088DD
:101AE00000F40050B0F5005F34D1E06DB0F5403F38
:101AF0001DD007DC68B1B0F5803F0BD0B0F5003FDA
:101B000018D10DE0B0F5802F12D0B0F5A02F11D173
:101B10000FE011E00121201D01F08CFF05460BE0D4
:101B2000012104F1240002F037F8054604E003E047
:101B300002E001E0012500BF00BF55B93A4824305A
:101B4000006820F4E020E16D084337492431086043
:101B500000E0A846208800F48040B0F5804F36D1E0
:101B6000D4F8A800B0F1405F1DD007DC68B1B0F137
:101B7000805F0BD0B0F1005F18D10DE0B0F1804F65
:101B800012D0B0F1A04F11D10FE011E00121201DC2
:101B900001F050FF05460BE0012104F1240001F0A3
:101BA000FBFF054604E003E002E001E0012500BF81
:101BB00000BF5DB91C482C30006820F0E040D4F82C
:101BC000A810084318492C31086000E0A846208876
:101BD00000F40040B0F5004F29D1A06E98B1B0F1EB
:101BE000805F03D0B0F1005F0ED106E00E480068C0
:101BF00040F400300C49086008E00121201D01F08C
:101C000019FF054602E001E0012500BF00BF6DB9E4
:101C100005482430006820F04050A16E0843024976
:101C20002431086003E000002C440258A8462068D4
:101C300000F08070B0F1807F27D1606CA0B10128E6
:101C400004D0022809D003280FD10CE0FE48006818
:101C500040F40030FC49086009E00221201D01F039
:101C6000E9FE054603E002E001E0012500BF00BFF8
:101C700055B9F5482030006820F00300616C084336
:101C8000F1492031086000E0A846206800F4800097
:101C9000B0F5800F7DD1ED48006840F48070EB49CD
:101CA0000860FEF73FFE064606E0FEF73BFE801B9F
:101CB000642801D9032505E0E448006800F4807039
:101CC0000028F2D000BF85BBDF484430006800F434
:101CD0004070B4F8AC1001F44071884213D0DA4877
:101CE0004430006820F44077D7484430006840F41E
:101CF0008030D549443108600846006820F48030BF
:101D0000086008460760D4F8AC00B0F5807F15D1B4
:101D1000FEF708FE064609E0FEF704FE801B41F2CE
:101D20008831884202D9032507E035E0C6484430AF
:101D30000068C0F340000028EED000BF55BB00BFD4
:101D4000B4F8AC0000F44070B0F5407F0ED1BE484E
:101D50001C38006820F47C51BD4AD4F8AC00104017
:101D600041EA1010B8491C39086007E0B6481C3831
:101D7000006820F47C50B4491C390860B2484430F3
:101D80000068B4F8AC10C1F30B010843AE4944310C
:101D9000086002E0A84600E0A846207800F00100B4
:101DA00068B3606F182819D005DC48B1082808D03E
:101DB000102816D10BE0202811D0282811D10FE0CF
:101DC00011E00121201D01F035FE05460BE0012147
:101DD00004F1240001F0E0FE054604E003E002E027
:101DE00001E0012500BF00BF55B9974828300068C1
:101DF00020F03800616F084393492831086000E003
:101E0000A846207800F00200022828D1206F06287A
:101E100015D2DFE800F003040A11121311E00121CA
:101E2000201D01F007FE05460BE0012104F124000E
:101E300001F0B2FE054604E003E002E001E0012506
:101E400000BF00BF55B980482830006820F0070067
:101E5000216F08437C492831086000E0A8462078BB
:101E600000F0040004282AD1D4F88C00062815D2EA
:101E7000DFE800F003040A11121311E00121201D14
:101E800001F0D8FD05460BE0012104F1240001F02A
:101E900083FE054604E003E002E001E0012500BF07
:101EA00000BF5DB968482C30006820F00700D4F806
:101EB0008C10084364492C31086000E0A846207863
:101EC00000F02000202836D1D4F88800B0F1405F1F
:101ED0001DD007DC68B1B0F1805F0BD0B0F1005FBE
:101EE00018D10DE0B0F1804F12D0B0F1A04F11D158
:101EF0000FE011E00021201D01F09CFD05460BE0E4
:101F0000022104F1240001F047FE054604E003E04D
:101F100002E001E0012500BF00BF5DB94A4828305A
:101F2000006820F0E040D4F8881008434649283182
:101F3000086000E0A846207800F04000402836D134
:101F4000D4F89400B0F5406F1DD007DC68B1B0F54F
:101F5000806F0BD0B0F5006F18D10DE0B0F5805F49
:101F600012D0B0F5A05F11D10FE011E00021201DCB
:101F700001F060FD05460BE0022104F1240001F0B0
:101F80000BFE054604E003E002E001E0012500BF8E
:101F900000BF5DB92C482C30006820F4E050D4F824
:101FA0009410084328492C31086000E0A8462078A6
:101FB00000F08000802836D1D4F89800B0F5C04FEA
:101FC0001DD007DC68B1B0F5005F0BD0B0F5804FD5
:101FD00018D10DE0B0F5004F12D0B0F5204F11D15F
:101FE0000FE011E00021201D01F024FD05460BE06B
:101FF000022104F1240001F0CFFD054604E003E0D6
:1020000002E001E0012500BF00BF5DB90E482C30A1
:10201000006820F46040D4F8981008430A492C3135
:10202000086000E0A846207800F0080008281BD1CE
:10203000E06FB0F5805F0FD1022104F1240001F0C0
:10204000ABFD48B106E000002C440258004802589D
:10205000FFFCFF0F4FF00108A448006820F4405037
:10206000E16F0843A1490860207800F010001028B3
:1020700017D1D4F89000B0F5807F07D1022104F188
:10208000240001F089FD08B14FF001089748001DB8
:10209000006820F44070D4F8901008439349091D5B
:1020A0000860206800F40020B0F5002F28D1D4F893
:1020B0009C0030B1B0F5803F09D0B0F5003F0ED1A3
:1020C0000CE00021201D01F0B5FC054609E00221CD
:1020D00004F1240001F060FD054602E001E0012565
:1020E00000BF00BF5DB98148001D006820F440308A
:1020F000D4F89C1008437D49091D086000E0A846FB
:10210000206800F48020B0F5802F2BD1D4F8800017
:10211000B0F5801F06D0B0F5001F0CD0B0F5401F01
:1021200011D10FE071482838006840F400306F4941
:102130002839086009E0012104F1240001F02CFD98
:10214000054602E001E0012500BF00BF4DB9674828
:10215000006820F44010D4F88010084363490860F8
:1021600000E0A846206800F48030B0F5803F24D11C
:10217000E06C18B1B0F5803F0FD108E05B4828381B
:10218000006840F4003059492839086007E002210E
:10219000201D01F04FFC054601E0012500BF00BFF6
:1021A00055B952480838006820F48030E16C084383
:1021B0004E490839086000E0A846206800F0005049
:1021C000B0F1005F07D1022104F1240001F0E4FC2A
:1021D00008B14FF00108206800F40030B0F5003F6E
:1021E00025D1A06FA0B1B0F5807F06D0B0F5007FFB
:1021F0000CD0B0F5407F0CD109E03C48283800688D
:1022000040F4003039492839086004E003E002E076
:1022100001E0012500BF00BF45B93448006820F443
:102220004070A16F08433149086000E0A84620686B
:1022300000F48010B0F5801F09D12C48001F006801
:1022400020F00040E16E08432849091F086020681B
:1022500000F40010B0F5001F09D12448001F0068E9
:1022600020F08070616E08432049091F08602068D3
:1022700000F08040B0F1804F11D100BF1B484438BE
:10228000006820F400401949443908600846006895
:10229000D4F8B010084315494439086000BF2068DD
:1022A00000F00040B0F1004F09D110480838006834
:1022B00020F04050216D08430C490839086020681F
:1022C00000F40000B0F5000F08D10848006820F4C1
:1022D0004000D4F88410084304490860B8F1000FA6
:1022E00002D10020BDE8F0810120FBE754440258F0
:1022F0002DE9F04104460D4614B90120BDE8F081F6
:10230000BD48006800F00F00A8420ED2BA4800682D
:1023100020F00F002843B84908600846006800F024
:102320000F00A84201D00120E8E7207800F0040067
:1023300004280ED1B1492069096801F07001884272
:1023400007D9AE48006820F0700021690843AB4906
:102350000860207800F00800082811D1A749091D5D
:102360006069096801F07001884209D9A348001D1D
:10237000006820F0700061690843A049091D0860E9
:10238000207800F01000102811D19C49091DA06987
:10239000096801F4E061884209D99848001D006885
:1023A00020F4E060A16908439449091D0860207881
:1023B00000F02000202811D190490831E069096817
:1023C00001F07001884209D98C480830006820F07B
:1023D0007000E1690843894908310860207800F0FD
:1023E000020002280ED18549E068096801F00F015A
:1023F000884207D98148006820F00F00E16808434F
:102400007E490860207800F00100002850D07B4809
:10241000006820F47060A16808437849086060682B
:10242000022807D1754818380068C0F34040F8B951
:10243000012063E76068032807D1704818380068F6
:10244000C0F34060A0B9012058E76068012807D1B7
:102450006A4818380068C0F3002048B901204DE7E9
:10246000664818380068C0F3800008B9012045E7C5
:1024700062480838006820F00700616808435F4937
:1024800008390860FEF74EFA064608E0FEF74AFAF9
:10249000801B41F28831884201D903202EE757483A
:1024A0000838006800F038006168B0EBC10FEDD16A
:1024B000207800F0020002280ED15049E068096837
:1024C00001F00F01884207D24C48006820F00F004D
:1024D000E1680843494908604748006800F00F0078
:1024E000A8420ED94448006820F00F002843424912
:1024F00008600846006800F00F00A84201D00120E3
:10250000FCE6207800F0040004280ED13B49206945
:10251000096801F07001884207D23848006820F04D
:1025200070002169084335490860207800F00800F0
:10253000082811D13149091D6069096801F070014D
:10254000884209D22D48001D006820F070006169A2
:1025500008432A49091D0860207800F0100010285F
:1025600011D12649091DA069096801F4E06188427A
:1025700009D22248001D006820F4E060A1690843E8
:102580001E49091D0860207800F02000202811D184
:102590001A490831E069096801F07001884209D2DE
:1025A00016480830006820F07000E16908431349BC
:1025B0000831086000F052F810490968C1F303219E
:1025C0000F4A515C01F01F0120FA01F70B48006827
:1025D00000F00F001146085C00F01F0027FA00F021
:1025E000084908600848076008480068FEF7DCF9F9
:1025F0008046404682E600000020005218440258FF
:102600002869000804000024000000240C000024B5
:1026100010B500F023F80D490968C1F303210C4AF5
:10262000515C01F01F0120FA01F40848006800F035
:102630000F001146085C00F01F0024FA00F0054965
:102640000860054804600846006810BD1844025838
:10265000286900080400002400000024F0B5824E20
:10266000366806F0380636B1082E15D0102E15D073
:10267000182E7DD114E07C4E103E3668C6F340160D
:1026800046B1794E103E3668C6F3C107774E26FA3A
:1026900007F000E07548E5E07548E3E07548E1E0E3
:1026A000714E1836366806F003046F4E18363668D9
:1026B000C6F305116C4E1C36366806F001056A4EED
:1026C00024363668C6F3CC0616FB05F601EE106A12
:1026D000B8EE410A002971D024B1012C50D0022C4F
:1026E0006DD16DE0604E103E3668C6F340163EB3C5
:1026F0005D4E103E3668C6F3C1075C4E26FA07F3FE
:1027000001EE103AF8EE411A01EE101AB8EE411A35
:1027100081EE812A9FED581AC0EE011A524E2036E2
:102720003668C6F3080601EE106AB8EE411A31EEBB
:10273000811AF7EE001A31EE211A62EE010A1EE04C
:1027400001EE101AB8EE411ADFED4C1A81EE812A23
:102750009FED491AC0EE011A434E20363668C6F383
:10276000080601EE106AB8EE411A31EE811A00E057
:1027700076E0F7EE001A31EE211A62EE010A5BE014
:1027800001EE101AB8EE411A9FED3D2AC2EE011A71
:102790009FED391A80EE012A334E20363668C6F393
:1027A000080601EE106AB8EE411A32EE011AB7EED1
:1027B000002A31EE021A61EE810A3DE04EE01DE092
:1027C00001EE101AB8EE411ADFED2E1A81EE812AC1
:1027D0009FED291AC0EE011A234E20363668C6F343
:1027E000080601EE106AB8EE411A31EE811AF7EED2
:1027F000001A31EE211A62EE010A1DE001EE101AF4
:10280000B8EE411A9FED1E2AC2EE011A9FED1A1A68
:1028100080EE012A144E20363668C6F3080601EE13
:10282000106AB8EE411A32EE011AB7EE002A31EE04
:10283000021A61EE810A00BF00BF0B4E20363668D7
:10284000C6F34626721C01EE102AB8EE411AC0EEFD
:10285000811ABCEEE11A11EE100A00E0002001E03E
:10286000034800BF00BFF0BD104402580090D003E1
:1028700000093D0040787D01000000460024744CB2
:102880000024744A20BCBE4B2DE9F047044614B91D
:102890000120BDE8F087207800F00100002870D00A
:1028A000F848006800F03808F6481830D0F8009072
:1028B000B8F1100F06D0B8F1180F0FD109F00300CE
:1028C00002280BD1EF4810380068C0F340400028C0
:1028D0006AD06068002867D10120DAE700BF60682D
:1028E000B0F5803F08D1E7481038006840F48030E8
:1028F000E449103908602EE0606868B9E148103892
:10290000006820F48030DF4910390860084600680C
:1029100020F4802008601EE06068B0F5A02F0DD183
:10292000D8481038006840F48020D6491039086033
:102930000846006840F4803008600CE0D148103848
:10294000006820F48030CF491039086008460068DC
:1029500020F48020086000BF606898B1FDF7E2FFB6
:10296000054606E0FDF7DEFF401B642801D9032081
:102970008FE7C44810380068C0F340400028F1D009
:1029800012E012E0FDF7CEFF054606E0FDF7CAFFB4
:10299000401B642801D903207BE7BA48103800683F
:1029A000C0F340400028F1D100BF207800F00200C1
:1029B00002286BD1B348006800F03808B1481830DD
:1029C000D0F80090B8F1000F05D0B8F1180F18D169
:1029D00009F00300A8B9AB4810380068C0F38000C4
:1029E00018B1E06808B9012053E7A6480C38006820
:1029F00020F0FE40217C40EA0160A2490C390860C9
:102A000043E0E06838B39F481038006820F01900B0
:102A1000E16808439B4910390860FDF783FF0546CC
:102A200006E0FDF77FFF401B022801D9032030E7B5
:102A3000944810380068C0F380000028F1D0914815
:102A40000C38006820F0FE40217C40EA01608D498E
:102A50000C39086019E08B481038006820F001003C
:102A6000884910390860FDF75DFF054606E0FDF76F
:102A700059FF401B022801D903200AE7814810387A
:102A80000068C0F380000028F1D100BF207800F07A
:102A9000100010286FD17B48006800F03808794892
:102AA0001830D0F80090B8F1080F06D0B8F1180F20
:102AB0001CD109F00300012818D1724810380068B1
:102AC000C0F3002020B1E069802801D00120E0E6B9
:102AD00000BF6C48001F006820F07C5094F8201064
:102AE00040EA01606749091F086043E0E06938B3C4
:102AF00064481038006840F080006249103908606E
:102B0000FDF710FF054606E0FDF70CFF401B02280D
:102B100001D90320BDE65B4810380068C0F30020EF
:102B20000028F1D000BF5748001F006820F07C50FB
:102B300094F8201040EA01605249091F086019E02A
:102B400050481038006820F080004E491039086065
:102B5000FDF7E8FE054606E0FDF7E4FE401B02280F
:102B600001D9032095E6474810380068C0F30020DB
:102B70000028F1D100BF207800F00800082836D1E5
:102B80006069D0B13F486430006840F001003D49C1
:102B900064310860FDF7C6FE054606E0FDF7C2FE9B
:102BA000401B022801D9032073E6364864300068D0
:102BB000C0F340000028F1D019E0324864300068CA
:102BC00020F001002F4964310860FDF7ABFE054697
:102BD00006E0FDF7A7FE401B022801D9032058E6B6
:102BE000284864300068C0F340000028F1D1207804
:102BF00000F02000202836D1A069D0B1214810383B
:102C0000006840F480501F4910390860FDF78AFEC3
:102C1000054606E0FDF786FE401B022801D9032089
:102C200037E6184810380068C0F340300028F1D06B
:102C300019E014481038006820F480501149103908
:102C40000860FDF76FFE054606E0FDF76BFE401BD2
:102C5000022801D903201CE60A4810380068C0F396
:102C600040300028F1D1207800F00400042877D10A
:102C70000548006840F4807003490860FDF752FE83
:102C800005460AE01044025800480258FDF74AFE83
:102C9000401B642801D90320FBE5AB48006800F421
:102CA00080700028F2D000BFA068012806D1A74894
:102CB000006840F00100A549086027E0A06858B905
:102CC000A248006820F00100A0490860084600689A
:102CD00020F00400086019E0A06805280BD19B488B
:102CE000006840F00400994908600846006840F018
:102CF000010008600AE09548006820F0010093494F
:102D000008600846006820F00400086000BFA06862
:102D100098B1FDF707FE054608E0FDF703FE401BEE
:102D200041F28831884201D90320B2E58748006822
:102D3000C0F340000028F0D012E0FDF7F3FD054697
:102D400008E0FDF7EFFD401B41F28831884201D9D0
:102D500003209EE57D480068C0F340000028F0D1C4
:102D6000606A00287ED079486038006800F038003A
:102D7000182878D0606A022876D1744870380068C4
:102D800020F08070714970390860FDF7CBFD054671
:102D900006E0FDF7C7FD401B022801D9032078E5B6
:102DA0006A4870380068C0F340600028F1D100BF65
:102DB000D4E90A1041EA001064494839096840F230
:102DC000F33291430843614948390860208E401E20
:102DD000C0F30800616B491E4FF47E4202EA4121B4
:102DE0000843218F491ED20102EA014108433C21D8
:102DF000095D491E120202EA016108435349403944
:102E0000086000BF081F006820F00100091F08606B
:102E10004E483C3800684FF6F8718843A16C40EA90
:102E2000C1004A493C39086048484438006820F0ED
:102E30000C00216C08434549443908600846006885
:102E400020F00200616C084340494439086008469C
:102E5000006840F4803008600846006840F40030A4
:102E6000086002E06EE040E024E00846006840F4BC
:102E7000802008600846006840F001000860334880
:102E80007038006840F08070304970390860FDF794
:102E900049FD054606E0FDF745FD401B022801D926
:102EA0000320F6E4294870380068C0F34060002829
:102EB000F1D047E025487038006820F08070234941
:102EC00070390860FDF72EFD054606E0FDF72AFD86
:102ED000401B022801D90320DBE41C48703800683D
:102EE000C0F340600028F1D12CE01848483807684A
:102EF000164840380668606A012821D007F00301AF
:102F0000A06A81421CD1C7F30511E06A884217D13B
:102F1000C6F30801206B401E814211D1606B401E38
:102F2000C6F3462188420BD1A06B401EC6F3064172
:102F3000884205D1E06B401EC6F30661884201D08D
:102F40000120A6E40020A4E400480258704402587E
:102F500070477047704770472DE9F04188B00446CC
:102F60000F464FF00008032084F83000A06B0328C0
:102F700020D0B7F5004F04D1606B40F08050606303
:102F80001CE0B7F5804F07D1204601F079FE0646D8
:102F9000606B3043606311E03FB9204601F03CFEB6
:102FA0000646606B3043606308E0606B40F0006091
:102FB000606303E0606B40F080506063606B28B139
:102FC0004248216888634FF0010868E04FF4803080
:102FD000FEF7F4F80546002D5BD060680390A0680A
:102FE00004900597206906903948B5FBF0F16069B7
:102FF000814202D86069079041E0A06DB0F5007F82
:1030000002D1606907903AE0A06DB0F5807F1BD1D6
:10301000606950B92E48854204D94000B5FBF0F0F4
:1030200007902CE06069079029E060694000B5FBDB
:10303000F0F02749884204D94800B5FBF0F007902A
:103040001DE0606907901AE0606950B92148854227
:1030500004D94000B5FBF0F0079010E060690790DC
:103060000DE060694000B5FBF0F01A49884204D9D0
:103070004800B5FBF0F0079001E060690790DDE9DA
:103080000601CDE90001206803A90EC901F038FB53
:1030900005E0606B40F0006060634FF001084FF4A2
:1030A0000071206800F045FF06463EB107482168E0
:1030B0008863606B304360634FF00108012084F83F
:1030C0003000404608B0BDE8F0810000FF0FE01F6F
:1030D00080F0FA0240787D017047000010B502468A
:1030E000D06D800F0870D06DC0F383604870D06DD4
:1030F000C0F301608870D06D000CC870B2F85C003D
:10310000000A087192F85C004871106E000DC880CA
:10311000106EC0F3034008726020805AC0F3C030C4
:1031200048726020805AC0F3803088726020805AD4
:10313000C0F34030C8726020805AC0F3003008737A
:1031400000204873906B002836D16020805A80059B
:10315000030D506E43EA90700861506EC0F3C26078
:103160000875506EC0F302604875506EC0F342504F
:103170008875506EC0F38240C875506EC0F3C2307F
:1031800008760869401C90640B7E906C03F007037E
:103190009B1C01249C4060439064087A00F00F035C
:1031A00001209840D064D2E912035B0A58431065AD
:1031B0004FF40073536521E0906B012813D1602018
:1031C000805C8006830A506E43EA104008610869FB
:1031D000401C83029364936C13654FF40073D364B3
:1031E000D36C53650AE02E4813689863506B40F027
:1031F00080505063012082F8300010BD6420805A56
:10320000C0F3803001F8190F6420805AC0F3C61053
:1032100048706420805C00F07F008870906EC00F62
:10322000C870906EC0F341700871906EC0F38260F8
:103230004871906EC0F383508871906EC0F3405017
:10324000C87100200872906EC0F300404872682078
:10325000805AC0F3C03088726820805AC0F3803032
:10326000C8726820805AC0F3403008736820805AC2
:10327000C0F3003048736820805AC0F381208873FF
:103280006820805AC0F30120C8736820805CC0F3B6
:10329000460008740120487419390020ADE7000089
:1032A000FF0FE01FF8B50446002000906946204655
:1032B00001F09AFC054615B1606B284360630098E5
:1032C000C0F343263046F8BDF0B591B005460C4634
:1032D000002701A9284601F0EDFB064656B130480B
:1032E00029688863686B30436863012085F8300083
:1032F000012743E00198C0F3811020700198C0F3CA
:1033000040106070019800F47F00000A019940EAC3
:103310001160608002980006029901F47F4140EA42
:103320000120029901F47F0140EA1120029940EA4C
:1033300011606060039820720398000A607203981D
:10334000C0F30350A0720498C0B2039901F07F410A
:1033500040EA1140A0810498C0F38520A07304982E
:10336000C0F30120E0730498C0F3031020740498A4
:1033700000F00F0060740598000EA0744FF4007107
:10338000286800F0D6FD06463EB1054829688863E6
:103390006E63012085F830000127384611B0F0BD7A
:1033A000FF0FE01F70B50446E56A2068406BC0F36C
:1033B000C03030B105F0080018B1204601F058FBCC
:1033C00026E12068406BC0F30020002876D04FF43F
:1033D0008070216888632068C06B4CF23A11884382
:1033E0002168C8632068C06B20F080502168C863E2
:1033F0002068C06820F040002168C86005F008001F
:1034000030B305F0020010B905F0200050B120687B
:1034100000F0F8FE06462EB1606B30436063204634
:10342000FFF75AFE7B4821688863012084F830004A
:103430000020E06205F0010010B905F0020018B1AB
:10344000204600F01FFAE3E0204600F021FADFE01A
:1034500005F080000028B3D0002021688862216830
:10346000C8622168086505F0020010B905F0200067
:1034700050B1206800F0C6FE06462EB1606B3043A6
:1034800060632046FFF728FE012084F8300000200A
:10349000E06205F0100010B905F0200010B12046E0
:1034A00000F0F6F905F0010018B905F00200002857
:1034B00086D0204600F0E6F9AAE0FFE72068406BDE
:1034C000C0F3803030B105F0080018B1204601F09B
:1034D0000BFC9DE02068406B00F03A0008B1012031
:1034E00000E00020002870D02068406BC0F340004E
:1034F00018B1606B40F0020060632068406BC0F35D
:10350000C00018B1606B40F0080060632068406B39
:10351000C0F3401018B1606B40F020006063206879
:10352000406BC0F3001018B1606B40F01000606396
:103530003848216888632068C06B20F49D7021683A
:10354000C8632068C06820F040002168C860206817
:10355000C06A40F400502168C8622068C06840F02A
:1035600080002168C860206800F04CFE616B084351
:1035700060632068C06820F080002168C8604FF454
:1035800000602168886305F0080040B1012084F8DC
:1035900030000020E0622046FFF79EFD38E005F095
:1035A000800030B3606B20B32068C06B20F0805087
:1035B0002168C863002021680865012084F8300074
:1035C0002046FFF789FD23E0FFE72068406BC0F34A
:1035D000007070B14FF08050216888632068006DE2
:1035E00000F0040050B905F0200018B12046FFF7A4
:1035F000B2FC0DE02046FFF7ACFC09E005F020002E
:1036000018B12046FFF7A6FC02E02046FFF7A0FC19
:1036100070BD00003A0F0018F0B585B0044614B92B
:10362000012005B0F0BD94F8300020B900202076CC
:10363000204600F0AFF8032084F83000204600F068
:1036400045F808B10120ECE769462046FFF73CFE4B
:1036500008B10120E5E79DF810609DF81170A06B9E
:10366000012805D106B91FB14FF40071A16507E02B
:10367000A06B012802D10102A16501E00021A16532
:103680002046E168FFF768FC08B10120C9E7FDF7B3
:1036900049F905460CE0FDF745F9401B401C38B9D7
:1036A0004FF000406063012084F830000320B8E749
:1036B0002046FFF7F7FD0428EDD100206063E062AB
:1036C000012084F830000020ABE70000F0B587B09F
:1036D0000446002002900390049005904FF480303F
:1036E000FDF76CFD06463EB9012084F83000C006A7
:1036F0006063012007B0F0BD2348B6FBF0F00690F0
:10370000DDE90501CDE90001206802A90EC900F03C
:10371000F7FF206801F00EF806984000B6FBF0F6BF
:103720001A48B0FBF6F0471C3846FCF7CDFE2046A1
:1037300001F03CF905463DB1012084F83000606B92
:10374000284360630120D5E7204601F0BBF8054619
:103750003DB1012084F83000606B28436063012094
:10376000C8E74FF40071206800F0E3FB05464DB157
:10377000074821688863606B28436063012084F8F0
:103780003000B7E70020B5E700350C00102101003C
:10379000FF0FE01F704700002DE9F04387B004469B
:1037A0000F4691461D46C8463FB9606B40F0006029
:1037B0006063012007B0BDE8F08394F83000012871
:1037C0005CD10020606308EB0501206D814205D9C2
:1037D000606B40F0007060630120EBE7032084F829
:1037E000300000202168C86267626802A062A06B96
:1037F000012801D04FEA48284FF0FF3001906802BD
:1038000002909020039002200490002005900690E2
:1038100001A9206800F05EFD2068C06840F040000B
:103820002168C86020688765012021680865012D2E
:1038300007D98220E0624146206800F0E3FB06469B
:1038400006E08120E0624146206800F0F8FB064671
:1038500066B10B4821688863606B30436063012068
:1038600084F830000020E0620120A3E72068C06BEC
:1038700040F495702168C86300209BE7022099E717
:10388000FF0FE01F0021014A117070471A00002449
:103890000021014A117070471B0000242DE9F043FC
:1038A00087B004460F4691461D46C8463FB9606B37
:1038B00040F000606063012007B0BDE8F08394F839
:1038C000300001285BD10020606308EB0501206D0A
:1038D000814205D9606B40F0007060630120EBE726
:1038E000032084F8300000202168C862E761680284
:1038F0002062A06B012801D04FEA48284FF0FF302A
:10390000019068020290902003900020049005909E
:10391000069001A9206800F0DDFC2068C06840F036
:1039200040002168C860206887650120216808651B
:10393000012D07D9A020E0624146206800F090FCEC
:10394000064606E09020E0624146206800F0A5FCB3
:10395000064666B10B4821688863606B304360633C
:10396000012084F830000020E0620120A4E72068F4
:10397000C06B40F48D702168C86300209CE7022072
:103980009AE70000FF0FE01F70B504462546681E49
:10399000B0F1807F01D301200FE0681E4FF0E021DD
:1039A00048610F214FF0FF3001F010FB00204FF075
:1039B000E021886107200861002070BD00B587B054
:1039C00000BF0D48006840F001000B490860084640
:1039D000006800F00100019000BF00BF01200390CB
:1039E0000490032005904FF40050029002A9034870
:1039F000FCF78AFE07B000BDE04402580000025800
:103A000010B504460CB1012000E0002002464FF43E
:103A100000510248FCF780FF10BD00000000025872
:103A200010B54FF400510248FCF76CFF10BD0000C8
:103A3000000002582DE9F04104460E460027554883
:103A4000006800F00300032802D10120BDE8F081E6
:103A500050482838006820F080604E4928390860B6
:103A6000FCF760FF054606E0FCF75CFF401B022800
:103A700001D90320EAE7474828380068C0F3C0604E
:103A80000028F1D100BF4348006820F47C30216851
:103A900040EA01303F490860A088401EC0F308009A
:103AA000A168491E4FF47E4202EA41210843A189E0
:103AB000491ED20102EA01410843217C491E12023B
:103AC00002EA0161084333491031086000BF314800
:103AD000001D006820F0C000616908432D49091DE0
:103AE00008600846006820F02000A16908432949C1
:103AF000091D08600846006820F01000086025488D
:103B0000143000684FF6F8718843E16940EAC1005B
:103B10002049143108601F48001D006840F0100063
:103B20001C49091D08602EB90846006840F40020B1
:103B3000086012E0012E08D11648001D006840F40C
:103B400080101449091D086007E01248001D006834
:103B500040F400100F49091D08600E48283800681D
:103B600040F080600B4928390860FCF7DBFE054611
:103B700006E0FCF7D7FE401B022801D9032065E7C9
:103B8000044828380068C0F3C0600028F1D03846E7
:103B90005CE70000284402582DE9F04104460E4637
:103BA00000275548006800F00300032802D10120D7
:103BB000BDE8F08150482838006820F080504E4918
:103BC00028390860FCF7AEFE054606E0FCF7AAFEC1
:103BD000401B022801D90320EAE74748283800683B
:103BE000C0F340700028F1D100BF4348006820F0C6
:103BF0007C70218840EA01503F490860A088401E3F
:103C0000C0F30800A168491E4FF47E4202EA412138
:103C10000843A189491ED20102EA01410843217CDF
:103C2000491E120202EA0161084333491831086053
:103C300000BF3148001D006820F4406061690843FE
:103C40002D49091D08600846006820F40070A1692C
:103C500008432949091D08600846006820F480705F
:103C6000086025481C3000684FF6F8718843E16908
:103C700040EAC10020491C3108601F48001D00684F
:103C800040F480701C49091D08602EB90846006880
:103C900040F48000086012E0012E08D11648001D93
:103CA000006840F400001449091D086007E012484C
:103CB000001D006840F080700F49091D08600E4823
:103CC0002838006840F080500B4928390860FCF71C
:103CD00029FE054606E0FCF725FE401B022801D917
:103CE000032065E7044828380068C0F340700028C6
:103CF000F1D038465CE700002844025810B586B081
:103D0000002400BF3048006840F480302E4908602D
:103D10000846006800F48030009000BF00BF00BF7C
:103D200029480C30006840F0040027490C31086035
:103D30000846006800F00400009000BF00BF00BF0C
:103D40000846006840F0080008600846006800F077
:103D50000800009000BF00BF0320049002200290E2
:103D60000C200590012003904FF47060019001A990
:103D70001648FCF7C9FC002003904FF480500190D6
:103D800001A91248FCF7C0FC012003900420019017
:103D900001A90F48FCF7B8FC312000280DDB00BF5B
:103DA00000BF00F01F02012191404209920002F180
:103DB000E022C2F8001100BF00BF00BF02F0EEFC1D
:103DC0000446204606B010BDD444025800080258EC
:103DD000000C02582DE9F04105460E461746FCF747
:103DE000A1FD00F57A7806E0FCF79CFD404502D382
:103DF0000120BDE8F0811148FFF754FA0428F3D1FF
:103E000001200F4908703B46324629460B48FFF710
:103E1000C3FC04460CB10120EBE7FCF783FD00F581
:103E20007A7805E0FCF77EFD404501D30120E0E70C
:103E3000034800780028F5D100BFDAE744000024E9
:103E40001A0000242DE9F04105460E461746FCF7FE
:103E500069FD00F57A7806E0FCF764FD404502D381
:103E60000120BDE8F0811148FFF71CFA0428F3D1C6
:103E700001200F4908703B46324629460B48FFF7A0
:103E80000DFD04460CB10120EBE7FCF74BFD00F5FE
:103E90007A7805E0FCF746FD404501D30120E0E7D4
:103EA000034800780028F5D100BFDAE74400002479
:103EB0001B00002410B50248FFF774FA10BD000083
:103EC0004400002470B585B005460C4600943720A8
:103ED00001904FF480700290002003904FF48050C6
:103EE00004906946284600F031FC41F288323721BF
:103EF000284600F027FA0646304605B070BD70B57A
:103F000085B005460C460094292001904FF480703E
:103F10000290002003904FF4805004906946284698
:103F200000F014FC284600F019FB0646304605B0A8
:103F300070BD70B585B005460C4600941020019008
:103F400000010290002003904FF4805004906946D5
:103F5000284600F0FBFB41F288321021284600F091
:103F6000F1F90646304605B070BD70B585B005461E
:103F70000C460094062001904FF4807002900020BF
:103F800003904FF4805004906946284600F0DEFB11
:103F900041F288320621284600F0D4F90646304620
:103FA00005B070BD30B585B004460020009001908A
:103FB000029003904FF4805004906946204600F030
:103FC000C5FB204600F09CF90546284605B030BDEB
:103FD00030B585B004464FF4D570009008200190AC
:103FE00040010290002003904FF4805004906946F5
:103FF000204600F0ABFB204600F03CFB054628467F
:1040000005B030BD70B585B005460C460094122051
:1040100001904FF480700290002003904FF4805084
:1040200004906946284600F091FB41F28832122143
:10403000284600F087F90646304605B070BD70B5D9
:1040400085B005460C460094112001904FF4807015
:104050000290002003904FF4805004906946284657
:1040600000F074FB41F288321121284600F06AF911
:104070000646304605B070BD70B585B005460C46A5
:104080000094072001904FF480700290002003906C
:104090004FF4805004906946284600F057FB41F2E7
:1040A00088320721284600F04DF90646304605B013
:1040B00070BD30B585B0044600200090022001900C
:1040C0004FF440700290002003904FF48050049011
:1040D0006946204600F03AFB204600F00BFA054600
:1040E000284605B030BD70B585B005460C46009435
:1040F000092001904FF440700290002003904FF48B
:10410000805004906946284600F020FB284600F0C5
:10411000F1F90646304605B070BD30B585B00446AD
:1041200000200090332001904FF480700290002016
:1041300003904FF4805004906946204600F006FB3F
:1041400041F288323321204600F0FCF8054628462B
:1041500005B030BD70B585B005460C4600940D2005
:1041600001904FF480700290002003904FF4805033
:1041700004906946284600F0E9FA41F288320D21A0
:10418000284600F0DFF80646304605B070BD70B531
:1041900085B005460C4600200090032001904FF4A6
:1041A00080700290002003904FF480500490694684
:1041B000284600F0CBFA22460321284600F0FCF9FD
:1041C0000646304605B070BD30B585B004460020C7
:1041D00000900D2001904FF4807002900020039019
:1041E0004FF4805004906946204600F0AFFA41F247
:1041F00088320D21204600F0A5F80546284605B076
:1042000030BD000030B585B00446002000900C2081
:1042100001904FF480700290002003904FF4805082
:104220000490E06840F08000E060E06820F040002A
:10423000E0606946204600F089FA084A0C212046D1
:1042400000F080F80546E06820F08000E060B5F1FD
:10425000007F00D10025284605B030BD00E1F505FE
:1042600070B585B005460C460094192001904FF4B6
:1042700080700290002003904FF4805004906946B3
:10428000284600F063FA41F288321921284600F0EE
:1042900059F80646304605B070BD70B585B0054684
:1042A0000C460094182001904FF48070029000207A
:1042B00003904FF4805004906946284600F046FA77
:1042C00041F288321821284600F03CF80646304674
:1042D00005B070BD10B502460023086850624868FA
:1042E0009062D1E9020420430C6920434C692043C9
:1042F0000343D06A20F0FF001843D062002010BDB5
:1043000001460E480068C0084FF47A73B0FBF3F022
:1043100041F2883300FB03F200BF101EA2F101023C
:1043200002D14FF000407047486B00F08000002839
:10433000F3D0034888630020F5E700000000002464
:10434000C50020002DE9F04305460F46904666481B
:104350000068C0084FF47A71B0FBF1F000FB08F977
:1043600000BFB9F10000A9F1010903D14FF00040ED
:10437000BDE8F0836E6B5D4830400028F1D006F454
:1043800000500028EDD1686B00F0040010B104204B
:10439000A863EDE7686B00F0010010B10120A8638D
:1043A000E6E752488030A863284600F099F9B84201
:1043B00001D00120DCE70021284600F09AF90446EC
:1043C0004B48204008B90020D2E704F00040B0F18B
:1043D000004F02D14FF00070CAE704F08040B0F106
:1043E000804F01D14020C3E704F00050B0F1005FDE
:1043F00001D18020BCE704F08050B0F1805F02D191
:104400004FF48070B4E704F00060B0F1006F02D1A7
:104410004FF40070ACE704F08060B0F1806F02D11F
:104420004FF48060A4E704F08070B0F1807F02D187
:104430004FF400609CE704F40000B0F5000F02D1D7
:104440004FF4805094E704F48000B0F5800F02D15F
:104450004FF400508CE704F40010B0F5001F02D1B7
:104460004FF4804084E704F48010B0F5801F02D13F
:104470004FF400407CE704F48020B0F5802F02D197
:104480004FF4003074E704F40030B0F5003F02D17F
:104490004FF480206CE704F48030B0F5803F02D107
:1044A0004FF4002064E704F40040B0F5004F02D15F
:1044B0004FF480105CE704F48040B0F5804F02D1E7
:1044C0004FF4001054E704F40050B0F5005F02D13F
:1044D0004FF480004CE704F00800082801D10005E3
:1044E00046E74FF4803043E70000002445002000F9
:1044F00008E0FFFD10B5014616480068C0084FF4FB
:104500007A74B0FBF4F041F2883400FB04F300BF8E
:10451000181EA3F1010302D14FF0004010BD4A6BF9
:1045200002F045000028F3D002F400500028EFD13B
:10453000486B00F0040010B104208863EEE7486B7C
:1045400000F0010010B101208863E7E702488863AA
:104550000020E3E700000024C500200010B501465C
:1045600013480068C0084FF47A74B0FBF4F041F2CD
:10457000883400FB04F300BF181EA3F1010302D12D
:104580004FF0004010BD4A6B02F045000028F3D008
:1045900002F400500028EFD1486B00F0040010B185
:1045A00004208863EEE7034888630020EAE7000000
:1045B00000000024C50020002DE9F04304460F460A
:1045C00090462A480068C0084FF47A71B0FBF1F0B9
:1045D00041F2883100FB01F900BFB9F10000A9F1F7
:1045E000010903D14FF00040BDE8F083666B06F08F
:1045F00045000028F1D006F400500028EDD1606B92
:1046000000F0040010B10420A063EDE7606B00F03F
:10461000010010B10120A063E6E7204600F060F839
:10462000B84201D00120DFE71148A06300212046F5
:1046300000F05FF8054605F4604020B9280CA8F8A2
:1046400000000020D0E705F48040B0F5804F02D193
:104650004FF40050C8E705F40040B0F5004F02D118
:104660004FF48050C0E74FF48030BDE700000024D5
:10467000C500200010B5014618480068C0084FF476
:104680007A74B0FBF4F041F2883400FB04F300BF0D
:10469000181EA3F1010302D14FF0004010BD4A6B78
:1046A00002F045000028F3D002F400500028EFD1BA
:1046B000486B00F0040010B104208863EEE7486BFB
:1046C00000F0010010B101208863E7E7486B00F0BB
:1046D000400008B1402088630020DFE7000000248C
:1046E00001460869C0B270470146086800F003003F
:1046F0007047024602F11400431818687047000022
:104700000FB410B504460021DDE903021043059AF9
:104710001043069A1043079A104301436068044A05
:10472000104008436060002010BC5DF814FB0000DE
:10473000002CC0FF0146086840F00300086000201C
:1047400070470146D1F880007047000010B502465E
:10475000002308689060D1E901042043CC6820431D
:104760000C6920430343D068024C20401843D060BA
:10477000002010BDC0E0FEFF02460868C2F88000BD
:10478000002070472DE9F04389B004460F46FCF73E
:10479000C9F881464FF000080020019002903E4683
:1047A00008212068FFF7C5FB05461DB1284609B062
:1047B000BDE8F0834422125B11042068FFF782FBFE
:1047C00005460DB12846F2E74FF0FF300390082070
:1047D00004903020059002200690002007900120D0
:1047E000089003A92068FFF775FD2068FFF795FC86
:1047F00005460DB12846DAE71AE02068406B00F460
:10480000002060B9B8F1000F09D12068FFF799FFC7
:1048100001902068FFF795FF029008F10108FCF76E
:1048200081F8A0EB0900401C10B94FF00040BEE732
:104830002068406B40F22A5108400028DDD02068F3
:10484000406B00F0080018B1082021688863AEE7CB
:104850002068406B00F0020018B1022021688863D4
:10486000A5E72068406B00F0200018B120202168E7
:1048700088639CE7124821688863029800060299C1
:1048800001F47F4140EA0120029901F47F0140EAEE
:104890001120029940EA11603060361D019800062F
:1048A000019901F47F4140EA0120019901F47F015F
:1048B00040EA1120019940EA11603060002076E75B
:1048C0003A0F001830B58DB00446012001902068E1
:1048D000FFF70AFF18B94FF080600DB030BDA06B34
:1048E00003281AD02068FFF7E4FB05460DB12846DF
:1048F000F3E700212068FFF7FCFEE0660421206852
:10490000FFF7F7FE206708212068FFF7F2FE6067D7
:104910000C212068FFF7EDFEA067A06B032807D0ED
:1049200001A92068FFF733FC05460DB12846D4E7FE
:10493000A06B032820D0BDF8041061644422125BF0
:1049400011042068FFF7CFFB05460DB12846C4E7E8
:1049500000212068FFF7CDFEE06504212068FFF705
:10496000C8FE206608212068FFF7C3FE60660C21A0
:104970002068FFF7BEFEA06604212068FFF7B9FE9D
:10498000010D216402A92046FEF7A8FB10B14FF0EB
:104990008050A2E74422125B11042068FFF76CFBF1
:1049A00005460DB1284698E7002096E7F8B504467D
:1049B00000200090002600272068FFF7F3FA054644
:1049C0000DB12846F8BD2068FFF702FB054645B14A
:1049D0000021E1632068FFF7E5FA05461DB128468E
:1049E000F0E70121E163E06B012808D10021206894
:1049F000FFF768FA054615B14FF08050E2E71DE079
:104A000000212068FFF75EFA05460DB12846D9E778
:104A100016492068FFF773FA054615B14FF080502C
:104A2000D0E700212068FFF764FE0646012080EAF7
:104A3000D67080F001070098401C00904FF6FF717F
:104A40000098884201D2002FDAD04FF6FF7100980B
:104A5000884202D34FF08070B4E706F08040B0F196
:104A6000804F01D10120A0630020ABE7000010C1FE
:104A70002DE9F04105466C6AA86A202817D3002763
:104A80000FE02868FFF75DFE06462670641C300ABA
:104A90002070641C300C2070641C300E2070641C6C
:104AA0007F1C082FEDD36C62A86A2038A862BDE88D
:104AB000F08100002DE9F04387B004460F46FBF774
:104AC00031FF80463E4600212068FFF712FE00F0CD
:104AD0000070B0F1007F04D14FF4006007B0BDE872
:104AE000F08340212068FFF724FA05461DB1606B72
:104AF00060632846F2E74422125B11042068FFF746
:104B0000E1F905461DB1606B60632846E6E74FF0AA
:104B1000FF3001904020029060200390022004901A
:104B2000002005900120069001A92068FFF7D2FB24
:104B30002068FFF749FB05461DB1606B606328469E
:104B4000CCE71AE02068406B00F4004060B14FF001
:104B5000000906E02068FFF7F4FD3060361D09F11A
:104B60000109B9F1080FF5D3FBF7DCFEA0EB080053
:104B7000401C10B94FF00040B0E72068406B00F4D3
:104B800095700028DED02068406B00F0080008B166
:104B90000820A3E72068406B00F0020008B1022063
:104BA0009CE72068406B00F0200008B1202095E7CA
:104BB0000DE02068FFF7C5FD3060361DFBF7B2FE43
:104BC000A0EB0800401C10B94FF0004086E72068B9
:104BD000406B00F480500028EBD1024821688863C4
:104BE00000207BE73A0F001870B504460D4615B952
:104BF0004FF0006070BD4422125B11042068FFF783
:104C0000A9FA06460EB13046F4E700212068FFF706
:104C100070FD28600020EDE77CB504460020009080
:104C2000019000212068FFF764FD00F00070B0F1F2
:104C3000007F02D14FF400607CBD69462046FFF73B
:104C4000A1FD05460DB12846F6E7019800F4803035
:104C500098B14422125B11042068FFF733F905462E
:104C60000DB12846E8E700212068FFF77EF90546E8
:104C70000DB12846E0E70020DEE74FF08060DBE77B
:104C80007CB5044600200090019000212068FFF7C9
:104C900030FD00F00070B0F1007F02D14FF40060F1
:104CA0007CBD69462046FFF76DFD05460DB12846DF
:104CB000F6E7019800F4802098B14422125B1104B9
:104CC0002068FFF7FFF805460DB12846E8E7022106
:104CD0002068FFF74AF905460DB12846E0E70020B5
:104CE000DEE74FF08060DBE7F8B50546EC69286A3F
:104CF000202821D3002619E020780090641C207819
:104D0000009941EA00200090641C2078009941EA53
:104D100000400090641C2078009941EA00600090F7
:104D2000641C69462868FFF727FD761C082EE3D32C
:104D3000EC61286A20382862F8BD10B5FBF7F8FD51
:104D400010BD000000B5C9B04C2136A8FBF7E7FA4A
:104D500020212EA8FBF7E3FAB42101A8FBF7DFFA24
:104D60000220FBF7A1FE00BF002000903E48006833
:104D700020F440403C4908600846006800F4404088
:104D8000009000BF00BF00BF3748006800F400502B
:104D9000B0F5005FF8D1212036904FF48030379085
:104DA00001203C9002203F90022136A8816205211B
:104DB000C1626E210163012141630A218163C163E4
:104DC00008210164002141648164FDF75DFD3F20FD
:104DD0002E9003202F90002030900820319040200A
:104DE00032903390000134904020359004212EA859
:104DF000FDF77EFA1D4801900F200290602103917B
:104E0000022104910591069100210791202108912A
:104E1000002109910A9060210B9102210C910D91C2
:104E20000E9100210F914FF400711091002111910A
:104E3000002028904FF440102190002014902490DE
:104E400008201E9000201D904FF4805020900020DC
:104E500025904FF480501790002018902B9001A8B7
:104E6000FCF7DCFC49B000BD184802581F700D006B
:104E70003148006840F470002F4908602F480068EE
:104E800000F00F00072806D22C48006820F00F0021
:104E9000C01D2A4908602A48006840F001002849DE
:104EA000086000202649103108602548006825491F
:104EB0000840234908602148006800F00F000728D7
:104EC00006D91E48006820F00F00C01D1B4908606D
:104ED00000201B4918310860091D0860091D086081
:104EE00019481749283108601848091D08601848F2
:104EF000091D08600020091D08601548091D08608B
:104F00000020091D08601248091D08600020091DC5
:104F100008600B48006820F48020094908600020E0
:104F200007496031086043F2D2000A49086048032B
:104F3000014980390860704788ED00E00020005288
:104F4000004402587FEDF6EA000202020000FF0171
:104F500080020101004000521449096801F020015B
:104F600019B3124908310968C8B2C02811D11049D3
:104F7000097831B900210F4A117001210C4A1170D2
:104F800013E000210A4A117001210B4A82F8201017
:104F90000BE007490978012907D106490A78097801
:104FA000491C044B19700449885470471C48004040
:104FB0001E0000241D000024F002002402480068A6
:104FC000C0F30220704700000CED00E010B500288F
:104FD00004DB0A07130E054A135406E00A07140EF1
:104FE000034A00F00F031B1FD45410BD00E400E07F
:104FF00018ED00E002E008C8121F08C1002AFAD12B
:1050000070477047002001E001C1121F002AFBD148
:105010007047000070B504460D460020E070401E49
:10502000E0622946204601F0D1F908B1042070BDA4
:1050300004F22E2000F0FCFF4AF65521884201D0F0
:105040000320F4E700BF94F83000E92807D094F873
:105050003000EB2803D094F83000E82811D1032267
:1050600009A104F1660001F035F808B90020DEE777
:10507000052206A104F1820001F02CF808B90020F5
:10508000D5E70220D3E7000046415400464154339F
:1050900032000000024600E0521C107810B1107877
:1050A0008842F9D1107870470246891E5069801EE7
:1050B000884201D8002070475389906A03FB0100A1
:1050C000F9E72DE9F04782468846DAF80040B8F162
:1050D000000F06D1E76817B16069B84215D80127FB
:1050E00013E04146504600F0EDFE0546022D02D287
:1050F0000120BDE8F087681C08B92846F9E7606917
:10510000A84201D92846F4E74746206908B900209B
:10511000EFE70026474518D17E1C6069B04200D8F1
:1051200002263146504600F0CDFE0546012D01D045
:10513000681C08B92846DCE73DB1E568022D03D3B9
:105140006069A84200D92F460026E6B93E4600BF56
:10515000761C6069B04204D80226BE4201D9002004
:10516000C7E73146504600F0ADFE054605B909E0F7
:10517000012D01D0681C08B92846BAE7BE42E7D124
:105180000020B6E700BF4FF0FF323146204601F065
:1051900037F98146B9F1000F08D1B8F1000F05D0F9
:1051A00032464146204601F02BF98146B9F1000F05
:1051B0000DD1E660D4E90410801E814202D8206936
:1051C000401E2061207940F00100207107E0B9F114
:1051D000010F02D14FF0FF3000E0012006463046BB
:1051E00087E700002DE9F35F8946D9F80080009831
:1051F00000F120050B222021284600F08AFF002024
:10520000074606464FF0080B00BF3046761C18F8DC
:105210000040202C00DC50E02F2C01D05C2C0AD167
:1052200000E0761C18F806002F28FAD018F80600BF
:105230005C28F6D041E02E2C01D05F450BD3BBF1AA
:105240000B0F01D02E2C02D00620BDE8FC9F0827B2
:105250004FF00B0BD9E7802C03DB04F07F002149D2
:105260000C5C204600F048F8A8B13046761C18F8CF
:1052700000A0504600F046F818B1ABF10100B8426A
:1052800001D80620E1E738467F1C2C5438467F1CA5
:1052900005F800A010E0214613A0FFF7FBFE08B1BF
:1052A0000620D2E7612C04DB7A2C02DCA4F120007A
:1052B000C4B238467F1C2C54A7E700BF08EB060099
:1052C000C9F800000FB90620BFE72878E52801D10A
:1052D00005202870202C01DC042000E00020E8726A
:1052E0000020B2E738690008222A2B2C3A3B3C3DCB
:1052F0003E3F5B5D7C7F0000014609B100207047A6
:105300000020FCE7014609B1002070470020FCE7BF
:105310002DE9F04104460E46D4F8008000212046D5
:1053200000F059F90546EDB9002700BF4046A169D4
:1053300001F04CF8054605B113E0E0690078E52876
:1053400002D0E069007820B9781C0746B04201D14C
:1053500007E000270121204600F070F80546002DE7
:10536000E4D000BF042D00D107252846BDE8F08118
:105370002DE9F04704468946204601F0E9F910B1CD
:105380000120BDE8F08749462046FFF78DFE06461E
:10539000E6624FF40072002104F1300000F0B9FE23
:1053A00004F130080127002500E03D446089A8424F
:1053B00007D9721960783B46414600F0A1F90028F0
:1053C000F3D06089A84201D00120DAE70020D8E7B5
:1053D0002DE9F041044627680021204600F0FBF843
:1053E000054615B12846BDE8F08100BF3846A169E1
:1053F00000F0ECFF054605B11DE0E06906780EB946
:10540000042518E0E069C07A00F03F00A071E0696F
:10541000C07A00F0080038B90B2204F12001E069DD
:1054200000F058FE00B906E00021204600F006F822
:105430000546002DDAD000BF2846D4E72DE9F0411B
:10544000044688462768206900F12006B6F5001F4B
:1054500001D30020A061A06910B90420BDE8F0814B
:10546000C6F30800002845D1A069401CA06160690E
:1054700038B93889B0EB561F3CD80020A061042011
:10548000ECE77889401E00EA562098BB2046616907
:1054900000F018FD0546012D01D80220DEE7681C4A
:1054A00008B90120DAE77869A8421DD8B8F1000FE1
:1054B00003D10020A0610420D0E720466169FFF7F6
:1054C00000FE05460DB90720C8E7012D01D10220D5
:1054D000C4E7681C08B90120C0E729463846FFF731
:1054E00047FF08B10120B9E7656129463846FFF753
:1054F000DBFDA0612661C6F3080107F13000084416
:10550000E0610020AAE72DE9F0470446884604251B
:10551000D4F8009027E04846A16900F057FF0546FF
:1055200005B123E0E06906780EB904251EE0E069C4
:10553000C07A00F03F07A771E52E0DD02E2E0BD0BC
:105540000F2F09D027F02000082801D1012000E00A
:105550000020404500D109E000212046FFF76EFF02
:10556000054605B102E0A0690028D4D100BF0DB105
:105570000020A0612846BDE8F08770B50446266883
:1055800001212046FFF7C4FE054695B93046A169C2
:1055900000F01CFF054665B920220021E06900F0FB
:1055A000B8FD0B2204F12001E06900F0A5FD012007
:1055B000F070284670BD70B5044626683046A16973
:1055C00000F004FF054625B9E520E16908700120D7
:1055D000F070284670BD2DE9F04104460D4626685E
:1055E000B5F5001F02D205F01F0010B10220BDE882
:1055F000F0812561A7681FB93078032800DB776A3E
:1056000047B93089B0EB551F01D80220EFE7706A27
:10561000A0611CE070894FEA402811E0394620461D
:1056200000F050FC0746781C08B90120DFE7022F84
:1056300002D37069B84201D80220D8E7A5EB08056B
:105640004545EBD239463046FFF72EFDA061676134
:10565000A06908B90220CAE7A06900EB5520A06143
:10566000C5F3080106F130000844E0610020BEE700
:1056700010B504460120094908704CB9FEF73EFBFD
:1056800028B90648007820F001000449087001E0BC
:10569000042010BD00BF01480078FAE71100002483
:1056A00003460BB9002070470420FCE72DE9F041C8
:1056B00005460E4617461C4614B90420BDE8F08185
:1056C0000948007800F0010008B10320F6E74DB961
:1056D000224639463046FEF77DFB08B90020EDE74B
:1056E0000120EBE70420E9E711000024014601292D
:1056F00001DB0120704701480078FBE7110000241E
:105700002DE9F04105460E4617461C4614B9042003
:10571000BDE8F0810D48007800F0010008B10320D9
:10572000F6E70A48007800F0040008B10220EFE72D
:105730004DB9224639463046FEF784FB08B90020B1
:10574000E6E70120E4E70420E2E70000110000247E
:1057500038B50546284600F085FA04463CB9694646
:10576000284601F0C3F804460CB900202860204602
:1057700038BD0000F7B582B016460398019001A825
:1057800000F010FC0546002D02DA0B2005B0F0BD3C
:105790000C4850F825400CB100202070029810B140
:1057A0000020029908700749029841F825000EB9B7
:1057B0000020EBE7002202A903A800F0B3FC074693
:1057C0003846E3E7140000242DE9F74F8CB0044677
:1057D00016461CB909200FB0BDE8F08F06F03F0651
:1057E000324669460DA800F09DFC0546002D7DD18E
:1057F0000098019001A80D9900F015FB05462DB900
:105800009DF82F0000F0800000B1062506F01C0076
:1058100000284DD045B1042D03D101A8FFF7ADFEFE
:10582000054646F008060AE09DF80A0000F011005F
:1058300008B1072503E006F0040000B10825002D9B
:1058400047D106F00800002843D00899009800F0DE
:10585000D0FB8146089901F10E00534900F01EFF6C
:1058600020200899C87200220899009800F004FFCF
:10587000089901F11C00002100F010FF012000999F
:10588000C870B9F1000F24D00098D0F82CA00022E5
:10589000494601A800F050FE0546D5B9514600988A
:1058A00000F094FD0546A9F101000099C86010E0E0
:1058B0007DB99DF80A0000F0100008B1042508E049
:1058C00006F0020028B19DF80A0000F0010000B1C6
:1058D00007254DB906F0080008B146F040060098CB
:1058E000C06A206208986062002D00E049E056D14D
:1058F0000899009800F07DFBA060089901F11C0058
:1059000000F08AFBE060009820600098C088A080CA
:10591000267400206074E06160614FF40072002121
:1059200004F1280000F0F5FB06F0200048B3E06821
:1059300038B3E0686061009840894FEA402BA7685F
:10594000D4F80C800CE03946204600F0BBFA07463C
:10595000012F00D80225781C00B90125A8EB0B08FF
:105960000DB9D845EFD8A7615DB9C8F3080040B1BB
:1059700039460098FFF798FB8246BAF1000F01D133
:1059800002250CE00AEB5820E061E26900994878B2
:10599000012304F12801FFF789FE00B101250DB1B3
:1059A00000202060284616E70000214E2DE9FF4F19
:1059B00085B0044615469A46DDF818B00020CAF8AE
:1059C000000003A9204600F091FF0490049810B94C
:1059D000607C049018B1049809B0BDE8F08F207C79
:1059E00000F0010008B90720F6E76169E068401A95
:1059F00001900198854200D9019DA0E0A08AC0F3E2
:105A0000080000287ED103984089401E616900EAA1
:105A10005129B9F1000F17D1606910B9A06802903F
:105A200004E02046A16900F04DFA02900298022895
:105A300002D202206074CFE70298401C10B9012006
:105A40006074C9E70298A061A1690398FFF72CFB75
:105A5000064616B902206074BEE74E444FEA552848
:105A6000B8F1000F29D009EB080003994989884251
:105A700003D903984089A0EB090803994878434665
:105A800032465946FFF712FE10B101206074A3E7B9
:105A9000207C00F0800068B1E069801B404509D29D
:105AA000E169891B0BEB41204FF4007204F12801DE
:105AB00000F022FB4FEA482737E0E069B04220D0EF
:105AC000207C00F0800078B1E269039948780123D6
:105AD00004F12801FFF714FE10B1012060747BE788
