:020000040800F2
:1000000050570020750200084D1500089314000891
:1000100049150008D5030008092B0008000000005E
:10002000000000000000000000000000492500085A
:10003000D9030008000000004F150008B52500088E
:100040008F0200088F0200088F0200088F0200084C
:100050008F0200088F0200088F0200088F0200083C
:100060008F0200088F0200088F0200088F0200082C
:100070008F0200088F0200088F0200088F0200081C
:100080008F0200088F0200088F0200088F0200080C
:100090008F0200088F0200088F0200088F020008FC
:1000A0008F0200088F0200088F0200088F020008EC
:1000B0008F020008512700088F0200088F020008F5
:1000C0008F0200088F0200088F0200088F020008CC
:1000D0008F020008412900088F020008892A0008C1
:1000E0008F0200088F0200088F0200088F020008AC
:1000F0008F0200088F0200088F0200088F0200089C
:100100008F0200088F0200088F0200088F0200088B
:100110008F0200088F0200088F0200088F0200087B
:100120008F0200088F0200088F0200088F0200086B
:100130008F02000800000000000000008F0200088D
:100140008F0200088F0200088F0200088F0200084B
:100150008F0200088F0200088F0200088F0200083B
:100160008F0200088F0200088F0200088F0200082B
:100170008F0200088F0200088F02000800000000B4
:10018000000000008F0200080000000000000000D6
:100190008F02000800000000000000008F0200082D
:1001A0000000000000000000000000008F020008B6
:1001B0008F0200088F0200088F0200088F020008DB
:1001C0008F02000800F002F800F03CF80AA090E866
:1001D000000C82448344AAF10107DA4501D100F002
:1001E00031F8AFF2090EBAE80F0013F0010F18BF93
:1001F000FB1A43F001031847C8760000E8760000B8
:10020000103A24BF78C878C1FAD8520724BF30C842
:1002100030C144BF04680C60704700000023002414
:1002200000250026103A28BF78C1FBD8520728BF06
:1002300030C148BF0B6070471FB504F0C7FF1FBD3A
:1002400010B510BD00F098F81146FFF7F5FF04F067
:10025000B3FB00F0B6F803B4FFF7F2FF03BC02F003
:1002600071FC000030BF72B6704762B6704780F311
:10027000088870470948804709480047FEE7FEE7BD
:10028000FEE7FEE7FEE7FEE7FEE7FEE7FEE7FEE746
:1002900004480549054A064B70470000C926000876
:1002A000C501000850510020505700205053002035
:1002B00050530020704710B5203AC0F00B80B1E8D1
:1002C0001850203AA0E81850B1E81850A0E818508B
:1002D000BFF4F5AF5FEA027C24BFB1E81850A0E894
:1002E000185044BF18C918C0BDE810405FEA827CAE
:1002F00024BF51F8043B40F8043B08BF7047D207C5
:1003000028BF31F8023B48BF11F8012B28BF20F865
:10031000023B48BF00F8012B70474FF0000200B5C8
:10032000134694469646203922BFA0E80C50A0E818
:100330000C50B1F12001BFF4F7AF090728BFA0E8C6
:100340000C5048BF0CC05DF804EB890028BF40F892
:10035000042B08BF704748BF20F8022B11F0804FD4
:1003600018BF00F8012B70477047704770477047FF
:1003700000487047F05000207546FFF7F9FFAE4681
:1003800005006946534620F00700854618B020B5A1
:10039000FFF77EFFBDE820404FF000064FF000075A
:1003A0004FF000084FF0000B21F00701AC46ACE81D
:1003B000C009ACE8C009ACE8C009ACE8C0098D468A
:1003C000704710B50446AFF300802046BDE81040EA
:1003D000FFF741BF00BFFEE77047000010B500BF48
:1003E00001200A49086000BF00BF002008490860DA
:1003F00000BF0A2002F020FE00BF0120044908606F
:1004000000BF642002F018FE10BD00009C82414233
:100410009C0243421CB51F48006840F048001D493B
:1004200008600120032100230246CDE9001080214D
:10043000194800F059F80120032100230246CDE9B4
:1004400000108021154800F04FF800BF012014492A
:10045000086000BF00BF1349086000BF4FF4E131DE
:100460002A2002F08DFA00BF00200D49086000BF6D
:1004700000BF0C49086000BF642002F0DDFD00BF32
:1004800001200849086000BF4FF47A7002F0D4FDE3
:100490001CBD000030380240000C02400018024031
:1004A0009C8241429C02434230B5CC1000F12003B3
:1004B00053F824304C07E50E0F24AC40A343CD1075
:1004C00000F1200444F82530CC1000F1200353F84B
:1004D00024304C07E40E02FA04F42343CD1000F15B
:1004E000200444F8253030BD2DE9F0470C46DDE905
:1004F0000867002100258C4600BF60E04FF001082E
:1005000008FA01F504EA050CAC4557D1D0F8008093
:100510004FEA410A4FF0030909FA0AF928EA0908E3
:10052000C0F80080D0F800804FEA410902FA09F9CA
:1005300048EA0908C0F80080012A01D0022A27D120
:10054000D0F808804FEA410A4FF0030909FA0AF986
:1005500028EA0908C0F80880D0F808804FEA410965
:1005600006FA09F948EA0908C0F80880D0F80490AA
:100570004FF0010808FA01F829EA0809C0F80490C8
:10058000D0F8048003FA01F948EA0908C0F80480A9
:10059000D0F80C804FEA410A4FF0030909FA0AF932
:1005A00028EA0908C0F80C80D0F80C804FEA41090D
:1005B00007FA09F948EA0908C0F80C80491C102913
:1005C0009CD3BDE8F087014691F83500022803D09E
:1005D0008020486501207047052081F835000868B3
:1005E000006820F001000A6810600020F3E70000B6
:1005F00070B5044600F008F906462546681C10B19F
:1006000004480078054400BF00F0FEF8801BA842B3
:10061000FAD370BD0C000020F8B502460B46002549
:10062000002400200021D7E0012606FA01F51E680B
:1006300006EA0504AC4273D15E68022E02D05E6801
:10064000122E13D1CF0802F1200656F827004E07CC
:10065000F70E0F26BE40B0434F07FF0E1E69BE4087
:100660003043CF0802F1200646F8270010684F00FB
:100670000326BE40B0431E7906F003064F00BE407D
:10068000304310605E68012E08D05E68022E05D0EF
:100690005E68112E02D05E68122E13D190684F0052
:1006A0000326BE40B0434F00DE68BE40304390603A
:1006B000506801268E40B0431E79C6F300168E4066
:1006C00030435060D0684F000326BE40B0434F0017
:1006D0009E68BE403043D0605E6806F08056B6F13A
:1006E000805F78D100BF002600963D4E366846F404
:1006F00080463B4F3E603E46366806F48046009694
:1007000000BF00BF374E8F0856F827008E07370FFF
:100710000F26BE40B043344EB24202D100261FE045
:1007200059E0324EB24201D1012619E0304EB242B8
:1007300001D1022614E02F4EB24201D103260FE070
:100740002D4EB24201D104260AE02C4EB24201D114
:10075000052605E02A4EB24201D1062600E0072612
:100760008F073F0FBE4030431E4E8F0846F82700CC
:10077000244E3068A0435E6806F48036B6F5803FAC
:1007800000D120431F4E3060361D3068A0435E68A4
:1007900006F40036B6F5003F00D12043194E361D51
:1007A0003060361D3068A0435E6806F48016B6F5EA
:1007B000801F00D12043134E08363060361D30684C
:1007C000A0435E6806F40016B6F5001F00D1204372
:1007D0000C4E0C363060491C1029FFF425AFF8BDD3
:1007E0004438024008380140000002400004024042
:1007F00000080240000C02400010024000140240B9
:1008000000180240003C01400148006870470000A9
:10081000040000200348006803490978084401499E
:1008200008607047040000200C00002010B50A4842
:10083000006840F40070084908600846006840F409
:1008400080600860052000F06FF80F2000F006F8C7
:1008500000F02AF8002010BD003C024070B50446AC
:100860000E4800784FF47A71B1FBF0F00C4909683A
:10087000B1FBF0F5284600F0C3FC08B1012070BDC3
:10088000102C07D200222146501E00F00EF8054819
:10089000046001E00120F2E70020F0E70C000020F6
:1008A000000000200800002070472DE9F05F80461E
:1008B0000D461646002702F029F9074639462A4612
:1008C000334601F00700C0F1070ABAF1040F02D95C
:1008D0004FF0040A01E0C0F1070AD14600F1040A12
:1008E000BAF1070F02D24FF0000A01E0A0F1030AAB
:1008F000D4464FF0010A0AFA09FAAAF1010A0AEAF3
:10090000020A0AFA0CFA4FF0010B0BFA0CFBABF1DE
:10091000010B0BEA030B4AEA0B042146404602F0A6
:10092000FDF8BDE8F09F000000BF00F00702064B95
:1009300019684FF6FF031940044B0B4343EA0221A9
:10094000014B196000BF70470CED00E00000FA0594
:1009500070B58AB004460D460026032084F83400A2
:10096000606C032820D0B5F5805F04D1A06B40F007
:100970008050A0631CE0B5F5006F07D1204601F060
:100980002FFC0646A06B3043A06311E03DB9204622
:1009900001F0F1FB0646A06B3043A06308E0A06BBA
:1009A00040F00060A06303E0A06B40F08050A063C3
:1009B000A06B40B140F2FF5021688863012084F8A9
:1009C00034000AB070BD60680490A0680590E068CB
:1009D0000690079560690890A069099007A807C864
:1009E0008DE80700206804A90EC900F0DBFD012096
:1009F00084F834000020E4E730B503460022586E46
:100A0000020E90090870C2F38300487002F00300E0
:100A10008870586EC0F30742CA70B3F86400C0F320
:100A200007220A7193F864204A71986E020E4FF6FD
:100A3000FF7000EA0210C880986EC0F30742C888B1
:100A400040EA1210C88002F00F0008726820C05AF5
:100A5000C0F30722D0094872C2F380108872C2F333
:100A60004010C872C2F30010087300204873586C1D
:100A700000283ED19007000D08616820C25C08691B
:100A800040EA82000861D86E020E086940EA9210BE
:100A90000861C2F3C200087502F007004875D86EFD
:100AA000C0F3074250098875C2F38200C8759007E9
:100AB000400F08766C20C05AC0F30722087E40EA37
:100AC000D21008760869401C58650C7E586DA41C2D
:100AD0000125A540684358650C7A0120A04098651F
:100AE000D3E91504640A6043D8654FF400741C66AA
:100AF00030E0586C012821D16820C25C9006800A41
:100B00000861D86E020E086940EA02200861D86EBA
:100B1000C0F307420869104308616C20C05AC0F353
:100B200007220869441C4FF48060A4FB0004586548
:100B3000D8654FF400749C651C660BE040F2FF50D2
:100B40001C68A063986B40F080509863012083F884
:100B5000340030BDC2F3801001F8190F9006400E2A
:100B600048706C20C25C487840EAD210487002F0AD
:100B70007F008870186F020ED009C870C2F3411050
:100B80000871C2F3820048719007000F8871186FD6
:100B9000C0F30742887940EA92108871C2F340108E
:100BA000C8710020087202F0010048727020C05A1B
:100BB000C0F30722D0098872C2F38010C872C2F352
:100BC00040100873C2F300104873C2F381008873A9
:100BD00002F00300C8737020C25C50080874012042
:100BE000487419390020B4E7F8B5044604260025F6
:100BF000002000906946204601F0A4FA054615B190
:100C0000A06B2843A0630098C0F343263046F8BD8C
:100C100010B504460CB9012010BD94F8340020B979
:100C200000202077204600F051F8032084F834009B
:100C3000204600F009F80020A0632063012084F81A
:100C400034000020E8E7000030B589B004460025F4
:100C5000002003900490059006900790762008905D
:100C600006A807C88DE80700206803A90EC900F090
:100C700099FC002014490860206800F0ADFC0120B8
:100C80001149A039C1F8A0000220FFF7B1FC2046AD
:100C900001F0B6F9054645B1012084F83400A06B97
:100CA0002843A063012009B030BD204601F02AF995
:100CB00005463DB1012084F83400A06B2843A063B1
:100CC0000120F0E70020EEE7A080254210B586B0B5
:100CD000044600BF002000902948006840F40060EE
:100CE000274908600846006800F40060009000BFD3
:100CF00000BF00BF0020009021481438006840F475
:100D000080001F49143908600846006800F480001C
:100D1000009000BF00BF00BF0020009008460068A0
:100D200040F0040008600846006800F004000090ED
:100D300000BF00BF00BF002000900846006840F0E0
:100D4000080008600846006800F00800009000BF36
:100D500000BF4FF4F8500190022002900120039050
:100D6000032004900C20059001A90648FFF754FCCD
:100D70000420019001A90448FFF74EFC06B010BD05
:100D80004438024000080240000C02402DE9F04FB8
:100D900087B004468A4690461E46DDF840900025FE
:100DA000FFF732FD0090AB465746BAF1000F07D16E
:100DB000A06B40F00060A063012007B0BDE8F08F99
:100DC00094F8340001287DD10020A06308EB0601CF
:100DD000E06D814205D9A06B40F00070A063012056
:100DE000EBE7032084F8340000202168C862606CBF
:100DF000012801D04FEA48284FF40071206800F024
:100E000049FC054655B140F2FF5021688863A06B4C
:100E10002843A063012084F83400CEE74FF0FF3070
:100E20000190700202909020039002200490002014
:100E300005900120069001A9206800F089FB012E91
:100E400007D9022020634146206800F08FFC054648
:100E500006E0012020634146206800F0A4FC05461E
:100E600055B140F2FF5021688863A06B2843A0630E
:100E7000012084F83400A0E72AE02068406B00F4E9
:100E8000004068B14FF0000B06E0206800F0A9FBBD
:100E900047F82B000BF1010BBBF1080FF5D32037FE
:100EA000B9F1000F05D0FFF7AFFC0099401A484593
:100EB0000ED340F2FF5021688863A06B40F00040E1
:100EC000A06300E081E0012084F83400032074E78F
:100ED0002068406B00F495700028CED02068406BED
:100EE00000F48070A0B1012E12D9606C03280FD0DD
:100EF000206800F01FFD054655B140F2FF50216803
:100F00008863A06B2843A063012084F8340054E771
:100F10002068406B00F0080058B140F2FF50216893
:100F20008863A06B40F00800A063012084F83400BF
:100F300043E72068406B00F0020058B140F2FF50D8
:100F400021688863A06B40F00200A063012084F850
:100F5000340032E72068406B00F0200058B140F2C6
:100F6000FF5021688863A06B40F02000A06301203F
:100F700084F8340021E719E0206800F032FB386083
:100F80003F1DB9F1000F05D0FFF73EFC0099401A54
:100F900048450BD340F2FF5021688863A06B40F0B6
:100FA0000040A063012084F8340006E72068406B0D
:100FB00000F400100028DFD140F2FF502168886360
:100FC000012084F834000020F7E6A06B40F00050C8
:100FD000A0630120F1E62DE9F04F87B00446884672
:100FE00017461E46DDF840B00025FFF70DFC0090C7
:100FF000A946C246B8F1000F07D1A06B40F00060CF
:10100000A063012007B0BDE8F08F94F834000128F8
:101010007DD10020A063B919E06D814205D9A06B94
:1010200040F00070A0630120ECE7032084F8340056
:1010300000202168C862606C012800D07F024FF454
:101040000071206800F026FB054655B140F2FF50C4
:1010500021688863A06B2843A063012084F83400D2
:10106000D0E7012E07D9202020633946206800F000
:101070007FFC054606E0102020633946206800F01A
:1010800094FC054655B140F2FF5021688863A06B7F
:101090002843A063012084F83400B3E74FF0FF3009
:1010A000019070020290902003900020049005901F
:1010B0000120069001A9206800F04AFA2AE0206881
:1010C000406B00F4804070B14FF0000906E00AEB7D
:1010D0008901206800F09DFA09F10109B9F1080FB2
:1010E000F5D30AF1200ABBF1000F05D0FFF78CFB06
:1010F0000099401A58450DD340F2FF50216888638B
:10110000A06B2843A063012084F8340000E05DE078
:10111000032077E72068406B00F48D700028CED064
:101120002068406B00F48070A0B1012E12D9606C71
:1011300003280FD0206800F0FDFB054655B140F2B2
:10114000FF5021688863A06B2843A063012084F8C6
:10115000340057E72068406B00F0080058B140F2B7
:10116000FF5021688863A06B40F00800A063012055
:1011700084F8340046E72068406B00F0020058B164
:1011800040F2FF5021688863A06B40F00200A0632A
:10119000012084F8340035E72068406B00F010002F
:1011A00058B140F2FF5021688863A06B40F01000F6
:1011B000A063012084F8340024E740F2FF50216846
:1011C0008863012084F8340000201BE7A06B40F006
:1011D0000050A063012015E7042808D14FF0E0215A
:1011E000096941F004014FF0E022116107E04FF07E
:1011F000E021096921F004014FF0E02211617047FC
:1012000070B504462546681EB0F1807F01D30120E9
:101210000FE0681E4FF0E02148610F214FF0FF30D2
:1012200001F07CFC00204FF0E0218861072008617C
:10123000002070BD704701460022002391F839203C
:1012400091F83A3042EA0300704700002DE9F04778
:101250000446206805682068C668206847694FF022
:101260000008C14605F00F08B8F1000F0AD105F0DB
:10127000200038B106F0200020B1204601F0D8FA55
:10128000BDE8F087B8F1000F6ED007F0010018B983
:1012900006F49070002867D005F0010030B106F424
:1012A000807018B1E06B40F00100E06305F00400CD
:1012B00030B107F0010018B1E06B40F00200E063CC
:1012C00005F0020030B107F0010018B1E06B40F00A
:1012D0000400E06305F0080030B107F0010018B128
:1012E000E06B40F00800E063E06B70B305F02000B5
:1012F00028B106F0200010B1204601F099FA2068CC
:101300004069C0F38019E06B00F0080010B9B9F132
:10131000000F23D0204601F06BFA2068406900F0EE
:101320004000402816D12068406920F04000216824
:101330004861606B50B11748616B0865606BFFF7DF
:1013400042F910B1606B016D88470CE02046FFF751
:1013500071FF08E02046FFF76DFF04E02046FFF72D
:1013600069FF0020E0638BE705F0800030B106F0F4
:10137000800018B1204601F0AEFA81E705F0400088
:1013800030B106F0400018B1204601F041FA77E78D
:1013900000BF75E7DD27000810B5034693F83A0053
:1013A00020282FD101B10AB9012010BD00BF93F848
:1013B0003800012801D10220F7E7012083F8380026
:1013C00000BF99629A85DA850020D863222083F8CD
:1013D0003A0000BF002083F8380000BF1868C068DA
:1013E00040F480701C68E0601868406940F00100BB
:1013F0001C6860611868C06840F020001C68E060EC
:101400000020D2E70220D0E71D4A0168914236D180
:101410001C49098801F4004189BB1A49098801F473
:10142000804171B1184909780A2903D00021154A71
:10143000118024E01349098841F40041114A1180C8
:101440001DE0114909780D2906D10E49098841F49A
:1014500080410C4A118012E00B490978094A128830
:10146000C2F30D02094B995406490988491C054AE3
:10147000118011460988C72901DD002111807047BC
:1014800000100140180000201A0000206002002017
:10149000704700BFFEE700002DE9F041074688468F
:1014A00014461D46284600F033F8C5F1040007FA3B
:1014B00000F60F20284100EA0800064306F00F0658
:1014C000E21704EBD2625211920002F1E022D2F84C
:1014D00000212146E31704EBD3635B11A4EB431C0B
:1014E000012303FA0CF31A432046E31704EBD363FA
:1014F0005B119B0003F1E023C3F800210348005D6A
:1015000040EA061001490855BDE8F08100E400E01A
:101510000146072323EA01021202054B18684FF621
:10152000FF031840034B18431043014B18607047EA
:101530000CED00E00000FA054A0A52020243014B9A
:101540001A60704708ED00E000BFFEE77047704783
:1015500010B5024600230868506248689062D1E9DD
:10156000020420430C6920434C6920430343D06AA2
:1015700020F0F7001843D062002010BD0146086932
:10158000C0B270470146086800F00300704708B514
:1015900002460020009002F11400084400900098D8
:1015A000006808BD0FB410B504460021DDE9030250
:1015B0001043059A1043069A1043079A1043089A5D
:1015C00010430143606847F6FF6290430843606040
:1015D000002010BC5DF814FB0146032008600020C9
:1015E00070470146D1F88000704710B502460023CD
:1015F00008689060D1E901042043CC6820430C695D
:1016000020430343D0686FF30B001843D0600020E1
:1016100010BD02460868C2F880000020704770B50F
:1016200086B005460C4600260194372002904020E3
:101630000390002004904FF48060059001A9284693
:10164000FFF7D3FF41F288323721284600F0EAF94C
:101650000646304606B070BD70B586B005460C46ED
:1016600000260B482043019029200290402003903F
:10167000002004904FF48060059001A92846FFF7F0
:10168000B4FF284600F0CEFA0646304606B070BDDC
:101690000000108070B586B005460C460026019407
:1016A0001020029040200390002004904FF48060AE
:1016B000059001A92846FFF798FF41F288321021D2
:1016C000284600F0AFF90646304606B070BD70B54A
:1016D00086B005460C460026019406200290402064
:1016E0000390002004904FF48060059001A92846E3
:1016F000FFF77BFF41F288320621284600F092F97D
:101700000646304606B070BD30B585B004460025AB
:10171000002000900190029003904FF480600490AC
:1017200069462046FFF761FF204600F05BF9054659
:10173000284605B030BD30B585B0044600254FF4CD
:10174000D570009008200190402002900020039066
:101750004FF48060049069462046FFF746FF20461C
:1017600000F0E0FA0546284605B030BD70B586B0F9
:1017700005460C460026019412200290402003905A
:10178000002004904FF48060059001A92846FFF7DF
:101790002CFF41F288321221284600F043F9064618
:1017A000304606B070BD70B586B005460C460026C2
:1017B00001941120029040200390002004904FF4E7
:1017C0008060059001A92846FFF70FFF41F288329B
:1017D0001121284600F026F90646304606B070BDB5
:1017E000F0B585B0064614461D4600270094072034
:1017F000019040200290002003904FF480600490FC
:1018000069463046FFF7F1FE41F288320721304643
:1018100000F008F90746384605B0F0BD30B585B090
:10182000044600250020009002200190C020029074
:10183000002003904FF48060049069462046FFF733
:10184000D4FE204600F0C0F90546284605B030BD5C
:1018500070B586B005460C4600260194092002901A
:10186000C0200390002004904FF48060059001A9EF
:101870002846FFF7BAFE284600F0A6F9064630468D
:1018800006B070BD30B585B004460025002000903C
:101890003320019040200290002003904FF480609C
:1018A000049069462046FFF7A0FE41F288323321BA
:1018B000204600F0B7F80546284605B030BD70B5A3
:1018C00086B005460C46002601940D20029040206B
:1018D0000390002004904FF48060059001A92846F1
:1018E000FFF783FE41F288320D21284600F09AF876
:1018F0000646304606B070BD70B586B005460C464B
:101900000026002001900320029040200390002038
:1019100004904FF48060059001A92846FFF765FE0A
:1019200022460321284600F0A5F90646304606B0B7
:1019300070BD000030B585B0044600250020009041
:101940000C20019040200290002003904FF4806012
:10195000049069462046FFF748FE044A0C212046C1
:1019600000F060F80546284605B030BD00E1F505F9
:1019700070B586B005460C460026019419200290E9
:1019800040200390002004904FF48060059001A94E
:101990002846FFF72AFE41F288321921284600F036
:1019A00041F80646304606B070BD70B586B00546B3
:1019B0000C4600260194182002904020039000203D
:1019C00004904FF48060059001A92846FFF70DFEB2
:1019D00041F288321821284600F024F806463046A5
:1019E00006B070BD01460E480068C0084FF47A7317
:1019F000B0FBF3F041F2883300FB03F200BF101E8E
:101A0000A2F1010202D14FF000407047486B00F094
:101A100080000028F3D040F2FF5088630020F4E7F4
:101A2000000000202DE9F04105460E4617466448A7
:101A30000068C0084FF47A71B0FBF1F000FB07F8C2
:101A400000BFB8F10000A8F1010803D14FF0004039
:101A5000BDE8F081686B00F045000028F1D0686BAC
:101A600000F0040010B10420A863F1E7686B00F0F7
:101A7000010010B10120A863EAE72846FFF77EFDC8
:101A8000B04201D00120E3E740F2FF50A8630021FB
:101A90002846FFF77CFD04464A48204008B900204C
:101AA000D6E704F00040B0F1004F02D14FF00070D3
:101AB000CEE704F08040B0F1804F01D14020C7E76D
:101AC00004F00050B0F1005F01D18020C0E704F0C5
:101AD0008050B0F1805F02D14FF48070B8E704F01D
:101AE0000060B0F1006F02D14FF40070B0E704F075
:101AF0008060B0F1806F02D14FF48060A8E704F0FD
:101B00008070B0F1807F02D14FF40060A0E704F450
:101B10000000B0F5000F02D14FF4805098E704F4B4
:101B20008000B0F5800F02D14FF4005090E704F42C
:101B30000010B0F5001F02D14FF4804088E704F494
:101B40008010B0F5801F02D14FF4004080E704F40C
:101B50008020B0F5802F02D14FF4003078E704F4F4
:101B60000030B0F5003F02D14FF4802070E704F45C
:101B70008030B0F5803F02D14FF4002068E704F4D4
:101B80000040B0F5004F02D14FF4801060E704F43C
:101B90008040B0F5804F02D14FF4001058E704F4B4
:101BA0000050B0F5005F02D14FF4800050E704F020
:101BB0000800082801D100054AE74FF4803047E7C4
:101BC0000000002008E0FFFD014615480068C0083D
:101BD0004FF47A73B0FBF3F041F2883300FB03F269
:101BE00000BF101EA2F1010202D14FF00040704769
:101BF000486B00F045000028F3D0486B00F004006B
:101C000010B104208863F2E7486B00F0010010B1C6
:101C100001208863EBE740F2FF5088630020E6E78D
:101C200000000020014612480068C0084FF47A7393
:101C3000B0FBF3F041F2883300FB03F200BF101E4B
:101C4000A2F1010202D14FF000407047486B00F052
:101C500045000028F3D0486B00F0040010B10420C8
:101C60008863F2E740F2FF5088630020EDE7000050
:101C7000000000202DE9F04104460E461746284892
:101C80000068C0084FF47A71B0FBF1F041F288317E
:101C900000FB01F800BFB8F10000A8F1010803D172
:101CA0004FF00040BDE8F081606B00F04500002877
:101CB000F1D0606B00F0040010B10420A063F1E7E4
:101CC000606B00F0010010B10120A063EAE720463C
:101CD000FFF754FCB04201D00120E3E740F2FF508F
:101CE000A06300212046FFF752FC054605F4604042
:101CF00018B9280C38800020D4E705F48040B0F5EE
:101D0000804F02D14FF40050CCE705F40040B0F50D
:101D1000004F02D14FF48050C4E74FF48030C1E748
:101D200000000020014614480068C0084FF47A7390
:101D3000B0FBF3F041F2883300FB03F200BF101E4A
:101D4000A2F1010202D14FF000407047486B00F051
:101D500045000028F3D0486B00F0040018B1402083
:101D600088630420F1E7486B00F0400008B1402090
:101D700088630020E9E70000000000202DE9F04121
:101D800088B004460E460025FEF73EFD804600273B
:101D900000200090019008212068FFF77BFC054699
:101DA0001DB1284608B0BDE8F0815022125B110435
:101DB0002068FFF734FC05460DB12846F2E74FF0E6
:101DC000FF300290082003903020049002200590FC
:101DD000002006900120079002A92068FFF7B8FBB9
:101DE0002068FFF74FFD05460DB12846DAE713E0FE
:101DF0002068406B00F4001028B12068FFF7F1FB69
:101E00004DF827007F1CFEF7FFFCA0EB0800401CEC
:101E100010B94FF00040C5E72068406B40F22A41FE
:101E200008400028E4D02068406B00F0080018B19A
:101E3000082021688863B5E72068406B00F0020045
:101E400018B1022021688863ACE72068406B00F07D
:101E5000200018B1202021688863A3E740F2FF50DA
:101E60002168886300980006009901F47F4140EAE8
:101E70000120009901F47F0140EA1120009940EA15
:101E80001160706001980006019901F47F4140EAF9
:101E90000120019901F47F0140EA1120019940EAF3
:101EA0001160306000207DE710B50448FEF79CFE0D
:101EB000042801D0012010BD0020FCE768030020A9
:101EC00010B50E480E4908600020486000210C48FB
:101ED0008160C160016141618161FEF799FE044644
:101EE0000CB1012010BD4FF400610548FEF730FD34
:101EF00004460CB10220F5E70020F3E7002C014076
:101F00006803002030B58FB00446002501200390FF
:101F10002068FFF737FB18B94FF080600FB030BD75
:101F2000606C03281BD02068FFF778FC05460DB1D4
:101F30002846F3E700212068FFF729FB60670421AA
:101F40002068FFF724FBA06708212068FFF71FFB2C
:101F5000E0670C212068FFF71AFB80210851606CB4
:101F6000032807D003A92068FFF7C6FC05460DB17A
:101F70002846D3E7606C032820D0BDF80C102165FB
:101F80005022125B11042068FFF762FC05460DB178
:101F90002846C3E700212068FFF7F9FA60660421AC
:101FA0002068FFF7F4FAA06608212068FFF7EFFA2F
:101FB000E0660C212068FFF7EAFA20670421206818
:101FC000FFF7E5FA010DE16404A92046FEF714FDD0
:101FD0005020005B01040A4600232068FFF700FC44
:101FE00005460DB1284699E7D4E90412A069CDE968
:101FF0000012029094E80F00FFF7D4FA00208DE75A
:10200000F8B504460020009000260027002520682F
:10201000FFF77AFB05460DB12846F8BD2068FFF7AB
:102020008AFB05466DB30021A16425E00098411CA0
:1020300000914FF6FF71884202D14FF08070ECE7BB
:1020400000212068FFF7EBFA054615B14FF08050EC
:10205000E3E700212068FFF7FFFA054615B14FF0CE
:102060008050DAE700212068FFF791FA0646012048
:1020700080EAD67080F00107002FD7D0002060647E
:1020800033E00121A16424E00098411C00914FF647
:10209000FF71884202D14FF08070BEE700212068B6
:1020A000FFF7BDFA05460DB12846B6E74FF080416F
:1020B0002068FFF7D1FA05460DB12846ADE70021AB
:1020C0002068FFF764FA0646012080EAD67080F0A7
:1020D0000107002FD8D006F08040B0F1804F02D128
:1020E0000120606401E000206064002095E70000AA
:1020F0002DE9F84605460C4616464FF00009DFF874
:102100003CA02746FEF7AFF8504633463A462946EC
:1021100000900B48FEF73AFE814606E0BAF1000057
:10212000AAF1010A01D14FF00109FFF7BDFE002815
:10213000F4D1FEF79AF84846BDE8F88600E1F505C7
:102140006803002070B504460D46002615B94FF00F
:10215000006070BD5022125B11042068FFF7AFFBD6
:1021600006460EB13046F4E700212068FFF70FFA6B
:1021700028600020EDE77CB5044600200090019027
:10218000002500212068FFF702FA00F00070B0F18E
:10219000007F02D14FF400607CBD69462046FFF706
:1021A000EDFD05460DB12846F6E7019800F48030B4
:1021B00098B15022125B11042068FFF730FA0546EF
:1021C0000DB12846E8E700212068FFF780FA0546B0
:1021D0000DB12846E0E70020DEE74FF08060DBE746
:1021E0007CB5044600200090019000250021206865
:1021F000FFF7CDF900F00070B0F1007F02D14FF48D
:1022000000607CBD69462046FFF7B8FD05460DB16C
:102210002846F6E7019800F4802098B15022125B1E
:1022200011042068FFF7FBF905460DB12846E8E7E1
:1022300002212068FFF74BFA05460DB12846E0E77A
:102240000020DEE74FF08060DBE700002DE9F84674
:1022500005460C4616464FF00009DFF83CA027461D
:10226000FEF701F8504633463A46294600900B489F
:10227000FEF7B1FE814606E0BAF10000AAF1010ABC
:1022800001D14FF00109FFF70FFE0028F4D1FDF74F
:10229000ECFF4846BDE8F88600E1F505680300203C
:1022A00070B505460024194800F0BEF8044654BB3A
:1022B0001748006820F44070154908600846006817
:1022C00040F4007008600846006820F0F8000860DC
:1022D0000846006840EAC50008600846006840F00B
:1022E000020008600846006840F480300860074833
:1022F00000F09AF80446012C05D00548006820F04B
:10230000020003490860204670BD0000400D030034
:10231000103C024001461C48814201D20020704717
:102320001A48814201D20120F9E71948814201D2BD
:102330000220F4E71748814201D20320EFE7164854
:10234000814201D20420EAE71448814201D20520EB
:10235000E5E71348814201D20620E0E711488142B7
:1023600001D20720DBE71048814201D20820D6E7DE
:102370000E48814201D20920D1E70D48814201D2A5
:102380000A20CCE70B20CAE70040000800800008C4
:1023900000C0000800000108000002080000040856
:1023A000000006080000080800000A0800000C08E9
:1023B00000000E0800210E48016801F4803008B1C9
:1023C0000120704701F0100008B10220F9E701F088
:1023D000200008B10220F4E701F0400008B102201B
:1023E000EFE701F0800008B10220EAE70020E8E70B
:1023F0000C3C02400348006840F00040014908607E
:1024000070470000103C0240014608687047000019
:102410000248034908600348086070472301674584
:10242000043C0240AB89EFCD70B5044600BFFFF716
:10243000C1FF0546012D00D005E00A2000F008FE8E
:10244000641E002CF3D100BF04B9FF25284670BDDF
:102450002DE9F04704460E4617464FF000080025C8
:10246000A946B4F1006F02D304F0030008B1BDE83F
:10247000F087FFF7CDFF1D48006820F480601B49FE
:102480000860254604EB87091948854214D210E0FC
:102490002846FFF7B9FF401C50B12846FFF73AFF26
:1024A0008246FFF7FDFE8046B8F1000F01D002E042
:1024B0002D1D4D45ECD300BFB8F1000F0BD107E047
:1024C0002046316800F016F800B103E0241D361DE7
:1024D0004C45F5D300BF0548006840F480600349CF
:1024E0000860FFF787FF00BFC1E70000003C024023
:1024F0000000FF1F70B505460E46FF20FFF794FF52
:102500000446E4B90F48006820F440700D490860A3
:102510000846006840F4007008600846006840F013
:10252000010008602E60FF20FFF77EFF0446012CAB
:1025300005D00448006820F00100024908602046E8
:1025400070BD0000103C024070470000F0B504462A
:102550000D4616461F461448006840F00100124917
:10256000086000201049083108600F4800680F49D2
:1025700008400D4908600E48091D0860081F0068E2
:1025800020F48020091F0860002007490C310860F2
:102590003B4632462946204600F010F80021084606
:1025A000FEF7CAFFF0BD000000380240FFFFF6FE54
:1025B0001030002410B5FEF72DF910BDF0B504461B
:1025C0000D46002100203C4E366846F480363A4FD6
:1025D0003E6001E04E1CB1B2374E366806F400365C
:1025E00016B9364EB142F5DB41F6FF76B14201D164
:1025F000012060E0304E4036366846F080562E4F5F
:1026000040373E602E4E366846F440462C4F3E60C2
:10261000294E0836366846F41446274F08373E6080
:10262000254E366826F08076234F3E6045EA8416B4
:102630000127C7EB520746EA074646EA036646F417
:1026400080061D4F3F1D3E603E1F366846F0807677
:102650003F1F3E6000BF184E366806F00076002E21
:10266000F9D0184E366846F48076164F3E603E46E6
:10267000366846F400763E603E46366846F480662C
:102680003E603E46366846F005063E600A4E083615
:10269000366826F00306084F08373E603E46366827
:1026A00046F002063E6000BF034E0836366806F06C
:1026B0000C06082EF8D1F0BD00380240FFFF0F00D5
:1026C00000700040003C02401448006840F4700074
:1026D000124908601248006840F001001049086083
:1026E00000200F49083108600D4800680D49084076
:1026F0000B4908600C48091D0860081F006820F499
:102700008020091F0860002005490C3108604FF047
:1027100000600249803908607047000088ED00E0E1
:1027200000380240FFFFF6FE103000240648006823
:1027300020F00200044908600448006820F001000D
:102740000249086070470000403802400004004021
:102750000948006800F0010038B10848007880F0AE
:10276000010006490870064908600348006820F027
:102770000100014908607047100400402800002053
:10278000B402404270B505460C461248006840F05D
:1027900002001049086000200F4908600E48083008
:1027A0000560001F04600C481838006840F0010004
:1027B00009491839086008482438006840F00100C9
:1027C00005492439086002231D2200210120FEF75B
:1027D00063FE70BD403802402404004070B50546D9
:1027E000AC6B0020E085E0842046FEF723FD70BD41
:1027F0000168C96821F490710268D1600168496973
:1028000021F0010102685161202180F83A107047DF
:1028100010B504462068C06820F040002168C860F8
:10282000202084F839002046FEF732FE002010BD3B
:1028300070B5044694F83A0022284AD1A068B0F551
:10284000805F13D1A56A206940B920684068C0F351
:1028500008002880A06A801CA06219E020684068F7
:10286000C0B22880A06A401CA06211E0206938B97B
:1028700020684068C1B2A26A501CA062117007E0D3
:102880002068406800F07F01A26A501CA0621170AD
:10289000E08D401E80B2E085C8B92068C06820F095
:1028A00020002168C8602068C06820F4807021681A
:1028B000C8602068406920F001002168486120203C
:1028C00084F83A002046FEF79FFD002070BD0020EE
:1028D000FCE70220FAE7014691F8390021282CD1C3
:1028E0008868B0F5805F0FD10A6A1088C0F30800CD
:1028F0000B685860086918B9086A801C086209E00A
:10290000086A401C086205E00B6A581C08621878C7
:102910000B685860C88C401E80B2C88458B90868DB
:10292000C06820F080000B68D8600868C06840F07C
:1029300040000B68D860002070470220FCE70000D0
:1029400010B500240C48FEF781FC00BF01E0641CB8
:1029500000BF0948FEF76FFC2028F8D100BF002413
:1029600001E0641C00BF012204490348FEF714FD86
:102970000028F6D100BF10BD280300201A00002057
:10298000F0B52DED028B83B005460E463A4905FBA6
:1029900001F000EE100AF8EE400A300100EE100AD5
:1029A000B8EE400A80EE801AB0EE418ABCEEC80A4A
:1029B00010EE100A84B200EE104AB8EE400A38EE6B
:1029C000400AF3EE000A20EE200ABCEEC00A10EE28
:1029D000107A4FF6FF7000EA0414E01984B2274819
:1029E000006840F00800254908602448103000685D
:1029F00040F4802021491031086001200321002388
:102A00000222CDE9001009021D48FDF76DFD0722E5
:102A100008211B48FDF748FD072209211848FDF74A
:102A200043FD18480460001D006820F4004015496B
:102A3000091D08600846006840F008000860084664
:102A4000006840F0040008600846006840F020007C
:102A500008600023272219461846FEF71DFD094885
:102A6000001D006840F400500649091D086003B0CD
:102A7000BDEC028BF0BD000040420F003038024038
:102A8000000C0240084800401449096801F0200188
:102A900019B31249091D0968C8B2C02811D11049DB
:102AA000097831B900210F4A117001210C4A1170C7
:102AB00013E000210A4A117001210B4A82F820100C
:102AC0000BE007490978012907D106490A780978F6
:102AD000491C044B19700449885470470048004051
:102AE0002300002022000020CC48002000BF054920
:102AF000096801F040010029F9D00249091D086068
:102B0000704700000048004000BFFEE70248006830
:102B1000C0F30220704700000CED00E010B5002863
:102B200004DB0A07130E054A135406E00A07140EC5
:102B3000034A00F00F031B1FD45410BD00E400E053
:102B400018ED00E000BF704770B504460D46002048
:102B5000E070401E20632946204602F017F808B1B5
:102B6000042070BD04F2322001F020FF4AF6552106
:102B7000884201D00320F4E794F83400E92807D014
:102B800094F83400EB2803D094F83400E82811D1ED
:102B9000032209A104F16A0001F0D0FF08B9002066
:102BA000DFE7052205A104F1860001F0C7FF08B99F
:102BB0000020D6E70220D4E7464154004641543372
:102BC00032000000024600E0521C107810B110786C
:102BD0008842F9D1107870470246891E9069801E9C
:102BE000884201D8002070475389D06A03FB010056
:102BF000F9E700002DE9F04780460C4604F11A0081
:102C000001F0D4FE10B10020BDE8F087207800F07C
:102C10003F00401E00EB800101EBC0054FF00109B1
:102C2000002621E01849895D081901F0BFFE07461A
:102C3000B9F1000F11D0FF2D0BD2384601F064FB23
:102C4000824629466D1C38F8110001F05DFB824573
:102C500001D00020D8E7B94605E04FF6FF70874263
:102C600001D00020D0E7761C0D2EDBD3207800F0B9
:102C7000400038B1B9F1000F04D038F8150008B1A0
:102C80000020C1E70120BFE7D65100082DE9F04739
:102C900082468846DAF80040B8F1000F06D127696D
:102CA00017B1A069B84215D8012713E04146504634
:102CB00001F0C2FD0546022D02D20120BDE8F087D9
:102CC000681C08B92846F9E7A069A84201D9284636
:102CD000F4E74746606908B90020EFE7002647455A
:102CE00018D17E1CA069B04200D802263146504659
:102CF00001F0A2FD0546012D01D0681C08B9284647
:102D0000DCE73DB12569022D03D3A069A84200D9B3
:102D10002F460026E6B93E4600BF761CA069B042A9
:102D200004D80226BE4201D90020C7E731465046EA
:102D300001F082FD054605B909E0012D01D0681CAE
:102D400008B92846BAE7BE42E7D10020B6E700BF7F
:102D50004FF0FF323146204601F076FF8146B9F14F
:102D6000000F08D1B8F1000F05D032464146204689
:102D700001F06AFF8146B9F1000F0DD12661D4E957
:102D80000510801E814202D86069401E6061207972
:102D900040F00100207107E0B9F1010F02D14FF0BE
:102DA000FF3000E001200646304687E72DE9F34F6B
:102DB00083B08146049800680090D9F80000D0F8EC
:102DC0000CA0002500BF684602F069F983460BF1AC
:102DD000010018B9062005B0BDE8F08FBBF5803FB3
:102DE00005D34FEA1B4228466D1C2AF810201FFA13
:102DF0008BF4202C03DB2F2C01D05C2C00D111E0B4
:102E0000802C06DA21467BA0FFF7DCFE08B1062005
:102E1000E1E7FF2D01D30620DDE728466D1C2AF8E7
:102E20001040D0E700BF02E00098401C00900098DE
:102E300000782F28F8D0009800785C28F4D000990A
:102E400004980160202C01DA042000E000200646EE
:102E500008E0681E3AF81040202C02D02E2C00D03A
:102E600002E06D1E002DF4D100BF00202AF81500ED
:102E70000DB90620AFE7002700E07F1C3AF81700E5
:102E80002028FAD01FB93AF817002E2801D146F0B1
:102E9000030600E06D1E25B1681E3AF810002E28CA
:102EA000F8D10B22202109F1200001F066FE4FF03D
:102EB0000008CDF808800820019000BF38467F1C2C
:102EC0003AF8104004B96AE0202C03D02E2C04D12B
:102ED000AF4202D046F00306F0E7DDE90110884278
:102EE00001D2AF4216D101980B2802D146F0030659
:102EF00055E0AF4201D046F00306AF4200D94EE0A4
:102F00002F46082002900B2001904FEA88604FEA7C
:102F10001068D3E7802C0EDB46F0020640F2B511B4
:102F2000204601F0D1F9044604F0800018B104F005
:102F30007F0033490C5CFF2C11DD0198401E029983
:102F4000884204D846F0030601980290B6E72212A0
:102F50000298411C029109F120010A5418E024B1A1
:102F6000214628A0FFF72EFE18B15F2446F0030685
:102F70000EE0412C03DB5A2C01DC48F00208612CE6
:102F800006DB7A2C04DC48F00108A4F1200084B2AE
:102F90000298411C029109F120010C548EE700BFF8
:102FA00099F82000E52802D1052089F82000019831
:102FB000082803D14FEA88604FEA106808F00C0037
:102FC0000C2803D008F00300032801D146F00206C4
:102FD00006F0020048B908F0010008B146F01006FA
:102FE00008F0040008B146F008062B2000F809603C
:102FF0000020F0E6222A3A3C3E3F7C7F00000000A1
:10300000E35100082B2C3B3D5B5D0000014609B1FC
:10301000002070470020FCE7014609B100207047FE
:103020000020FCE710B504460420FEF7D5F801485F
:10303000046010BD1000002030B50446002504E0F7
:103040004FF47A7000F004F86D1CA542F8D330BD3F
:1030500070B5034600224FF0E02675690D4E3668C4
:1030600003FB06F44FF0E026B16910E04FF0E026D4
:10307000B06988420BD0884202D20E1A324402E074
:103080002E1A0E4432440146A24200D300E0EDE77E
:1030900000BF70BD100000202DE9F04104460E462F
:1030A000D4F800800021204600F073FA0546EDB9FF
:1030B000002700BF4046A16901F068FD054605B143
:1030C00013E0E0690078E52802D0E069007820B9D3
:1030D000781C0746B04201D107E0002701212046B5
:1030E00000F0B8F80546002DE4D000BF042D00D153
:1030F00007252846BDE8F0812DE9F04704468946BA
:10310000204601F0A7FF10B10120BDE8F087494635
:103110002046FFF761FD064626634FF4007200214A
:1031200004F1340001F029FD04F1340801270025E1
:1031300000E03D446089A84207D9721960783B4697
:10314000414600F0BBFA0028F3D06089A84201D0C4
:103150000120DAE70020D8E72DE9F0470446D4F84B
:1031600000A00021204600F014FA064616B13046B1
:10317000BDE8F0874FF0FF08C1464FF0FF30E06236
:1031800000BF5046A16901F001FD064606B15EE0B0
:10319000E06905780DB9042659E0E069C07A00F0CD
:1031A0003F07A771E52D04D007F0080038B10F2FB5
:1031B00005D04FF0FF084FF0FF30E06240E00F2FE6
:1031C00022D12B20005D00F0400098BB05F04000AC
:1031D00038B1E06990F80D9005F0BF05A846206968
:1031E000E06245450CD1E069407B484508D1E16982
:1031F000DAF80C00FFF7FEFC10B1A8F1010000E0C6
:10320000FF2000F0FF081BE0B8F1000F05D1E069D6
:1032100001F0C7FE484500D119E02B20005D00F009
:10322000010040B90B2204F12001E06901F086FCA5
:1032300008B90CE004E04FF0FF084FF0FF30E06207
:103240000021204600F006F80646002E99D000BF67
:1032500030468DE72DE9F04104468846276820690D
:1032600000F12006B6F5001F01D30020A061A0697F
:1032700010B90420BDE8F081C6F30800002845D14C
:10328000A069401CA061606938B93889B0EB561F4D
:103290003CD80020A0610420ECE77889401E00EAB9
:1032A000562098BB2046616901F0C6FA0546012DFB
:1032B00001D80220DEE7681C08B90120DAE7B86906
:1032C000A8421DD8B8F1000F03D10020A06104204E
:1032D000D0E720466169FFF7D9FC05460DB9072004
:1032E000C8E7012D01D10220C4E7681C08B90120FC
:1032F000C0E729463846FFF7FFFE08B10120B9E7CD
:10330000656129463846FFF767FCA0612661C6F370
:10331000080107F134000844E0610020AAE72DE924
:10332000F05F044689460426D4F800A04FF0FF0859
:10333000C34653E05046A16901F028FC064606B199
:103340004FE0E06905780DB904264AE0E069C07AEB
:1033500000F03F07A771E52D0AD02E2D08D027F0E9
:103360002000082801D1012000E00020484502D0BB
:103370004FF0FF082BE00F2F1DD105F0400038B1B2
:10338000E06990F80DB005F0BF05A8462069E0623D
:1033900045450CD1E069407B584508D1E169DAF830
:1033A0000C0001F00DFC10B1A8F1010000E0FF20BD
:1033B00000F0FF080BE0B8F1000F04D1E06901F064
:1033C000F0FD584502D04FF0FF30E06209E00021E7
:1033D0002046FFF73FFF064606B102E0A06900283D
:1033E000A8D100BF0EB10020A0613046BDE8F09F1B
:1033F0002DE9FE4F044626682B20005D00F0A0005A
:1034000010B10620BDE8FE8F4FF0000901E009F180
:103410000109F06830F819000028F8D10C2204F1F5
:103420002001684601F09CFB9DF80B0000F00100B4
:1034300028B340212B2001554FF001080EE04346F0
:10344000694604F12000F26801F090F92046FFF788
:1034500083FE054605B104E008F10108B8F1640FE8
:10346000EDD300BFB8F1640F01D10720CAE7042DE6
:1034700001D02846C6E79DF80B102B2001559DF87A
:103480000B0000F0020030B109F10C000D21B0FB7F
:10349000F1F0401C00E00120074639462046FFF7C6
:1034A000FBFD05464DBB781E071E26D02069A0EB0C
:1034B0004711204600F06DF80546F5B904F12000EB
:1034C00001F06FFD824600BF3046A16901F05EFB4E
:1034D000054605B110E0FAB2E1695346F06801F023
:1034E0004FFC0120F07000212046FFF7B3FE054697
:1034F00015B9781E071EE7D100BFC5B93046A169CE
:1035000001F044FB054695B920220021E06901F055
:1035100034FB0B2204F12001E06901F021FB2B2098
:10352000005D00F01800E16908730120F070284682
:1035300068E72DE9F041044626682769E06A401CE7
:1035400008B9002003E02046E16A00F022F80546B1
:10355000E5B900BF3046A16901F018FB054605B189
:1035600010E000BFE520E16908700120F0702069DB
:10357000B84200D306E000212046FFF76BFE054667
:10358000002DE7D000BF042D00D102252846BDE85C
:10359000F0812DE9F04104460D462668B5F5001F7F
:1035A00002D205F01F0010B10220BDE8F0812561B4
:1035B000A7681FB93078032800DBB76A47B930899C
:1035C000B0EB551F01D80220EFE7B06AA0611CE004
:1035D00070894FEA402811E03946204601F02CF965
:1035E0000746781C08B90120DFE7022F02D3B06933
:1035F000B84201D80220D8E7A5EB08054545EBD233
:1036000039463046FFF7E8FAA0616761A06908B95A
:103610000220CAE7A06900EB5520A061C5F30801AC
:1036200006F134000844E0610020BEE770B50446AE
:1036300000251CB9FEF744FC054601E0012500BF4A
:1036400000BF0DB1012070BD0020FCE703462BB97F
:1036500009B9002001E0042000BF00E0012070470C
:103660002DE9F04105460E4617461C464FF000086E
:1036700014B90420BDE8F08195B922463946304698
:10368000FEF736FD804607E0FEF71AFC2246394673
:103690003046FEF72DFD8046B8F1000FF4D102E070
:1036A0004FF0010800BF00BFB8F1000F01D10020AA
:1036B000E0E70120DEE70146002070472DE9F041F8
:1036C00005460E4617461C464FF0000814B9042064
:1036D000BDE8F08195B9224639463046FEF7B6FD81
:1036E000804607E0FEF7ECFB224639463046FEF7FF
:1036F000ADFD8046B8F1000FF4D102E04FF00108B3
:1037000000BF00BFB8F1000F01D10020E0E70120A9
:10371000DEE7024691F8200008B90020704700203B
:1037200081F820000878012801D00020F6E74878C9
:10373000904201D00020F1E7087A08B10020EDE7BF
:10374000487A08B10020E9E70120E7E77CB50446A4
:103750000D46009401956A4608210F2000F024F8D8
:103760000F2000F031FA7CBD31B56A4604210A20F1
:1037700000F01AF80A2000F027FA50B1072404E0FC
:103780002D020548005D0543641E042CF8D228462E
:1037900038BD0020FCE70000CC48002010B50446EE
:1037A0002046FFF7A3F910BD37B582B00546144691
:1037B00000200190C020FFF7F1FF0020FFF7EEFF8F
:1037C0002846FFF7EBFF022103A801F0B9FB042113
:1037D00001A801F0B5FBBDF80C10204601F0B0FBCC
:1037E000C020FFF7DBFF05B030BDFFB585B0064652
:1037F00014461D460E9F04F1100080B20490002074
:10380000009001900290039000940195C020FFF772
:10381000C5FF0020FFF7C2FF3046FFF7BFFF0221C0
:1038200004A801F08DFB042106A801F089FB1021FA
:10383000684601F085FB2146384601F081FBC02037
:10384000FFF7ACFF09B0F0BD2DE9FF4104460D467E
:1038500017461E4600940195029703966A4610216A
:103860000220FFF7A1FF022000F0AEF904B0BDE88E
:10387000F081F8B504460E461546A1B2284600F080
:10388000CFF90746F3B2A2B2394603200095FFF7FD
:10389000ACFF032000F098F9F8BD2DE9FF41044684
:1038A0000D4617461E4600940195029703966A46F8
:1038B00010210520FFF778FF052000F085F904B0FE
:1038C000BDE8F081F8B504460E461546A1B228467B
:1038D00000F0A6F90746F3B2A2B2394607200095D8
:1038E000FFF783FF072000F06FF9F8BD2DE9F047DF
:1038F0000646894614461F4600253019401EB0FB77
:10390000F4F01FFA80F800BF0BE03A462946204643
:10391000FFF7D8FF10B90020BDE8F0872744681CE6
:1039200085B2A8F10100A842EFDC04FB15603A461D
:103930002946FFF7C7FFEFE77CB504460D46009424
:1039400001956A4608210620FFF72EFF062000F0A9
:103950003BF97CBD10B58AB0202102A8FCF7DDFC44
:10396000094800680190042404E0552001A9085585
:10397000601CC4B2242CF8DB01AA24210820FFF724
:1039800013FF0AB010BD0000507800087FB505464F
:103990000C46002000900190029003900095019445
:1039A0006A4610211320FFF7FFFE012004B070BD0E
:1039B0002DE9F04387B004460D4616461F46DDE963
:1039C0000E890194029503960497CDF81480CDF8E2
:1039D000189001AA18210B20FFF7E6FE0B2000F03B
:1039E000F3F807B0BDE8F0832DE9F04391B000256E
:1039F00000BFFFF7AFFF6D1C6420FFF71DFB322DEA
:103A000003D9002011B0BDE8F08346490820FFF734
:103A100080FE0028EDD041F63C7602274FF4C058D6
:103A2000414B424639463046FFF737FF3F4B42464F
:103A300039463046FFF75AFF4FF44076012700BF62
:103A40003B4B424639463046FFF727FF394B42464B
:103A500039463046FFF74AFF3349091D0020FFF77A
:103A60006BFF1C2234490AA8FCF725FC14223249BA
:103A70001C3105A8FCF71FFC14222F493031684681
:103A8000FCF719FC002407E00AA951F82400FFF70D
:103A90006BFE8146601CC4B2072CF5D3002408E0FD
:103AA0005DF8241005AA52F8240000F0A3F8601C69
:103AB000C4B2052CF4D32049443103C9CDE90F0128
:103AC0001D494C3103C9CDE90D011B49543103C9CE
:103AD000CDE90B01002407E00FA951F82400FFF7FE
:103AE00043FE8146601CC4B2022CF5D3002409E0D9
:103AF0000BAA52F824100DAA52F8240000F07AF80C
:103B0000601CC4B2022CF3D34FF6FF704FF48071E7
:103B10000B01421CCDE9001009040020FFF748FF0B
:103B200070E70000CC480020000010401456000848
:103B3000A4ABFF3F50750008647800082DE9F043FE
:103B4000ADF50B7D06460D464FF0000901223146CA
:103B500001A800F0B1F820B100200DF50B7DBDE803
:103B6000F083049C04F58040401E870B4FF480488E
:103B70002B46424639462046FFF766FE11E06B466B
:103B80004FF480420F4901A800F088F949464A1CC9
:103B900002F0FF090B4A0098FFF76BFE08B90020FE
:103BA000DBE704990698884201D1012000E000205B
:103BB0000028E4D001A800F044F821462846FFF789
:103BC000E5FECAE7CC08002070B50546002407E0F2
:103BD0006420FFF731FA641C322C01D9002070BD3B
:103BE00003492846FFF795FD0028F1D00120F6E7AC
:103BF000CC4800207FB504460D46084B0FCB8DE81E
:103C00000F00009401956A4610210920FFF7CCFDB2
:103C10000920FFF7D9FF04B070BD000054780008F8
:103C200010B503460022EF2409B9002010BD002280
:103C300003E0985C4440501C82B28A42F9DB204683
:103C4000F4E738B50546284600F083FA04463CB947
:103C50006946284601F09CFA04460CB90020286009
:103C6000204638BDF7B582B016460398019001A8EA
:103C700000F056FE0546002D02DA0B2005B0F0BD1F
:103C80000C4850F825400CB100202070029810B16B
:103C90000020029908700749029841F825000EB9E2
:103CA0000020EBE7002202A903A800F085FB0746ED
:103CB0003846E3E71C0000202DE9F74F90B004469A
:103CC00016461CB9092013B0BDE8F08F06F03F0678
:103CD000324603A911A800F06FFB0546002D7DD1E7
:103CE0000398049004A8119900F0F0FC05462DB942
:103CF0009DF83B0000F0800000B1062506F01C0096
:103D0000002850D045B1042D03D104A8FFF770FB63
:103D1000054646F008060AE09DF8160000F011007E
:103D200008B1072503E006F0040000B10825002DC6
:103D30004AD106F00800002846D00B99039800F0FD
:103D400016FE814600F0E8FD01900B9901F10E008E
:103D5000019901F014F920200B99C87200220B99E7
:103D6000039801F0FAF80B9901F11C00002101F011
:103D700006F901200399C870B9F1000F24D0039807
:103D8000006B02900022494604A801F039F805466C
:103D9000D5B9DDE9021000F0F9FE0546A9F10100F0
:103DA0000399086110E07DB99DF8160000F010003D
:103DB00008B1042508E006F0020028B19DF81600BD
:103DC00000F0010000B107255DB906F0080008B158
:103DD00046F040060398006B206200E04BE00B9831
:103DE0006062002D55D10B99039800F0C0FDA060D2
:103DF0000B9901F11C0000F0CDFDE06003982060FC
:103E00000398C088A080267400206074E06160611F
:103E10004FF40072002104F1280000F0AEFE06F01D
:103E2000200040B3E06830B3E068606103984089E7
:103E30004FEA402AA768D4F80C800CE039462046A7
:103E400000F0FAFC0746012F00D80225781C00B9C3
:103E50000125A8EB0A080DB9D045EFD8A76155B9DF
:103E6000C8F3080038B139460398FEF7B5FEB0F143
:103E7000000B01D102250CE00BEB5820E061E26958
:103E800003994878012304F12801FFF7E9FB00B109
:103E900001250DB100202060284614E72DE9FF4FD1
:103EA00085B0044615469A46DDF818B00020CAF8D9
:103EB000000003A9204601F06BF90490049810B9A2
:103EC000607C049018B1049809B0BDE8F08F207CA4
:103ED00000F0010008B90720F6E76169E068401AC0
:103EE00001900198854200D9019DA0E0A08AC0F30D
:103EF000080000287ED103984089401E616900EACD
:103F00005129B9F1000F17D1606910B9A06802906A
:103F100004E02046A16900F08FFC0290029802287C
:103F200002D202206074CFE70298401C10B9012031
:103F30006074C9E70298A061A1690398FEF74CFE7E
:103F4000064616B902206074BEE74E444FEA552873
:103F5000B8F1000F29D009EB08000399498988427C
:103F600003D903984089A0EB090803994878434690
:103F700032465946FFF774FB10B101206074A3E785
:103F8000207C00F0800068B1E069801B404509D2C8
:103F9000E169891B0BEB41204FF4007204F1280109
:103FA00000F0DEFD4FEA482737E0E069B04220D05C
:103FB000207C00F0800078B1E26903994878012301
:103FC00004F12801FFF77AFB10B1012060747BE750
:103FD000207C00F07F00207403994878012332464A
:103FE00004F12801FFF73CFB18B1012060746BE776
:103FF00000E0E661A08AC0F30800C0F50077AF4298
:1040000000D92F46A08AC0F3080204F12800111835
:104010003A46584600F0A4FD00BFED1BDAF8000058
:104020003844CAF80000BB44606938446061002D20
:104030007FF45CAF002047E7F3B5A1B022A800F001
:104040006FFC022208A921A800F0B6F90446002C52
:104050007CD10898159015A8219900F037FB0446EB
:104060002CB99DF87F0000F0A00000B10624002CC0
:104070006CD1202268461C9900F072FD302215A9EF
:1040800009A800F06DFD09A8229900F01FFB044665
:104090005CB917990B98884205D119990D988842F7
:1040A00001D1042000E008200446042C44D109A8D2
:1040B000FFF79EF90446002C3ED1109D13220DF10E
:1040C0000D0105F10D0000F04BFD9DF80B00E872AD
:1040D000E87A00F0100018B9E87A40F02000E872A1
:1040E00001200899C870E87A00F0100020B30B99FD
:1040F0001798884220D02946089800F038FC0746D7
:1041000039460898FEF768FD06460EB9022413E00A
:104110003146089800F03AFD0446089800F154052D
:1041200054B968782E2807D129460B9A089800F0D0
:1041300014FF01200899C87044B915A8FFF7F9F9D0
:1041400004461CB9089800F03DFF0446204623B001
:10415000F0BDF8B504466946204601F019F8064658
:10416000002E44D1207C00F0400000283FD0207C6D
:1041700000F0800070B1E26900994878012304F1F1
:104180002801FFF79BFA08B10120F8BD207C00F060
:104190007F00207400F0C0FB0746216A009800F001
:1041A000F5FC06461EBB656AE87A40F02000E8721E
:1041B0002946A268206800F0D0FE05F11C00E168E5
:1041C00000F0DDFE394605F1160000F0D8FE0021B2
:1041D00005F1120000F0DFFE01200099C870009880
:1041E00000F0F0FE0646207C00F0BF002074304650
:1041F000CBE731B59AB00025022201A91AA800F038
:10420000DBF80446002C46D101980E900EA81A99AE
:1042100000F05CFA044600BF002C3CD19DF863001E
:1042200000F0800008B1062405E09DF83E0000F093
:10423000010000B10724E4B91599019800F097FB3B
:1042400005469DF83E0000F0100090B101980290E4
:104250000495002102A8FFF79CF904464CB90021FF
:1042600002A8FFF75CF8044604B90724042C00D127
:10427000002484B90EA8FFF75CF9044634B92DB1C7
:10428000002229460EA800F0BBFD04461CB9019887
:1042900000F098FE044620461BB030BD10B5024623
:1042A0000020084B802A01DA104609E040F2B514DC
:1042B000A14205D1FF2A03DCA2F1800433F81400E7
:1042C00010BD00006452000810B5024600200D4BDE
:1042D000802A01D290B213E0B2F5803F10D240F2B2
:1042E000B514A1420CD1002001E0441CA0B28028EA
:1042F00003DA33F810409442F7D100F18004E0B2C1
:1043000010BD00006452000870B5B0F5803F4DD27A
:1043100081B2B1F5805F01DA254E00E0254E3246CC
:1043200000BF32F8023B0BB1994200DA3CE032F8B0
:10433000024B2512E4B21E198E4230DD092D2CD21B
:10434000DFE805F005090F13171B1F232700CE1AFE
:1043500032F8161021E0CE1A06F001068E1BB1B21B
:104360001BE0A1F11006B1B217E0A1F12006B1B235
:1043700013E0A1F13006B1B20FE0A1F11A06B1B21B
:104380000BE001F10806B1B207E0A1F15006B1B2AD
:1043900003E0A1F5E356B1B200BF00BF04E0002D79
:1043A000BFD102EB4402BCE700BF084670BD00006D
:1043B00064530008565500082DE9F74F8AB00021D4
:1043C0000B9801600A9800F0ABFA08900898002852
:1043D00003DA0B200DB0BDE8F08FB649089851F80C
:1043E00020400CB90C20F5E70B9804600C9800F005
:1043F000FE000C90207878B16078FFF75CF9814678
:1044000009F0010040B90C9820B109F0040008B18E
:104410000A20DFE70020DDE70020207008986070A8
:104420006078FFF703F9814609F0010008B1032025
:10443000D0E70C9820B109F0040008B10A20C9E7C0
:10444000002739462046FEF77FFB0546022D01D0A6
:104450002EDA2DE0002614E04FF4DF7000EB061199
:1044600004F13400084409900998007920B10998B2
:10447000083000F08FFA00E0002002A941F8260081
:10448000761C042EE8D3002606B1761E00BF02A8D3
:1044900050F8267027B139462046FEF755FB00E05C
:1044A00003200546022D03DB701C06460428EED3CC
:1044B000042D01D101208DE7022D01DB0D2089E7BC
:1044C00004F13F0000F072FAB0F5007F01D00D203A
:1044D00080E704F14A0000F069FA8046B8F1000F65
:1044E00004D104F1580000F055FA8046C4F81C804D
:1044F0004420005DA070A078012804D0A078022894
:1045000001D00D2066E7A07808FB00F84120005D8F
:104510006081608918B16089411E084008B10D2092
:1045200058E704F1450000F041FA2081207A00F0BC
:104530000F0008B10D204DE704F1470000F036FAF6
:104540008346BBF1000F04D104F1540000F022FABD
:10455000834604F1420000F029FA0190019808B95D
:104560000D2037E701984044218900EB1110079096
:104570000798834501D20D202CE70798ABEB00008C
:104580006189B0FBF1FABAF1000F01D10D2021E7EA
:1045900000254948824500D803254FF6F57082452D
:1045A00000D8022540F6F570824500D801250DB9E6
:1045B0000D200FE70AF10200A0612762019838443C
:1045C000606207983844E062032D13D104F15E0065
:1045D00000F0ECF908B10D20FCE6208908B10D20AF
:1045E000F8E604F1600000F0D5F9A062A06980004F
:1045F000069014E0208908B90D20EBE6606A40447B
:10460000A062022D02D1A069400007E0207E00F0E8
:104610000100A16901EB410100EB51000690E16945
:10462000069800F2FF10B1EB502F01D20D20D1E619
:104630004FF0FF306061206180202071032D2CD16C
:1046400004F1640000F0B2F9012826D1791C20465B
:1046500000F09CFA08BB0020207104F2322000F028
:10466000A5F94AF65521884217D104F1340000F02B
:1046700091F91249884210D104F5067000F08AF9C8
:104680000F49884209D104F5077000F083F9606191
:1046900004F5087000F07EF9206125700948008853
:1046A000401C80B207490880E0800748E060002095
:1046B00090E600001C000020F5FFFF0F5252614100
:1046C0007272416120000020CC0600202DE9F341E8
:1046D0000446276802E00198401C01900198007888
:1046E0002F28F8D0019800785C28F4D00020A06032
:1046F00001980078202808D280212B200155002124
:104700002046FEF746FF05462CE000BF01A92046E3
:10471000FEF74CFB054605B123E02046FEF71CFDE5
:1047200005462B20065D3DB1042D04D100BF06F0E7
:10473000040000B9052514E006F0040000B110E003
:10474000A07900F0100008B905250AE0208AC0F31E
:10475000080207F134001118384600F008F9A0608B
:10476000D4E700BF2846BDE8FC8100002DE9FF4FDB
:1047700083B0804691461E460B224046049900F0C5
:10478000EFF9052E18D9374611E039F802BB00259C
:104790000BE0584667F35F0007464FEA6B0B07F4E0
:1047A000803008B1234847406D1C102DF1D3B9F873
:1047B00000000028E9D13E46072500BF06F00F00A3
:1047C00000F1300ABAF1390F03DD0AF1070000F0F9
:1047D000FF0A28466D1E01A901F800A03609002E27
:1047E000ECD17E20485500240AE018F80400FEF7BA
:1047F0000DFC20B1681EA04200D107E0641C641CBF
:10480000AC4203D218F804002028EED100BF00BF4C
:10481000082D04D228466D1C01A9085C00E0202068
:104820002146641C08F80100082CF1D307B0BDE84C
:10483000F08F0000211001002DE9F04781460C4661
:10484000D9F80050022C02D3A869A04202D84FF038
:1048500001085EE04FF0FF382878012804D00228D4
:104860002CD0032851D13CE0264606EB5606686A58
:1048700000EB5621284600F089F900B148E03046A7
:10488000761CC0F3080105F13400475C686A00EB50
:104890005621284600F07AF900B139E0C6F3080144
:1048A00005F13400405C47EA002704F0010008B13C
:1048B000380901E0C7F30B00804629E0686A00EB85
:1048C0001421284600F062F900B121E040F2FF1106
:1048D00001EA440205F13401501800F067F88046FF
:1048E00016E0686A00EBD411284600F04FF900B1D9
:1048F0000EE040F2FF1101EA840205F13401501884
:1049000000F048F820F0704802E04FF0010800BFC6
:1049100000BF4046BDE8F08700487047C070D94CE2
:1049200070B504464FF0FF3026683146324601B973
:1049300070BD00BF12F8013B202B01D33A2BF9D1F7
:104940003A2B11D101250E78302E08DB0E78392E46
:1049500005DC8E1C964202D10E78A6F13005012DA1
:1049600001DA28462260E3E7002000BFE0E770B5E7
:1049700005460C4604F11A0000F018F8064628789F
:10498000032805D104F1140000F010F846EA0046AF
:10499000304670BD0146C8788A7842EA00204A78DD
:1049A00042EA00200A7842EA00207047014648782F
:1049B0000A7842EA00207047ADF50A7DFBF736FF22
:1049C0000723022208214FF4A870FDF7BFFDA8209D
:1049D000FEF728FBC820FEF72FFB4148006840F097
:1049E00001003F4908600220032100230122CDE994
:1049F000001001033B48FBF777FD01223AA13B4839
:104A0000FFF730F900285BD1002239A16846FFF793
:104A100053F920B944F002046846FFF712F9002266
:104A200036A16846FFF748F920B944F00404684607
:104A3000FFF707F9002235A16846FFF73DF920B9D5
:104A400044F008046846FFF7FCF804F0040058B18D
:104A500000F04CFB04F0020030B92FA0FFF7C9FBB7
:104A60002DA126A0FFF7E8FA04F00800002826D0C0
:104A700042F2CF0140F2DB50FDF784FEFBF7CAFCA7
:104A8000FEF7B2FFB8B14FF4E1312748FEF75EFE02
:104A900025492A20FDF774FF00211CA0FFF74EF8DE
:104AA00048B104F0020030B920A0FFF7A2FB1FA11B
:104AB00016A0FFF7C1FAFBF791FCFDF737FE00BF28
:104AC0001D48406800F07F40B0F1006F05D1FBF752
:104AD000A1FCFBF783FC00F0E1F900BFFEE700005A
:104AE0003038024000000240303A00002C00002024
:104AF00061646D696E2E7478740000006669726D71
:104B0000776172652E62696E000000006573703314
:104B1000642E62696E0000004649524D574152456D
:104B20002E4355520000000090D00300657370338F
:104B3000642E43555200000000800008F0B5034683
:104B40001D460C46002000BF15F8017B14F801CB70
:104B5000A7EB0C00561E321E01D00028F4D0F0BD89
:104B600030B503460C463AB100BF14F8015B03F8B8
:104B7000015B551E2A1EF8D130BD10B5034600BF9B
:104B800003F8011B541E221EFAD110BD70B5044655
:104B90000D460026206BA84210D0204600F05AFA9D
:104BA00006465EB9607801232A4604F13401FEF717
:104BB00057FD10B14FF0FF3501262563304670BD1B
:104BC0002DE9F04780460C4604F11A00FFF7EEFE8F
:104BD00010B10020BDE8F087207820F04000401E92
:104BE00000EB800101EBC0054FF00109002619E040
:104BF0001449895D0819FFF7D9FE0746B9F1000F7E
:104C000009D0FF2D01D30020E4E7B94628466D1CEA
:104C100028F8107005E04FF6FF70874201D00020A1
:104C2000D8E7761C0D2EE3D3207800F0400030B199
:104C3000FF2D01D30020CDE7002028F8150001202A
:104C4000C8E70000D65100082DE9F04704460D469C
:104C500016464FF00209022D74D3A069A84271D9FB
:104C60002078012804D0022849D003280DD15EE025
:104C70002F4607EB5707606A00EB57212046FFF7E6
:104C800085FF8146B9F1000F00D075E038467F1CE2
:104C9000C0F3080104F1340001EB000805F0010045
:104CA00028B1F1B298F8000061F31F1000E030461F
:104CB00088F800000120E070606A00EB5721204670
:104CC000FFF764FF8146B9F1000F00D054E0C7F34D
:104CD000080104F1340001EB000805F0010010B1F7
:104CE000C6F3071006E098F8000000F0F000C6F3E5
:104CF0000321084388F800000120E0703CE0606A6E
:104D000000EB15212046FFF741FF8146B9F1000F66
:104D100000D031E0B1B240F2FF1202EA450304F1E3
:104D20003402981800F037F90120E07024E0606A3E
:104D300000EBD5112046FFF729FF8146B9F1000F9E
:104D400001D019E019E040F2FF1101EA850204F1F7
:104D500034015018FFF71EFE66F31B00064640F2B2
:104D6000FF1101EA850204F134015018314600F0C8
:104D700006F90120E07000BF00BF4846BDE8F0879B
:104D80002DE9F04707460C461546984684F80D80F5
:104D90000F20E07200202073002104F11A0000F0BF
:104DA000FAF8681E00EB800101EBC00900200646FE
:104DB000824600BF4FF6FF70864204D0484609F194
:104DC000010937F810600D4911F80A100819314629
:104DD00000F0E1F80EB94FF6FF760AF101008246C5
:104DE0000D28E7D34FF6FF70864202D037F819003E
:104DF00008B945F040052570BDE8F087D651000898
:104E00002DE9F04781460E4617464FF00008D9F8C5
:104E10000040022E02D3A069B04202D80220BDE8B1
:104E2000F08767B100BF4FF0FF3239462046FFF7E9
:104E30000BFF8046B8F1000F01D04046EFE700BFFE
:104E400031464846FFF7F8FC054605B922E0012D3A
:104E500001D10220E3E7681C08B90120DFE7002246
:104E600031462046FFF7F0FE8046B8F1000F01D032
:104E70004046D4E7D4E90510801E814206D260691D
:104E8000401C6061207940F0010020712E46A0692D
:104E9000B042D5D800BF0020C1E7000010B51948C6
:104EA000006840F00100174908600846006840F0BB
:104EB0000200086013481030006840F002001149F9
:104EC000103108600F48006820F001000D490860AB
:104ED0000846006820F0020008600A4810300068A8
:104EE00020F0020007491031086007484068074970
:104EF000086005490868FBF7BAF90448006880476C
:104F000010BD00001038024000800008240000207E
:104F100010B50446C02C06D1DB20FEF73FFCDC2098
:104F2000FEF73CFC0BE0DB2C06D1DB20FEF736FC69
:104F3000DD20FEF733FC02E02046FEF72FFC10BD1B
:104F400070B505460E46002404E0285DFFF7E0FF3B
:104F5000601C84B2B442F8DB70BD70B506460C46E6
:104F60001546A9B204F11A0000F015F830780328AC
:104F700004D1290C04F1140000F00DF870BD00F804
:104F8000011B090A00F8011B090A00F8011B090AA4
:104F900000F8011B704700F8011B091200F8011B03
:104FA000704730B5014600200B2200BF431003EBD1
:104FB000C01411F8015B6319D8B2531E1A1EF5D143
:104FC00030BD000070B50446204600F043F80546A9
:104FD000002D38D1207803282ED1207901282BD11B
:104FE0004202002104F13400FFF7C7FD4AF65521C3
:104FF00004F23220FFF7CFFF144904F13400FFF729
:10500000BEFF134904F50670FFF7B9FF04F50770FA
:105010006169FFF7B4FF04F508702169FFF7AFFF7E
:10502000206A401C20636078012304F13401226B64
:10503000FEF744FB00202071607800221146FEF745
:1050400005FB00B10125284670BD000052526141A8
:105050007272416170B504460025E078E8B160786D
:10506000012304F13401226BFEF728FBA0B90020D4
:10507000E070616A206B401AE16988420DD2A07825
:1050800002280AD1E369216BCA186078012304F170
:105090003401FEF713FB00E00125284670BD2DE921
:1050A000F0410646356815F8014B2046FDF7AEFF86
:1050B00060B115F8017B3846FDF7AEFF18B94FF027
:1050C000FF30BDE8F08107EB042084B24CB140F220
:1050D000B5112046FFF7E2F8044614B94FF0FF304F
:1050E000EFE7A04635604046EBE7000030B5ADF590
:1050F0000B7D0024002501221EA101A8FEF7DCFD86
:1051000018B100200DF50B7D30BD1E4904980844F0
:10511000B0F1016F01D30020F4E71CE0032D06D9A4
:105120001948406980F400501749486100256D1CFA
:105130006B464FF40062154901A8FEF7AFFE00B1BF
:1051400012E00099C91C8A080E4960180F49FDF742
:105150007FF90098044404990698884201D10120FF
:1051600000E000200028D9D000BF01A8FEF769FDAB
:105170000120C7E76669726D776172652E62696E9C
:10518000000000000080000800000240F0480020FD
:1051900070B504460D4609268CB1206878B12068A8
:1051A000007860B1A0882168C988884207D1216849
:1051B0004878FEF780FA00F0010000B900260EB929
:1051C000206800E000202860304670BD4FF040703D
:1051D000E1EE100A704701030507090E10121416BC
:1051E000181C1E809A45418E418F8045454549498E
:1051F000498E8F9092924F994F555559999A9B9CF1
:105200009D9E9F41494F55A5A5A6A7A8A9AAABACAD
:10521000ADAEAFB0B1B2B3B4B5B6B7B8B9BABBBC46
:10522000BDBEBFC0C1C2C3C4C5C6C7C8C9CACBCC36
:10523000CDCECFD0D1D2D3D4D5D6D7D8D9DADBDC26
:10524000DDDEDFE0E1E2E3E4E5E6E7E8E9EAEBEC16
:10525000EDEEEFF0F1F2F3F4F5F6F7F8F9FAFBFC06
:10526000FDFEFF00C700FC00E900E200E400E000F2
:10527000E500E700EA00EB00E800EF00EE00EC00DC
:10528000C400C500C900E600C600F400F600F20044
:10529000FB00F900FF00D600DC00A200A300A5007F
:1052A000A7209201E100ED00F300FA00F100D10027
:1052B000AA00BA00BF001023AC00BD00BC00A100D2
:1052C000AB00BB009125922593250225242561255D
:1052D0006225562555256325512557255D255C25D5
:1052E0005B251025142534252C251C2500253C255F
:1052F0005E255F255A25542569256625602550259C
:105300006C2567256825642565255925582552256E
:1053100053256B256A2518250C25882584258C2581
:1053200090258025B103DF009303C003A303C303CB
:10533000B500C403A6039803A903B4031E22C60341
:10534000B50329226122B100652264222023212392
:10535000F7004822B0001922B7001A227F20B200BD
:10536000A025A00061001A03E0001703F80007035E
:10537000FF0001007801000130013201060139010E
:1053800010014A012E017901060180014D004302FE
:1053900081018201820184018401860187018701E4
:1053A00089018A018B018B018D018E018F01900192
:1053B0009101910193019401F601960197019801E1
:1053C00098013D029B019C019D0120029F01A001CB
:1053D000A001A201A201A401A401A601A701A701A5
:1053E000A901AA01AB01AC01AC01AE01AF01AF0153
:1053F000B101B201B301B301B501B501B701B80103
:10540000B801BA01BB01BC01BC01BE01F701C0017A
:10541000C101C201C301C401C501C401C701C80162
:10542000C701CA01CB01CA01CD011001DD01010094
:105430008E01DE011201F3010300F101F401F40118
:10544000F8012801220212013A020900652C3B02F0
:105450003B023D02662C3F024002410241024602ED
:105460000A015302400081018601550289018A0127
:1054700058028F015A0290015C025D025E025F02D7
:10548000930161026202940164026502660267028E
:10549000970196016A02622C6C026D026E029C01F9
:1054A000700271029D01730274029F0176027702FD
:1054B000780279027A027B027C02642C7E027F02EF
:1054C000A60181028202A901840285028602870266
:1054D000AE014402B101B20145028D028E028F027B
:1054E00090029102B7017B030300FD03FE03FF035B
:1054F000AC0304008603880389038A03B103110304
:10550000C2030200A303A303C4030803CC030300E4
:105510008C038E038F03D8031801F2030A00F903EA
:10552000F303F403F503F603F703F703F903FA03B0
:10553000FA033004200350041007600422018A0497
:105540003601C1040E01CF040100C004D00444019F
:105550006105260400007D1D0100632C001E9601DC
:10556000A01E5A01001F0806101F0606201F08066D
:10557000301F0806401F0606511F0700591F521F03
:105580005B1F541F5D1F561F5F1F601F0806701FA3
:105590000E00BA1FBB1FC81FC91FCA1FCB1FDA1FAF
:1055A000DB1FF81FF91FEA1FEB1FFA1FFB1F801FED
:1055B0000806901F0806A01F0806B01F0400B81FA9
:1055C000B91FB21FBC1FCC1F0100C31FD01F020692
:1055D000E01F0206E51F0100EC1FF31F0100FC1F86
:1055E0004E2101003221702110028421010083210B
:1055F000D0241A05302C2F04602C0201672C0601E0
:10560000752C0201802C6401002D260841FF1A032D
:1056100000000000A810004001FFFF464500000008
:105620000080FE3F4F484149A4ABFF3F0CABFE3F1B
:1056300080800000C41910400C00006000000001D0
:105640000000010000100000FFFF00008C8000003F
:10565000104000000000FFFF004000000080FE3FFF
:105660009C2BFF3FA02BFF3F102700001400006081
:10567000FFFF0F00A4ABFF3FA4ABFF3FA42BFF3FF6
:10568000B4ABFF3F0080000020290000F88DFE3FF2
:105690005880FE3FA8ABFF3F98AEFF3F989BFE3F70
:1056A00084AEFF3F801B0000A00D0000000800003A
:1056B00020090000500E000050120000ACABFF3F6C
:1056C000B0ABFF3F1F2900003CA9FE3F08AEFF3FE3
:1056D0008CADFF3F800B00000CADFF3F8CACFF3F5B
:1056E000B0150000F1FF000000ABFE3F00A9FE3F37
:1056F000BC0F0040880F0040A80F0040583F0040FA
:105700002C4C0040303B004078480040004A0040AC
:10571000B4490040CC2E00401CE20040D839004083
:1057200068E2004048DF004090E100404C26004025
:105730008449004021BCFF92A1109011C022612336
:1057400022A000026143C26142D26141E26140F2A3
:10575000613F01E7FFC0000021B2FF31B3FF0C043D
:105760000601000049024B223732F822A08C2A2180
:105770000C4305B10121AEFFC1ADFF31AEFF2A2CB4
:10578000C02000C90242A00022A00501DAFFC0002B
:105790000021A9FF32A101C020004802303420C0FE
:1057A000200039022C0201D4FFC0000001D4FFC048
:1057B000000031A2FF41A2FF51A3FF71A3FF0C0221
:1057C00062A10001CFFFC0000031A0FF2198FF3A85
:1057D00032C0200028031672FFC02000C8030C024C
:1057E000C0200029030C13324184320C01225143A2
:1057F000324185226122669318220C03320C02800A
:105800002211302220664209282CC02000280222C2
:10581000612222A0C001BBFFC0000022A084102290
:105820008032A00845A301F20C03220C0280FF1174
:1058300020FF202187FFF7B217059D0122A0EE016E
:10584000B1FFC0000022A0C001AFFFC00000C6DD54
:10585000FF320C010CD2279302C685003732516605
:105860006302869E00F67323663302465D00F643AC
:105870000A662302864C00069D000000664302462D
:105880007100665302C68300C69800000C922793ED
:1058900002067A00373208667302C68000869300DB
:1058A0006693024678000CB2279302466D00468F3D
:1058B000001C32279302C6390037322866B30286AD
:1058C00040001C0237320A0CF2279302062E000613
:1058D00087001C122793024642001C22279302468F
:1058E000590046820022A0D127132C37320922A06A
:1058F000D0271318C67D000022A0D2279302862548
:105900000022A0D32793028692054678000C1DCC76
:105910001FC65C0506740000668F02465D050671B1
:1059200000000179FFC00000EAED9C12866D0000C6
:10593000202C410176FFC0000056921AD2DDF0D033
:105940002EC08C4D2030F45653FEDAF2E13DFF06B6
:10595000040000002020F5016EFFC0000056521820
:10596000E0DDC0D02FC0D73EEADAE2060400000036
:10597000202C410166FFC00000569216D2DDF0D007
:105980002EC056ADFEC657000C0ED2A0C0268F0208
:10599000465800866205000066BF02866005063B29
:1059A0000066BF02863F05C64E000C1D26BF02469C
:1059B0004D00384C2129FF0C0ED2A0C227130286BD
:1059C0004C00463B050C1466BF12384C2123FF0CDB
:1059D0000ED2A0C2271302864600C63A05DD044651
:1059E00041000000211EFF0C0E320200D2A0C6E7CB
:1059F0009302C63F00382CD852F2CFF0F033C022C9
:105A0000A0C030D29332CC1822A0EF460200EA4365
:105A10004204001BEE402230F72EF2520C05620CBD
:105A200004420C06805511320C07605520004411C9
:105A30005044208033014033203022C032A0C10CBA
:105A40000E20D393462B00002105FFD2A0C63202C0
:105A5000001633093832D2A0C856B308324200D8F3
:105A600052C620001C82279F024620050C0E0C1DEA
:105A700046200000664F02462405061A0066BF0253
:105A8000062505C601000000664F028624050C0E9F
:105A9000D2A0C0861700000066BF0246220506118C
:105AA0000041EFFEF2CFF07804CC37D2A0C6FC6FF5
:105AB00031EDFED2A0C96803F7362CF02014D2A035
:105AC000C092CC188C928607002A8988084B2289BC
:105AD000052A572086C0F732EF59048903460C0582
