:020000040800F2
:10000000F0510020E1010008A70E0008DF0D0008F4
:10001000A50E000871020008B51E000800000000CF
:10002000000000000000000000000000151B000898
:100030007302000800000000A90E0008651B0008FC
:10004000FB010008FB010008FB010008FB010008A0
:10005000FB010008FB010008FB010008FB01000890
:10006000FB010008FB010008FB010008FB01000880
:10007000FB010008FB010008FB010008FB01000870
:10008000FB010008FB010008FB010008FB01000860
:10009000FB010008FB010008FB010008FB01000850
:1000A000FB010008FB010008FB010008FB01000840
:1000B000FB010008A91C0008FB010008FB01000867
:1000C000FB010008FB010008FB010008FB01000820
:1000D000FB010008211D0008FB010008551E000857
:1000E000FB010008FB010008FB010008FB01000800
:1000F000FB010008FB010008FB010008FB010008F0
:10010000FB010008FB010008FB010008FB010008DF
:10011000FB010008FB010008FB010008FB010008CF
:10012000FB010008FB010008FB010008FB010008BF
:10013000FB0100080000000000000000FB010008B7
:10014000FB010008FB010008FB010008FB0100089F
:10015000FB010008FB010008FB010008FB0100088F
:10016000FB010008FB010008FB010008FB0100087F
:10017000FB010008FB010008FB0100080000000073
:1001800000000000FB01000800000000000000006B
:10019000FB0100080000000000000000FB01000857
:1001A000000000000000000000000000FB0100084B
:1001B000FB010008FB010008FB010008FB0100082F
:1001C000FB010008DFF80CD000F040F800480047C1
:1001D0002D390008F051002080F308887047000096
:1001E0000648804706480047FEE7FEE7FEE7FEE7D1
:1001F000FEE7FEE7FEE7FEE7FEE7FEE7351C000848
:10020000C501000840EA01039B0703D009E008C9C3
:10021000121F08C0042AFAD203E011F8013B00F8CB
:10022000013B521EF9D27047D2B201E000F8012B17
:10023000491EFBD270470022F6E710B513460A4666
:1002400004461946FFF7F0FF204610BD064C074D47
:1002500006E0E06840F0010394E807009847103496
:10026000AC42F6D3FFF7B2FF80660008A066000834
:10027000FEE7704770B509480124C0F89C42084D5C
:100280000020C5F89C020A2005F5277502F06AF8DF
:100290002C60BDE87040642002F064B800804142E8
:1002A000000043427CB51948016841F048010160F3
:1002B00001240325CDE9005400232246802114485F
:1002C00000F03EF8CDE900540023012280211148BE
:1002D00000F036F8104EC6F89C42104DC5F89C420E
:1002E0004FF4E1312A2005F5277506F5277601F050
:1002F00043FD002030602860642002F033F82C6059
:10030000BDE87C404FF47A7002F02CB830380240DF
:10031000000C0240001802400080414200004342AD
:10032000CB0810B500EB8300036A4907C90E0F2400
:100330008C40A3430362036A8A401343036210BDE7
:100340002DE9F04F0024DDE909EA9B4601254FF035
:10035000030900BF05FA04F301EA03069E4238D1FF
:10036000D0F800C0660009FA06F72CEA070CC0F8BE
:1003700000C0D0F800C002FA06F84CEA080CC0F839
:1003800000C0012A01D0022A1BD1D0F808C02CEAF3
:10039000070CC0F808C0D0F808800EFA06FC48EA3E
:1003A0000C08C0F80880D0F804C02CEA030CC0F890
:1003B00004C0D0F804C00BFA04F34CEA030CC0F8F4
:1003C00004C0C368BB43C360C7680AFA06F31F438F
:1003D000C760641C102CBDD3BDE8F08F70B5044617
:1003E00000F0E0F80546601C02D0044800780444A0
:1003F00000F0D8F8401BA042FAD370BD04000020E2
:100400002DE9F84FDFF874B100224FF001084FF0EA
:10041000030A4FF00F090BF1040E00BF0B6808FA36
:1004200002F42340A3426ED14D68022D01D0122D5B
:100430000ED1D50800EB850CDCF820505607F70EDE
:1004400009FA07F6B5430E69BE402E43CCF820608A
:10045000066855000F790AFA05FC07F0030726EA3B
:100460000C06AF40374307604E68012E05D0022EC0
:1004700003D0112E01D0122E0ED18668CF6826EA45
:100480000C06AF40374387604668A6430C79C4F337
:100490000014944034434460C4688E6824EA0C0419
:1004A000AE402643C6604C68E40060D5344C2568F5
:1004B00045F480452560246822F0030504F4804457
:1004C0000094304C2E19D6F8084895072F0F09FADA
:1004D00007F5AC432C4DA84201D100251FE02B4D60
:1004E000A84201D101251AE0294DA84201D10225D7
:1004F00015E0284DA84201D1032510E0264DA84261
:1005000002D104250BE032E0244DA84201D105259B
:1005100005E0234DA84201D1062500E00725BD4096
:100520002543C6F80858DBF800405D464E689C43FA
:10053000F60300D51C432C60DEF8004075464E687B
:100540009C43B60300D51C432C600C4D08352C6829
:100550004E689C43F60200D51C432C60074D0C35B9
:100560002C684E689C43B60200D51C432C60521C7C
:10057000102AFFF453AFBDE8F88F0000003C0140A3
:1005800044380240003001400000024000040240B4
:1005900000080240000C024000100240001402401B
:1005A00000180240014880687047000004000020E5
:1005B000024881680278114481607047040000207D
:1005C000094810B5016841F400710160016841F407
:1005D00080710160052000F061F80F2000F006F83E
:1005E00000F024F8002010BD003C024070B50D4D15
:1005F00004464FF47A712878B1FBF0F00A49096893
:10060000B1FBF0F000F0D7FB48B9102C07D2002264
:100610002146501E00F022F800206C6070BD0120C1
:1006200070BD000004000020000000200A4808B54A
:10063000016841F480410160006800F4804000904E
:100640000548001F016841F080510160006800F01A
:100650008050009008BD000044380240F0B40E4BBA
:100660001B680C46C3F30223C3F10705042D00D910
:100670000425191D072901D2002300E0DB1E0126F5
:1006800006FA05F1491E214099409E40761E16400B
:100690003143F0BC01F00FBC0CED00E0064900F066
:1006A000070208684FF6FF03184040EA0220034A99
:1006B00010430860704700000CED00E00000FA05F0
:1006C000FEB5044603200D4684F83400606C032810
:1006D00020D0B5F5805F1DD0B5F5006F05D045B1D0
:1006E000A06B40F00060A06309E0204601F0AFF885
:1006F00002E0204601F084F8A16B0143A163A06BE6
:10070000012658B1216840F2FF50886384F83460B4
:100710000120FEBDA06B40F08050E4E7211DD4E92C
:1007200005700EC90095CDE90170206800F0D9FB75
:1007300084F834600020FEBDF0B5426E120E9309BD
:100740000B70C2F383034B7002F003028A70426E97
:10075000120CCA70B0F86420120A0A7190F8642072
:100760004A71826E4FF6FF73120E03EA0212CA80BC
:10077000826ECB88C2F3074243EA1213CB8002F0A9
:100780000F020A72B0F86820C2F30722D3094B7235
:10079000C2F380138B72C2F34013CB72C2F3001307
:1007A0000B7300264E73446C4FF4007701236CB139
:1007B000012C43D0026840F2FF519163816B41F0FC
:1007C0008051816380F834300120F0BD9207120D12
:1007D0000A6190F868200C6944EA82020A61C26EDC
:1007E0000C69120E44EA92140C61C2F3C2040C7537
:1007F00002F007024A75C26EC2F3074254098C75B3
:10080000C2F38204CC759207520F0A76B0F86C20BE
:10081000C2F307240A7E42EAD4120A760A69521CFD
:1008200042650D7EAD1CAA4042650D7A03FA05F5BE
:1008300085656D0A6A43C0E917271CE090F86820B7
:100840009206920A0A61C26E0C69120E44EA0222F2
:100850000A61C26E0C69C2F3074214430C61B0F81E
:100860006C20C2F307240A69521C4FEA82224265B7
:10087000C0E916720766C4F3801201F8192F4FEA17
:1008800084624FEA52624A7010F86C2F4C7844EA46
:10089000D2144C7002F07F028A7042684FEA1262F2
:1008A0004FEAD214CC70C2F341140C71C2F382042B
:1008B0004C714FEA82724FEA12728A7142688C79E7
:1008C000C2F3074244EA92148C71C2F34014CC7113
:1008D0000E7202F001024A728288C2F307224FEAC6
:1008E000D2148C72C2F38014CC72C2F340140C7315
:1008F000C2F300144C73C2F381048C7302F0030240
:10090000CA7300794FEA500008744B744FF000002E
:10091000F0BD426C0A60826C4A60C26C8A60026DF3
:10092000CA60426D0A61826D4A61C26D8A61006E61
:10093000C8610020704770B50446B0F8500000252B
:100940000104206800F04BFC18B1A16B0143A163C6
:1009500004E00021206800F0BEFA0546C5F34320FC
:1009600070BD70B5040004D094F83400002510B1B7
:1009700005E0012070BD2577204600F037F8032000
:1009800084F83400204600F007F8A56325630120B1
:1009900084F83400002070BDFEB5002504467620A2
:1009A0000095CDE901502B462A462946206800F0E3
:1009B00098FA0D4E46F8A05F206800F0A4FA0125D1
:1009C00035600220FFF70AFD204600F0A8FE20B99E
:1009D000204600F031FE002805D084F83450A16B89
:1009E0000143A1630120FEBD008025421D4800B5E2
:1009F000016887B041F400610160006800F40060A4
:100A0000059018481438016841F4800101600168BC
:100A100001F480010591016841F004010160016861
:100A200001F004010591016841F0080101600068CE
:100A3000694600F0080005904FF4F850009002203D
:100A4000019001200290032003900C20049006489E
:100A5000FFF7D6FC0420009069460448FFF7D0FC5D
:100A600007B000BD4438024000080240000C0240BC
:100A70002DE9F04F87B09A4617460E460446DDF83A
:100A800040B0FFF78FFD00903EB194F8340001288C
:100A900007D0A06B40F000500FE0A06B40F000606A
:100AA0000BE04FF00008C4F83880E06D07EB0A0156
:100AB000814204D9A06B40F00070A0637CE0032069
:100AC00084F834002068C0F82C80606C012800D0C5
:100AD0007F024FF40071206800F064FA40F2FF5981
:100AE000012530B12268C2F83890A16B0143A1639F
:100AF00060E04FF0FF3001904FEA4A2002909020D2
:100B000003900220CDE90408069501A9206800F0B1
:100B1000CCF9BAF1010F06D90220206339462068CA
:100B200000F0CEFA04E025633946206800F0E1FACF
:100B30000028D7D122E0406B000409D500272068A7
:100B400000F0E5F946F827007F1C082FF7D3203680
:100B5000BBF1000F05D0FFF725FD0099411A59455B
:100B60000CD32168C1F83890A06B40F00040A0631E
:100B700084F83450032007B0BDE8F08F2068416B43
:100B800011F4957FD7D0416BC90509D5BAF1010F92
:100B900006D9616C032903D000F052FB0028A1D1D3
:100BA0002068416B090709D5C0F83890A06B40F068
:100BB000080027E084F834500120DCE7416B890706
:100BC00005D5C0F83890A06B40F002001AE0416BE8
:100BD000890619D5C0F83890A06B40F0200011E0CC
:100BE00000F095F901C6BBF1000F05D0FFF7DAFC64
:100BF0000099411A594507D32168C1F83890A06B74
:100C000040F00040A063D5E72068416B8902E7D43B
:100C10002168C1F8389084F834500020ABE7000018
:100C20002DE9F04F87B09A4616460D460446FFF769
:100C3000B9FC83463DB194F83400012807D0A06B7D
:100C400040F000500DE0A06B40F0006009E0002093
:100C5000A063E26D06EB0A01914204D9A06B40F05B
:100C60000070A0638EE0032184F83410216881466F
:100C7000C862606C012800D076024FF400712068D1
:100C800000F090F940F2FF58012730B12268C2F815
:100C90003880A16B0143A16317E0BAF1010F06D9B7
:100CA000202020633146206800F0E4FA05E010209F
:100CB00020633146206800F0F6FA060008D021686B
:100CC000C1F83880A06B3043A06384F8347059E0D9
:100CD0004FF0FF3000904FEA4A20019090200290A0
:100CE0004846CDE90407CDF80C90B946694620681E
:100CF00000F0DBF822E0406B40040AD55FF000070B
:100D000005EB8701206800F015F97F1C082FF7D349
:100D10002035109830B1FFF745FCA0EB0B0110987F
:100D200081420BD32168C1F83880A06B3043A063A7
:100D300084F83490032007B0BDE8F08F2068416B41
:100D400011F48D7FD7D0416BC9050FD5BAF1010FD2
:100D50000CD9616C032909D000F072FA30B1226815
:100D6000C2F83880A16B0143A16309E02068416BA0
:100D7000090709D5C0F83880A06B40F0080014E0DE
:100D800084F834900120D6E7416B890705D5C0F877
:100D90003880A06B40F0020007E0416BC0F838805B
:100DA000C90604D5A06B40F01000A063E8E784F802
:100DB00034900020BFE710B5401EB0F1807F01D312
:100DC000012010BD4FF0E02460610F21601701F099
:100DD00072F80020A06107202061002010BDFEE70E
:100DE00072B6704762B670471CB50848016841F09A
:100DF0000101016002210320CDE90001002301224D
:100E000009030348FFF79CFA1CBD0000303802407C
:100E1000000002400248416981F40051416170477D
:100E200000000240F0B5054614460F461E4618461F
:100E300000F01EF8C6F1040085400F20F040384055
:100E400028436109890001F1E021D1F8002104F073
:100E50001F050123AB401A43C1F8002104F1E0242F
:100E600094F8001441EA001084F80004F0BD00007A
:100E7000072181430A02054908684FF6FF0318401D
:100E8000034B184310430860704700000CED00E06E
:100E90000000FA056FF30801014301480160704743
:100EA00008ED00E0FEE7704770470A6842624A6852
:100EB0008262D1E902231A43D1E904310B43C16AAA
:100EC0001A4321F0F7011143C16200207047006806
:100ED00000F00300704708B5084414300090006823
:100EE00008BD70B50DF1100C11439CE87000234350
:100EF000194329434268314347F6FF639A430A4343
:100F00004260002070BD0321016000207047D0F8CE
:100F1000800070470A688260D1E901231A43D1E951
:100F200003310B43C1681A436FF30B011143C160D6
:100F3000002070470968C0F880100020704710B585
:100F400086B004463720CDE90010402002900020F2
:100F500003904FF48060049069462046FFF7DAFF63
:100F600041F288323721204600F0B6F906B010BDB4
:100F700010B504460A4886B001432920CDE9001087
:100F800040200290002003904FF480600490694656
:100F90002046FFF7BFFF204600F054FA06B010BD10
:100FA0000000108010B586B004461020CDE9001076
:100FB00040200290002003904FF480600490694626
:100FC0002046FFF7A7FF41F288321021204600F0AB
:100FD00083F906B010BD10B586B004460620CDE9F1
:100FE000001040200290002003904FF48060049095
:100FF00069462046FFF78EFF41F2883206212046DF
:1010000000F06AF906B010BD30B585B00024054681
:10101000009401944FF480600294CDE90340694646
:101020002846FFF777FF0B484FF4FA510068B0FBF2
:10103000F1F041F288314843401E03D24FF00040A6
:1010400005B030BD696B0906F6D540F2FF50A863C4
:101050002046F5E70000002070B585B004464FF447
:10106000D570009008204026CDE901060025C0017A
:10107000CDE9035069462046FFF74CFF0F484FF477
:10108000FA510068B0FBF1F041F288314843401E4C
:1010900002D24FF000450DE0616B11F0450FF6D024
:1010A000606B400702D5A663042503E0606B400631
:1010B00000D5A66305B0284670BD000000000020E2
:1010C00010B586B004461220CDE9001040200290F1
:1010D000002003904FF48060049069462046FFF79B
:1010E00019FF41F288321221204600F0F5F806B0CF
:1010F00010BD10B586B004461120CDE90010402087
:101100000290002003904FF48060049069462046CE
:10111000FFF700FF41F288321121204600F0DCF891
:1011200006B010BD10B586B004460720CDE90020FA
:1011300040200290002003904FF4806004906946A4
:101140002046FFF7E7FE41F288320721204600F0F3
:10115000C3F806B010BD10B586B0044600210220C9
:10116000CDE90010C020CDE902014FF48060049069
:1011700069462046FFF7CEFE204600F03BF906B058
:1011800010BD10B586B004460920CDE90010C0207E
:101190000290002003904FF480600490694620463E
:1011A000FFF7B8FE204600F025F906B010BD10B5D7
:1011B00086B0044600213320CDE900104020CDE95F
:1011C00002010001049069462046FFF7A3FE41F2A8
:1011D00088323321204600F07FF806B010BD10B5EC
:1011E00086B004460D20CDE900104020029000207A
:1011F00003904FF48060049069462046FFF78AFE12
:1012000041F288320D21204600F066F806B010BD8C
:1012100030B585B00C46054600210320CDE900100D
:101220004020CDE902010001049069462846FFF7FD
:1012300071FE22460321284600F024F905B030BD96
:1012400010B586B0044600210C20CDE900104020E6
:10125000CDE902010001049069462046FFF75AFEDD
:10126000034A0C21204600F037F806B010BD0000FC
:1012700000E1F50510B586B004461920CDE900104F
:1012800040200290002003904FF480600490694653
:101290002046FFF73FFE41F288321921204600F038
:1012A0001BF806B010BD10B586B004461820CDE975
:1012B000001040200290002003904FF480600490C2
:1012C00069462046FFF726FE41F288321821204663
:1012D00000F002F806B010BD444B10B51B684FF487
:1012E000FA54B3FBF4F353435B1E02D24FF00040B9
:1012F00010BD426B12F0450FF6D0426B520703D57A
:1013000004218163084610BD426BD20702D001213F
:10131000816303E00269D2B28A4201D0012010BD8C
:1013200040F2FF5181630021FFF7D5FD30490842AB
:1013300001D1002010BD002802DA4FF0007010BD6E
:10134000410001D5402010BD810001D5802010BD95
:10135000C10002D54FF4807010BD010102D54FF4D9
:10136000007010BD410102D54FF4806010BDC10175
:1013700002D54FF4006010BD010202D54FF4805039
:1013800010BD410202D54FF4005010BD810202D5BC
:101390004FF4804010BDC10202D54FF4004010BD93
:1013A000410302D54FF4003010BD810302D54FF444
:1013B000802010BDC10302D54FF4002010BD0104F0
:1013C00002D54FF4801010BD410402D54FF4001037
:1013D00010BD810402D54FF4800010BD000702D576
:1013E0004FF4000010BD4FF4803010BD000000200D
:1013F00008E0FFFD12494FF4FA520968B1FBF2F11F
:1014000041F288325143491E02D24FF000407047EA
:10141000426B12F0450FF6D0416B490703D504210A
:10142000816308467047416BC90703D0012181637E
:101430000846704740F2FF5181630020704700006A
:10144000000000200E494FF4FA520968B1FBF2F196
:1014500041F288325143491E02D24FF0004070479A
:10146000426B12F0450FF6D0416B490703D50421BA
:1014700081630846704740F2FF5181630020704746
:10148000000000201F4B10B51B684FF4FA54B3FB4B
:10149000F4F341F2883463435B1E02D24FF0004004
:1014A00010BD446B14F0450FF6D0436B5B0703D5BA
:1014B00004218163084610BD436BDB0702D0012184
:1014C000816303E00369DBB28B4201D0012010BDD0
:1014D00040F2FF5181630021FFF7FDFC10F4604FE3
:1014E00004D0410406D54FF4005010BD000C10800C
:1014F000002010BD000402D54FF4805010BD4FF401
:10150000803010BD000000202DE9F04F89B00E465C
:101510000446FFF747F800258346009501952F46BE
:1015200008212068FFF73EFD002834D1B4F85000B0
:1015300001042068FFF703FD00282CD1401E4FF066
:101540000808CDE9020830204FF00209CDE904096E
:101550000120CDE9067002A92068FFF7A6FC2068EB
:10156000FFF725FE002816D1EA4640F22A472068F8
:10157000416B394212D1416B890204D5FFF7C7FC98
:101580004AF825006D1CFFF70DF8A0EB0B00401C7E
:10159000EDD14FF0004009B0BDE8F08F416B090775
:1015A00003D5C0F838800820F5E7416B890703D5DB
:1015B000C0F838900220EEE7416B890603D5202160
:1015C00081630846E7E740F2FF518163009800BA63
:1015D0007060019800BA30600020DCE710B5044864
:1015E000FFF7A9F9042801D0012010BD002010BD8B
:1015F000280300200F4810B50D490160002141600B
:101600008160C160016141618161FFF7AAF908B1A0
:10161000012010BD074907488431FFF77AF94FF4DC
:1016200000610448FFF74CF80028F2D0022010BDFA
:10163000002C01402803002010B590B00446012082
:10164000ADF838002068FFF742FC002864D0606CD9
:10165000032842D02068FFF77EFD00285AD10021E0
:101660002068FFF738FC606704212068FFF733FC2F
:10167000A06708212068FFF72EFCE0670C21206896
:10168000FFF729FCC4F88000606C032825D00EA960
:101690002068FFF7BDFD00283CD1606C03281CD0FA
:1016A000BDF83800206501042068FFF76AFD0028B6
:1016B00030D100212068FFF70EFC6066042120680D
:1016C000FFF709FCA06608212068FFF704FCE0662C
:1016D0000C212068FFF7FFFB206704212068FFF73B
:1016E000FAFB000DE06403A92046FFF725F8B4F8E3
:1016F0005000002302042068FFF714FD002809D1E0
:1017000004F1100007C88DE8070094E80F00FFF708
:10171000E8FB002010B010BD4FF08060FAE72DE923
:10172000F8430025044600950068FFF76DFC00288B
:101730001AD12068FFF790FC4FF080784FF6FF76C3
:10174000D8B14FF08057A5640098411C0091B04279
:101750001AD000212068FFF7F2FB20B90021206891
:10176000FFF706FC10B13846BDE8F8830021206879
:10177000FFF7B1FBC00FE7D01FE00127A764009877
:10178000411C0091B04201D14046EDE700212068A4
:10179000FFF7D5FB0028E7D14FF080412068FFF725
:1017A000E7FB0028E0D100212068FFF794FBC10F80
:1017B000E5D0400001D5676400E065640020D3E710
:1017C000F8B5164607460C4D0C46FFF709FB3346A5
:1017D0002246394609480095FFF74AF9044602E0D7
:1017E0006D1E00D20124FFF7F9FE0028F8D1FFF7A3
:1017F000F9FA2046F8BD000000E1F50528030020B5
:101800001CB5044600200090019000212068FFF7DD
:1018100062FB800102D54FF400601CBD6946204682
:10182000FFF772FE0028F8D10198C0030CD5B4F878
:10183000500001042068FFF782FB0028EDD1002151
:101840002068FFF7C8FB1CBD4FF080601CBD1CB5B5
:10185000044600200090019000212068FFF73BFB28
:10186000800102D54FF400601CBD69462046FFF799
:101870004BFE0028F8D1019840030CD5B4F8500075
:1018800001042068FFF75BFB0028EDD102212068EE
:10189000FFF7A1FB1CBD4FF080601CBDF8B51646DC
:1018A00007460C4D0C46FFF79BFA33462246394655
:1018B00009480095FFF7B4F9044602E06D1E00D216
:1018C0000124FFF78BFE0028F8D1FFF78BFA2046A2
:1018D000F8BD000000E1F5052803002070B5154EA5
:1018E0000546304600F0A2F8002821D1124C2068AD
:1018F00020F440702060206840F400702060206870
:1019000020F0F8002060206840EAC50020602068D0
:1019100040F002002060206840F4803020603046B3
:1019200000F084F8012803D0216821F00201216031
:1019300070BD0000400D0300103C02401C4988426D
:1019400001D2002070471B49884201D20120704714
:101950001949884201D2022070471849884201D2B1
:10196000032070471649884201D204207047154968
:10197000884201D2052070471349884201D20620CF
:1019800070471249884201D20720704710498842A7
:1019900001D2082070470F49884201D209207047C0
:1019A0000D49884201D20A2070470B207047000081
:1019B000004000080080000800C000080000010886
:1019C00000000208000004080000060800000808E3
:1019D00000000A0800000C0800000E080848006813
:1019E000C10301D501207047C10605D4810603D487
:1019F000410601D4000601D502207047002070473F
:101A00000C3C02400248016841F00041016070470F
:101A1000103C0240034802490160034901607047DD
:101A200023016745043C0240AB89EFCD10B5044665
:101A3000FFF7D4FF012803D0002C00D1FF2010BDF8
:101A40000A2000F0A9FC641EF2D1F7E72DE9F0416D
:101A50000E460446B0F1006F33D3A00731D1FFF733
:101A6000D9FFDFF86480D8F8001021F48061C8F84D
:101A700000101648254604EB820784420BD314E07D
:101A80002868401C06D02846FFF758FFFFF726FFBE
:101A900008B10CE02D1DBD42F2D306E020463168AE
:101AA00000F016F818B9241D361DBC42F6D3D8F83C
:101AB000001041F48061C8F80010BDE8F041FFF764
:101AC000A1BFBDE8F0810000003C02400000FF1F04
:101AD00070B506460D46FF20FFF7A8FF002816D177
:101AE0000B4C206820F440702060206840F40070A7
:101AF0002060206840F0010020603560FF20FFF783
:101B000095FF012803D0216821F00101216070BDFB
:101B1000103C024070470000F0B50F4C256845F0BE
:101B2000010525600C4E00250836356026680B4FF0
:101B30003E402660271D0A4E3E60266826F4802619
:101B40002660054C0C34256000F00EF8BDE8F0402E
:101B500000210846FFF79EB900380240FFFFF6FE5D
:101B600010300024FEF724BDF0B52E4C06460025AB
:101B70002768284647F48037276001E06D1CADB226
:101B80002768BF03FAD5A5F5F857FF3F47D0254D85
:101B900040352F6847F080572F60234D2F6847F45A
:101BA00040472F601F4D08352F6847F414472F60BA
:101BB000276827F08077276041EA86111B4E52087C
:101BC00006EB0242114341EA03612A1F41F48001FE
:101BD0001160216841F08071216021688901FCD584
:101BE00013490A6842F480720A600A6842F400727B
:101BF0000A600A6842F480620A600A6842F00502DC
:101C00000A60296821F003012960296841F0020176
:101C100029602968C1F381010229FAD1F0BD0120B0
:101C2000F0BD000000380240007000400000FFFFDF
:101C3000003C02401048016841F4700101600F4807
:101C4000016841F0010101600C4A00210832116075
:101C500002680B4B1A400260031D0A4A1A600268B0
:101C600022F48022026005480C30016002495806C7
:101C7000803908607047000088ED00E000380240BD
:101C8000FFFFF6FE103000240548016821F0020134
:101C900001600448016821F0010101607047000003
:101CA000403802400004004008480168C90707D0D6
:101CB00007490A7882F001020A700649C1F8B42285
:101CC000016821F00101016070470000100400402C
:101CD00024000020000040420F4A136843F0020332
:101CE00013600E4B00221A600C4A08321060101F5D
:101CF00001600A481838016841F001010160074895
:101D00002438016841F00101016002231D220021F5
:101D10000120FFF787B8000040380240240400404B
:101D200030B51248016889060CD54068C2B2104827
:101D300001880B0406D44C044FF0000306D50A2A90
:101D400001D0038030BD41F400410DE00D2A09D0DF
:101D5000C1F30D04074D491C89B22A550180C729DA
:101D6000EFD830BD41F48041018030BD001001400A
:101D700010000020600200207CB5324A504300EE83
:101D8000100A08014FF6FF72B8EE401A00EE100A72
:101D9000B8EE400AC1EE000ABCEEE00A10EE100AEE
:101DA00080B200EE100A02EA0010B8EE400A30EEEF
:101DB000C00AF3EE000A20EE200ABCEEC00A10EEC4
:101DC000101A084484B22048016841F008010160FB
:101DD0001D481030016841F4802101600121032079
:101DE000CDE90001194D0102002302222846FEF729
:101DF000A7FA072208212846FEF792FA07220921AE
:101E00002846FEF78DFA12480460041D206820F46D
:101E100000402060206840F008002060206840F00A
:101E200004002060206840F020002060002327226A
:101E300019461846FEF7F6FF206840F4005020606F
:101E40007CBD000040420F0030380240000C0240D0
:101E5000084800400F4810B5006880060ED50D48B0
:101E6000001D00680C4BC2B20C48C02A417806D055
:101E7000012903D101785A54491C017010BD002476
:101E8000012219B1447083F8202010BD0470427003
:101E900010BD000000480040CC450020200000207C
:101EA00003490A685206FCD50149091D08607047BC
:101EB00000480040FEE70907090E002804DB00F196
:101EC000E02080F80014704700F00F0000F1E020DF
:101ED00080F8141D704702E008C8121F08C1002ACC
:101EE000FAD170477047002001E001C1121F002A9B
:101EF000FBD1704710B504460020E070401E2063FF
:101F0000204601F0B0FD08B1042010BD04F23220DB
:101F100001F006FDA0F52A41553901D0032010BD7E
:101F200094F83400E92803D0EB2801D0E8280FD139
:101F3000032208A104F16A0001F078FD0028EED028
:101F4000052205A104F1860001F070FD0028E6D00D
:101F5000022010BD46415400464154333200000077
:101F600000E0401C02780AB18A42FAD1D0B2704730
:101F70008269891E921E8A4201D800207047C26A77
:101F8000408900FB012070472DE9F05F82460C4636
:101F900001F11A0001F0C4FC78BB2078012700F0A1
:101FA0003F00401E00EB8001DFF8589001EBC005B8
:101FB00000264FF6FF7B00BF19F80600204401F011
:101FC000AFFC80466FB1FF2D17D201F011FA074622
:101FD0003AF815006D1C01F00BFA87420DD1474607
:101FE00001E0D84509D1761C0D2EE5D320784006B6
:101FF00006D52FB13AF8150010B10020BDE8F09FCA
:102000000120FBE7983F00082DE9F04106680F002A
:10201000804606D001F0E6FB022809D20120BDE887
:10202000F081346914B1B069A04207D8012405E0F9
:10203000411CF4D0B1698142F1D83C467069002856
:10204000EDD0BC4216D1B069651CA84200D802256B
:102050002946404601F0C6FB0128E0D0411CDED0F5
:1020600038B13069022805D3B169814202D90446EA
:1020700000E0A5B92546B0696D1CA84202D802252A
:10208000022C0AD32946404601F0ACFB38B10128A6
:10209000C5D0411CC3D0A542EDD10020BFE74FF011
:1020A000FF3422462946304601F030FD30B95FB199
:1020B0002A463946304601F029FD28B1012800D0D2
:1020C000012425462846AAE73561D6E90501891E7F
:1020D000884201D8401E7061307940F001003071B3
:1020E000F0E700002DE9F84F824600680E68884648
:1020F000C768002416F8015B284600F019F978BB80
:1021000035B140F2B511284601F03CF905003CD04C
:10211000681C3AD0B5F5803F03D3280C27F814008B
:10212000641C202D11D32F2D0FD05C2D0DD0802DB0
:1021300004D2294678A0FFF713FF88B9FF2C24D2D8
:1021400027F81450641CD5E7761C30782F28FBD074
:102150005C28F9D0C8F80060202D02D204250CE0DC
:1021600013E0002509E000BF07EB440030F8020C43
:10217000202801D02E2802D1641E002CF4D100208A
:1021800027F814000CB1002603E00620BDE8F88F04
:10219000761C37F816002028FAD016B938882E2871
:1021A00003D145F0030500E0641E2CB107EB4400A9
:1021B00030F8020C2E28F7D10B2220210AF1200042
:1021C00001F04AFC4FF000084FF0080BCDF80080FA
:1021D00037F8160006F101065FEA000924D0B9F1CC
:1021E000200F04D0B9F12E0F04D1A64202D045F041
:1021F0000305EDE70098584501D2A64219D1BBF17D
:102200000B0F0FD0A64201D045F003050CD84FF0BC
:10221000080000904FEA886026464FF00B0B4FEA0B
:102220001068D5E745F003059AF82000E5284FD05F
:1022300051E04846B9F1800F0DD345F0020540F258
:10224000B51101F0B7F88146000604D5354909F00B
:102250007F0011F800904846B9F1FF0F13D900999B
:10226000ABF10100814204D345F00305CDF800B085
:10227000AEE700984FEA1922504480F820200098D9
:10228000401C00901BE0B9F1000F04D0014626A0CD
:10229000FFF766FE20B14FF05F0945F003050EE041
:1022A000A9F14100192801D848F00208A9F16100FC
:1022B000192804D8413048F001081FFA80F9009A23
:1022C0000AEB020181F820900098401C00907FE703
:1022D00005218AF82010BBF1080F03D14FEA88606E
:1022E0004FEA1068C8F38100032803D06FEA0800A2
:1022F000800701D145F00205A80709D45FEAC8703C
:1023000001D045F010055FEA487001D545F0080599
:102310008AF82B50002039E7222A3A3C3E3F7C7F46
:1023200000000000A53F00082B2C3B3D5B5D00003A
:10233000002800D0002070474FF0E0210A6922F009
:1023400004020A610649C00800EB40020870C2EBB3
:10235000C0104FF6FF7202EAC000488070470000CC
:102360001200002070B54FF40775B0FBF5F1CCB248
:10237000B0FBF5F105FB110604E0284600F020F85B
:10238000641EE4B2002CF8D1002E04D03046BDE823
:10239000704000F015B870BD0849097848434FF007
:1023A000E02148610020886101220A610A69D3079F
:1023B00001D0D203FAD5086188617047120000206D
:1023C0000849498848434FF0E0214861002088616E
:1023D00001220A610A69D30701D0D203FAD5086144
:1023E00088617047120000202DE9F0410C46054637
:1023F00001F050FD00BB21462846FFF7B9FD064617
:10240000286305F134004FF400720021044601F006
:1024100023FBA0460127002400E03C446889A04239
:1024200007D9321968783B46414600F09DFA0028EA
:10243000F3D06889A04202D00120BDE8F0810020DD
:10244000FBE72DE9F04705460021D0F8009000F0A9
:1024500022FA002852D1FF24471EA046EF624846C8
:10246000A96901F000FB060047D1E969087850B17D
:10247000CA7AE52802F03F02AA7136D0130704D5C4
:102480000F2A32D105E0042637E00F2A01D0E4B14B
:1024900020E095F82B20520629D4420606D591F863
:1024A0000D8000F0BF002A690446EA62A04209D10B
:1024B0004A7B424506D1D9F80C00FFF765FD08B10B
:1024C000641E00E0FF24E4B211E0084601F090FC35
:1024D000404512D095F82B00C00706D10B2205F11C
:1024E0002001E86901F0A2FA38B1FF24EF6200216F
:1024F000284600F005F80600B1D03046BDE8F08768
:102500002DE9F047066907682036894604464FF0F2
:102510000008B6F5001F35D2A06910B1F10503D04F
:102520003DE00420BDE8F087401CA061616929B14D
:102530007889401E10EA562F05D030E03889B0EB7C
:10254000561F1FD92BE0204601F04CF90546012803
:102550001DD9681C14D0B869A8421AD8B9F1000F67
:1025600010D020466169FFF74FFD05000DD0012D09
:102570000DD0681C04D029463846FFF735FF40B11E
:102580000120CFE7C4F81880CBE70720CAE7022074
:10259000C8E7294638466561FFF7EAFCA061C6F343
:1025A0000800384434302661E0610020BAE72DE9A4
:1025B000F0470426FF24894605462746D0F80080C8
:1025C00047E0404601F04FFA060046D1E969087835
:1025D00080B1CA7AE52802F03F02AA7108D02E28FD
:1025E00006D022F02003082B06D0B446CC4506D0F6
:1025F000FF241EE0042630E04FF0010CF6E70F2A1E
:1026000001D014BB1CE0420605D54F7B00F0BF0093
:102610002A690446EA62A04209D1487BB84206D141
:10262000D8F80C0001F038FA08B1641E00E0FF246D
:10263000E4B200212846FFF763FF060009D00CE052
:10264000084601F0D5FBB84209D04FF0FF30E862F0
:1026500005E0A9690029B4D10EB10020A861304677
:10266000BDE8F0872DE9F04F0446D0F8009090F8CF
:102670002B0089B010F0A00F03D0062009B0BDE8F0
:10268000F08F0025D9F80C0000E06D1C30F8151013
:102690000029FAD104F120010C226846039101F0CF
:1026A000D2F99DF80B00C00719D0402084F82B0008
:1026B000012633466946D9F80C20039801F04AF800
:1026C0002046FFF7BEFE10B9761C642EF1D3642EAF
:1026D0000FD00428D2D19DF80B0084F82B009DF870
:1026E0000B00800707D50D200C35B5FBF0F56D1CF0
:1026F00002E00720C2E7012500212046276800F0FC
:10270000CAF888B900263846A16901F0ACF958B971
:10271000E0690078E5280AD048B10026012120466A
:10272000FFF7EEFE0028EED0042812D012E0761C4F
:102730002846AE42F2D1451E059567D02169684210
:1027400001EB4011204600F0A6F85FEA000803D034
:1027500076E00720804673E0039801F049FB4FF6CE
:10276000FF7B07904846A16901F07DF95FEA000808
:1027700066D1D9F80C0006900598D4F81C80C0B238
:102780000490079988F80D100F2188F80B1000218C
:1027900088F80C1008F11A0001F026FB0498DFF805
:1027A000A4A0401E00EB800101EBC006002701E061
:1027B0005D4503D0069830F81650761C1AF80710BD
:1027C00001EB0800294601F00FFB05B95D467F1CAF
:1027D0000D2FEDD35D4505D0069830F8160008B1F1
:1027E000049803E0049840F04000049088F800004A
:1027F000012189F8031000212046FFF781FE5FEADE
:1028000000081DD10598401E0590ABD14846A1692E
:1028100001F029F95FEA000812D120220021E069C5
:1028200001F01AF90B22E069039901F00CF994F810
:102830002B00E16900F018000873012089F80300FB
:1028400040461BE7983F00082DE9F041C16A044665
:1028500006690568481C04D0204600F01CF80028D2
:1028600017D1E5274FF001082846A16901F0FBF8D0
:1028700060B9E1690F7085F803802169B14208D21F
:1028800000212046FFF73CFE0028EDD0042800D1AF
:102890000220BDE8F0812DE9F04107680E460546AB
:1028A000B1F5001F36D2F00634D12E61AC6824B9E0
:1028B0003878032805D3BC6A1CB178894FEA4028D0
:1028C00012E03889B0EB561F24D9B86A12E02846C6
:1028D00000F088FF0446401C1AD0022C1AD3B869B5
:1028E000A04217D9A6EB080646452146EFD2384646
:1028F000FFF73EFBC5E9054060B100EB5620A8613B
:10290000C6F3080038443430E8610020BDE8F081A7
:102910000120FBE70220F9E710B518B9FEF76AFEBF
:10292000002800D0012010BD08B10120704709B176
:10293000042070470020704770B51C0015460E46F5
:1029400002D018B1012070BD042070BD1A4602E00B
:10295000FEF750FE224629463046FEF731FF00289A
:10296000F6D170BD0020704770B51C0015460E46AC
:1029700002D018B1012070BD042070BD1A4602E0DB
:10298000FEF738FE224629463046FEF787FF00282C
:10299000F6D170BD91F8202062B1002281F820208C
:1029A0000A78012A06D14A78824203D1087A08B906
:1029B000487A08B100207047012070471CB56A466C
:1029C000CDE9000108210F2000F01CF80F2000F0D5
:1029D000EBF91CBD31B56A4604210A2000F012F85B
:1029E0000A2000F0E1F9002808D0054A072120025A
:1029F000545C491E04430429F9D2204638BD000026
:102A0000CC45002077B581B0044600251646C0208D
:102A10000095FFF745FA2846FFF742FA2046FFF7F0
:102A20003FFA022102A801F0B6F90421684601F03C
:102A3000B2F9BDF80810304601F0ADF9C020FFF73B
:102A40002FFA7FBDFFB585B0054602F110000E9E3E
:102A50000027ADF8100014460297C0200397CDE977
:102A60000023FFF71DFA3846FFF71AFA2846FFF74A
:102A700017FA022104A801F08EF9042106A801F03A
:102A80008AF91021684601F086F92146304601F0A6
:102A900082F9C020FFF704FA09B0F0BD1FB58DE838
:102AA0000F006A4610210220FFF7ACFF022000F061
:102AB0007BF904B010BDF8B50E46044681B2154648
:102AC000104600F099F90146F3B2A2B20320009536
:102AD000FFF7B8FFBDE8F840032000F065B91FB567
:102AE0008DE80F006A4610210520FFF78BFF0520B7
:102AF00000F05AF904B010BDF8B50E46044681B294
:102B00001546104600F078F90146F3B2A2B207204C
:102B10000095FFF797FFBDE8F840072000F044B9A3
:102B20002DE9F041154607462844401EB0FBF5F05C
:102B3000002486B29846761E09E042462146284681
:102B4000FFF7DAFF00280CD0641CA844A4B2B442FA
:102B5000F3DB05FB147042462146BDE8F041FFF768
:102B6000CBBFBDE8F0811CB56A46CDE90001082164
:102B70000620FFF747FF062000F016F91CBD0000F5
:102B800010B58AB020216C4601A8FDF754FB084817
:102B900004210068009055206054491CC9B22429C2
:102BA000FAD36A4624210820FFF72CFF0AB010BD93
:102BB000D44300081FB50022CDE900010292039220
:102BC0006A4610211320FFF71DFF04B0012010BD3D
:102BD00030B587B0DDE90A458DE83F006A46182127
:102BE0000B20FFF70FFF0B2000F0DEF807B030BD21
:102BF00070B592B05FF00004FFF7C2FF6420641C60
:102C0000FFF7B0FB322C02D9002012B070BD43494F
:102C10000820FFF7BFFE0028EED041F63C760224E4
:102C20004FF4C0553E4B2A4621463046FFF757FF2A
:102C30003C4B2A4621463046FFF772FFEE10012436
:102C4000394B2A4621463046FFF749FF374B2A4683
:102C500021463046FFF764FF31490020091DFFF788
:102C600082FF1C2232496846FDF7CCFA3049142213
:102C70001C3107A8FDF7C6FA2D49142230310CA8E3
:102C8000FDF7C0FA00246D4655F82400FFF7A2FEB8
:102C9000641CE4B2072CF7D3002407AD0DF1300615
:102CA00055F8240056F8241000F094F8641CE4B29F
:102CB000052CF5D31B486D461C380024D0E90112C1
:102CC000CDE90012D0E90312CDE90212D0E90510D6
:102CD000CDE9041055F82400FFF77CFE641CE4B233
:102CE000022CF7D3002402AD0DF1100655F8240094
:102CF00056F8241000F06EF8641CE4B2022CF5D3F0
:102D00004FF480704FF6FF71CDE90001030102021C
:102D100001040020FFF75CFF77E70000CC450020AE
:102D200000001040F0430008A4ABFF3F2C630008F4
:102D30003C660008F0B50E46ADF50B7D0146002758
:102D40000122684600F09AF818B100200DF50B7DBD
:102D5000F0BD039C43F6FF702044810B4FF4804587
:102D60002A4633462046FFF799FE0EE08AAB2A46F4
:102D70000C49684600F056F93946781CC7B2094A32
:102D80008A98FFF798FE0028E0D0039905988842BA
:102D9000ECD1684600F03EF821463046FFF70AFFC6
:102DA000D4E70000CC05002070B50546002407E0FC
:102DB0006420FFF7D7FA641C322C01D9002070BDC3
:102DC00003492846FFF7E6FD0028F1D0012070BD39
:102DD000CC4500201FB5074BD3E918238DE80F0021
:102DE0006A4610210920FFF70DFE0920FFF7DCFFDE
:102DF00004B010BDD465000810B503460022EF20D2
:102E000029B9002010BD9C5C6040521C92B28A42DD
:102E1000F9D310BD38B5044600F023FA002807D1D5
:102E20006946204601F09EF8002801D1002121606A
:102E300038BD000017B581B014460298009068466E
:102E400000F034FD002802DA0B2004B010BD0A4A5D
:102E5000002352F8201001B10B70019901B10B70E1
:102E600042F820102CB1002201A902A800F004FBB6
:102E7000EBE70020E9E700001C0000202DE9F74304
:102E80008EB005000BD002F03F06324669460FA80F
:102E900000F0F2FA04004FF0000804D0BCE0092072
:102EA00011B0BDE8F0830098019001A80F9900F0DF
:102EB00015FC040004D19DF82F00000600D506245F
:102EC00016F01C0F48D04CB1042C03D101A8FFF719
:102ED000C9FB044646F008065CB19DE09DF80A0077
:102EE00010F0110F01D0072496E0700701D50824D7
:102EF00092E030073FD50899009800F0F3FC0746B0
:102F000000F0D0FC014608980E3000F065FF0899EB
:102F100020200022C8720899009800F049FF089804
:102F200000211C3000F058FF00990120C87007B341
:102F3000D1F830900022394601A800F05CFE040070
:102F40006AD14946009800F08EFD04000098A7F170
:102F5000010707610BD05FE0CCBB9DF80A00C106FA
:102F600001D5042458E0B10701D5C007BBD1300713
:102F700001D546F040060098016B29620899696204
:102F8000089900F0AFFCA86008981C3000F0BDFC68
:102F9000E8600098286000984FF400720021C08813
:102FA000A8802E7485F81180C5F81C8005F12800D2
:102FB0008146C5F8148000F04FFDB0062ED5EE68AE
:102FC00066B36E610098A968408947020FE023E06C
:102FD000284600F007FC0146012800D80224481CBE
:102FE00002D0F61B1CB104E00124F61B01E0BE4236
:102FF000EED8A96184B9F00510D00098FEF7B8FFAB
:1030000070B100EB5622EA610098012349464078EE
:10301000FFF792FC10B10124C5F8008020463FE77D
:103020000224F9E72DE9FE4F8846002119609946F0
:103030001546044602A900F095FF002812D1607CD5
:1030400000280FD1207CC0070BD06169E068012700
:10305000401A4FF0020A04F1280B854200D90546B8
:103060007EE00720BDE8FE8F6069C10560D102994E
:103070004989491E11EA502609D108B32046A169A1
:1030800000F0B0FB02281DD3411C4CD0A061A16907
:103090000298FEF76DFFA8B130440190680A0090D5
:1030A00027D0029932184889824201D9801B0090AA
:1030B000DDE9003248784146FFF73EFC98BB05E069
:1030C000A068DFE784F811A00220CBE7207C00068F
:1030D0000CD5E1690198081A0099884206D208EBDC
:1030E00040204FF40072594600F0ADFC00984602B3
:1030F0002CE0E2690198824218D0207C00060AD5B3
:103100000298012359464078FFF72EFC58B9207CDD
:1031100000F07F0020740298012359464078019AFC
:10312000FFF70AFC10B1677401209BE70198E0618A
:10313000A08AC0F30800C0F50076AE4200D92E4642
:10314000011932464046283100F07DFCD9F80000D4
:10315000AD1B8119C9F800106069B044304460614A
:10316000002D81D100207DE733B5A3B024A800F065
:103170009DFB022201A923A800F07EF900280DD1B1
:103180000198029002A8239900F0A8FA002805D11E
:103190009DF8330010F0A00F02D0062025B030BDFE
:1031A00020221AA8099900F04EFC302202A90EA88C
:1031B00000F049FC0EA8249900F090FAA8B3042866
:1031C000ECD10EA8FFF74EFA0028E7D1159C132288
:1031D0000DF1750104F10D0000F035FC9DF8731040
:1031E000E172C80602D441F02000E0720198012586
:1031F000C570E17AC9062BD5109A0499914227D05F
:10320000214600F06FFB01460198FEF7B1FE010078
:1032100016D0019800F027FC01990B465431002884
:10322000BCD148782E280DD012E0FFE70499109801
:10323000884203D1069912988842C2D00820ADE78F
:103240000220ABE71846109A00F0B2FD0198C57055
:1032500002A8FFF7F9FA0028A0D1019800F0D6FDE6
:103260009CE7F8B50446694600F07CFE00280ED1C4
:10327000217C4A060BD508060ED50098E269012389
:10328000407804F12801FFF76FFB08B10120F8BD79
:10329000207C00F07F00207400F004FB0646216AC9
:1032A000009800F0E0FB0028F1D1656A2946E87A31
:1032B00040F02000E872A268206800F079FD05F176
:1032C0001C00E16800F088FD314605F1160000F0B1
:1032D00083FD002105F1120000F086FD0098012118
:1032E000C17000F093FD217C01F0BF012174F8BD95
:1032F00011B59BB002220CA91BA800F0BDF8002854
:103300000CD10C98009068461B9900F0E7F9002852
:1033100004D19DF82B00000602D506201CB010BD7C
:103320009DF80600C00701D00720F7E707990C9821
:1033300000F0D8FA04469DF80600C00610D50C9897
:103340000E90002110940EA8FFF7A5FA0028E5D1F1
:1033500000210EA8FFF72BF90028E5D00428DDD1C5
:103360006846FFF771FA0028D8D134B1002221460F
:10337000684600F040FC0028D0D10C9800F046FDD3
:10338000CCE7000010B50022094B802801D202468C
:103390000BE0A1F58074B53C07D1FF2805D803EBFD
:1033A0004000A0F58050B0F8002F104610BD00007E
:1033B00026400008024610B500200C4B802A01D29E
:1033C00090B210BDB2F5803FFBD2A1F58074B53C40
:1033D00004D010BD401C80B2802803D233F81010F6
:1033E0009142F7D18030C0B210BD000026400008E5
:1033F00030B5B0F5803F20D280B2B0F5805F01D209
:103400001B4900E01B4931F8022B002A15D09042DD
:1034100013D331F8024B230AE5B252FA84F4844202
:1034200021D9092B09D2DFE803F005090E10121487
:1034300016181A00801A31F8100030BD811A01F0F8
:103440000101401A0DE010380BE0203809E0303857
:1034500007E01A3805E0083003E0503801E0A0F535
:10346000E35080B230BD002BCDD101EB4501CAE75E
:1034700026410008184300082DE9FF410027904627
:103480000E460F6000F012FA050003D50B2004B0C1
:10349000BDE8F0818C4850F825409CB1346020781C
:1034A00008F0FE0620B16078FFF75CFAC1070BD088
:1034B0002770E8B2B8466070FFF72EFAC10708D04F
:1034C0000320E4E70C20E2E70EB1400704D400201B
:1034D000DDE71EB1400701D50A20D8E700273946AD
:1034E0002046FEF707FD022822D100254FEA0D06EF
:1034F00004EB051090F8F61100F5F97019B10830D9
:1035000000F003FA00E0002046F825006D1C042DB1
:10351000EED3002556F8257037B139462046FEF720
:10352000E9FC022801D203E003206D1C042DF1D335
:10353000042809D0022873D204F13F0000F0F0F90A
:10354000B0F5007F6CD101E00120A0E704F14A0052
:1035500000F0E6F918B904F1580000F0D6F9E0617E
:1035600094F84460A670012E01D0022E58D1464333
:1035700094F841006081B0B3411E084250D104F17B
:10358000450000F0CDF92081000749D104F1470042
:1035900000F0C6F9050004D104F1540000F0B5F9BB
:1035A000054604F1420000F0BBF9010038D0238940
:1035B000881900EB1312954232D3A81A6589B0FB23
:1035C000F5F080B1DFF804C10025604500D803257F
:1035D0004FF6F57C604500D8022540F6F57C604545
:1035E00002D8012501E01BE0D5B1801C3A44E2621B
:1035F0003944A061C4E90871032D13D083B131446B
:10360000A162022D1FD000F0010100EB400001EB90
:10361000500000BFE16900F2FF10B1EB502F14D24F
:103620000D2034E704F15E0000F07AF90028F7D1AC
:1036300020890028F4D104F1600000F066F9A0624E
:10364000A0698000E6E74000E4E74FF0FF306061EA
:10365000206180202071032D2CD104F1640000F042
:103660005FF9012826D1791C204600F0FCF908BB3F
:1036700084F8048004F2322000F052F9A0F52A41C7
:10368000553917D104F1340000F03FF91049884250
:1036900010D104F5067000F038F90E49884209D1BE
:1036A00004F5077000F031F9606104F5087000F06E
:1036B0002CF9206104492570091F0888401C0880E6
:1036C000E0800548E06002E71C000020F5FFFF0FE6
:1036D0005252614172724161CC03002073B50446BD
:1036E0000568019801E0401C019001782F29FAD06B
:1036F0005C29F8D00020A06001980078202807D22B
:10370000802084F82B0000212046FFF7C4F87CBD00
:1037100001A92046FEF7E6FC0028F8D12046FEF776
:1037200090FE94F82B1028B10428F0D14907EED46C
:1037300005207CBD4907FCD4A079C006F8D5208AB5
:10374000C0F3080041192846343100F0CBF8A060DE
:10375000DEE700002DE9FC4115461C4607460B221A
:1037600000F071F9052C11D91D4A0CE00021AD1CA7
:103770002346044663F35F044008E30300D5544046
:10378000491C1029F4D328880028EFD107256E465C
:1037900004F00F003030392800D9C01D70556D1E5F
:1037A0002409F5D17E207055A5F1010807E000BF7E
:1037B000FEF7BEFD10B1444506D0641C641CAC424B
:1037C00002D2385D2028F3D1082D02D2705D6D1C25
:1037D00000E020203855641C082CF5D3BDE8FC819E
:1037E000211001002DE9F04104680D4602290BD398
:1037F000A069A84208D920784FF0FF36012807D0E9
:1038000002282BD0032839D001263046BDE8F081AC
:10381000606A05EB550700EB5721204600F023F9BD
:103820000028F2D1C7F3080020447F1C90F83480B0
:10383000606A00EB5721204600F015F90028E4D11A
:10384000C7F30800204490F8341048EA0120E90743
:1038500001D00609D9E7C0F30B06D6E7606A00EB92
:103860001521204600F0FFF80028CED1E8B204EB85
:103870004000343000F054F80646C6E7606A00EBBA
:10388000D511204600F0EFF80028BED140F2FF101D
:1038900000EA85002044343000F037F820F070460C
:1038A000B3E7000000487047C070D94C10B504461B
:1038B0004FF0FF3021680A0011D000BF11F8013B22
:1038C000202B0DD33A2BF9D11378303B092B06D896
:1038D000921C8A4203D1012B01DA1846216010BDE7
:1038E000002010BD70B506460D4601F11A0000F02B
:1038F00017F804463078032805D105F1140000F0CC
:103900000FF844EA0044204670BDC178827842EA4C
:1039100001214278007842EA012140EA0120704703
:103920004178007840EA012070470000FCF748FE2B
:103930000723022208214FF4B470FEF7EDF8B420FB
:10394000FEF7FAFCFDF750FA012226A12648FFF700
:1039500071FA002838D100F0B9F9044640070AD5B9
:1039600000F0BCFAA00706D420A0FFF7C1FC1FA1FD
:1039700022A0FFF7F9FB200726D542F2CF0140F243
:10398000DB50FEF7A9F9FCF78DFCFFF731F9B8B170
:103990001E4D4FF4E1312846FFF710F829462A2042
:1039A000FEF7EAF900211AA0FFF7C4F940B1A00719
:1039B00006D41AA0FFF79CFC18A115A0FFF7D4FBB2
:1039C000FCF758FCFEF760F9174840680821B1EB96
:1039D000106F05D1FCF766FCFCF74CFC00F046F9D3
:1039E000FEE70000303A00002C0000204649524D0E
:1039F000574152452E435552000000006669726DD2
:103A0000776172652E62696E0000000090D003003D
:103A100065737033642E62696E00000065737033E5
:103A2000642E435552000000008000082DE910402C
:103A300010F8013B11F8014B1B1B521E01D0002B4B
:103A4000F6D0184610BD002A05D011F8013B00F849
:103A5000013B521EF9D170475FFA81F100F8011B5A
:103A6000521EFBD1704770B50446006B0D46002610
:103A7000A8420FD0204600F00DFA06000AD1607867
:103A800001232A4604F13401FEF756FF08B1751EE2
:103A900001262563304670BD2DE9F04781460E466C
:103AA00001F11A00FFF73CFF28BB3078012520F018
:103AB0004000401E00EB8001DFF84C8001EBC004A9
:103AC00000274FF6FF7A00BF18F807003044FFF7D1
:103AD00027FF35B1FF2C0ED229F814000546641CCF
:103AE00001E0504507D17F1C0D2FEDD33078400603
:103AF00007D5FF2C02D30020BDE8F087002129F86C
:103B000014100120F8E70000983F00082DE9F04765
:103B1000022617460D460446022969D3A069A84229
:103B200066D920784FF00109012804D0022836D048
:103B300003285DD143E0616A05EB550801EB58218C
:103B40002046FFF790FF060052D1C8F3080020443A
:103B5000343008F10108E90704D00178FAB262F3C1
:103B60001F1100E03946017084F80390616A204615
:103B700001EB5821FFF777FF060039D1C8F30800A1
:103B800020443430E90702D0C7F3071105E001787B
:103B9000C7F3032201F0F0011143017026E0606ACF
:103BA00000EB15212046FFF75EFF060020D1E8B2AA
:103BB00004EB4000B9B2343000F016F916E0606A48
:103BC00000EBD5112046FFF74EFF060010D140F262
:103BD000FF1000EA8500204434300546FFF795FECB
:103BE00067F31B000146284600F0F6F884F80390BE
:103BF0003046BDE8F0872DE9F041056813460E46D2
:103C0000074602292DD3A869B0422AD93BB14FF00B
:103C1000FF3219462846FFF779FF00281FD13146A9
:103C20003846FFF7DFFD040018D0012C19D0601CC6
:103C300019D0002231462846FFF768FF00280ED130
:103C4000D5E90510821E914205D2491C6961297986
:103C500041F0010129712646B042E0D80020BDE8BC
:103C6000F0810220FBE70120F9E70000144810B5BD
:103C7000016841F001010160016841F00201016049
:103C80000F4910310A6842F002020A60026822F00D
:103C900001020260026822F002020260086820F05D
:103CA0000200086007484168074C61600068FCF743
:103CB00093FA60688047BDE810406420FEF752BB6D
:103CC00010380240008000082400002010B5ADF537
:103CD0000A7D0024224617A16846FFF7CFF818B9DD
:103CE00002246846FFF796F8002215A16846FFF700
:103CF000C5F820B944F004046846FFF78BF80022A9
:103D000013A16846FFF7BAF820B944F008046846E2
:103D1000FFF780F8002211A16846FFF7AFF820B93D
:103D200044F010046846FFF775F80DF50A7D20464B
:103D300010BD000061646D696E2E7478740000001F
:103D40006669726D776172652E62696E00000000AF
:103D500065737033642E62696E000000447565748B
:103D6000576946695365727665722E62696E000006
:103D700010B5C02802D0DB2805D008E0DB20FEF714
:103D80008FF8DC2003E0DB20FEF78AF8DD20BDE8B9
:103D90001040FEF785B870B50D460646002404E0D5
:103DA000305DFFF7E5FF641CA4B2AC42F8D370BDF0
:103DB00070B50C460646154691B204F11A0000F0A3
:103DC00013F83078032806D1290C04F11400BDE85B
:103DD000704000F009B870BD0170090A4170090A0D
:103DE0008170090AC17070470170090A41707047FB
:103DF000014600200B22430803EBC01011F8013BE1
:103E0000521E1844C0B2F6D17047000070B5044687
:103E100000F040F8050036D1207803282CD1207915
:103E2000012829D1420204F1340000210646FFF79F
:103E300013FE4AF6552104F23220FFF7D5FF13494D
:103E40003046FFF7C9FF124904F50670FFF7C4FFBB
:103E500004F507706169FFF7BFFF04F50870216979
:103E6000FFF7BAFF226A0123521C226360783146B1
:103E7000FEF77AFD00202071002260781146FEF7DF
:103E800053FD00B10125284670BD0000525261412A
:103E90007272416170B50446C078002548B104F1E2
:103EA0003401607801230E46226BFEF75DFD10B1F0
:103EB0000125284670BD0020E070216B606A0A1A57
:103EC000E0698242F5D2A278022AF2D10A1860781B
:103ED00001233146FEF748FDEBE70000F0B5ADF5F4
:103EE0000B7D00252C46012218A16846FEF7C6FF6F
:103EF00028B91A4E03983044B0F1016F1AD300204C
:103F00000DF50B7DF0BD032C02D9FCF783FF0024D7
:103F10008AAB3A4612496846641CFFF783F878B9C1
:103F20008A980F49C01C8208A819FDF78FFD8A984E
:103F3000054401E04FF40067039905988842E2D1F7
:103F40006846FEF767FF0120DAE700006669726DD8
:103F5000776172652E62696E0000000000800008C3
:103F6000F045002070B50E4604004FF009050CD056
:103F7000206850B1017841B1A188C288914204D132
:103F80004078FEF7EFFCC00703D0002030602846E1
:103F900070BD00252068F9E701030507090E10121E
:103FA0001416181C1E809A45418E418F8045454548
:103FB0004949498E8F9092924F994F555559999AE8
:103FC0009B9C9D9E9F41494F55A5A5A6A7A8A9AA20
:103FD000ABACADAEAFB0B1B2B3B4B5B6B7B8B9BAB9
:103FE000BBBCBDBEBFC0C1C2C3C4C5C6C7C8C9CAA9
:103FF000CBCCCDCECFD0D1D2D3D4D5D6D7D8D9DA99
:10400000DBDCDDDEDFE0E1E2E3E4E5E6E7E8E9EA88
:10401000EBECEDEEEFF0F1F2F3F4F5F6F7F8F9FA78
:10402000FBFCFDFEFF00C700FC00E900E200E4002D
:10403000E000E500E700EA00EB00E800EF00EE003A
:10404000EC00C400C500C900E600C600F400F6009C
:10405000F200FB00F900FF00D600DC00A200A30084
:10406000A500A7209201E100ED00F300FA00F100A5
:10407000D100AA00BA00BF001023AC00BD00BC00F4
:10408000A100AB00BB009125922593250225242594
:1040900061256225562555256325512557255D2522
:1040A0005C255B251025142534252C251C25002591
:1040B0003C255E255F255A25542569256625602502
:1040C00050256C25672568256425652559255825C3
:1040D000522553256B256A2518250C25882584250E
:1040E0008C2590258025B103DF009303C003A30333
:1040F000C303B500C403A6039803A903B4031E2297
:10410000C603B50329226122B1006522642220235F
:104110002123F7004822B0001922B7001A227F207D
:10412000B200A025A00061001A03E0001703F80008
:104130000703FF0001007801000130013201060190
:10414000390110014A012E017901060180014D005B
:104150004302810182018201840184018601870179
:10416000870189018A018B018B018D018E018F01ED
:1041700090019101910193019401F601960197013B
:10418000980198013D029B019C019D0120029F0125
:10419000A001A001A201A201A401A401A601A701FE
:1041A000A701A901AA01AB01AC01AC01AE01AF01AD
:1041B000AF01B101B201B301B301B501B501B7015E
:1041C000B801B801BA01BB01BC01BC01BE01F701D5
:1041D000C001C101C201C301C401C501C401C701BD
:1041E000C801C701CA01CB01CA01CD011001DD011F
:1041F00001008E01DE011201F3010300F101F4015F
:10420000F401F8012801220212013A020900652C8A
:104210003B023B023D02662C3F024002410241024A
:1042200046020A01530240008101860155028901BC
:104230008A0158028F015A0290015C025D025E02FF
:104240005F029301610262029401640265026602E8
:104250006702970196016A02622C6C026D026E027F
:104260009C01700271029D01730274029F0176022B
:104270007702780279027A027B027C02642C7E0249
:104280007F02A60181028202A901840285028602C0
:104290008702AE014402B101B20145028D028E02D5
:1042A0008F0290029102B7017B030300FD03FE031E
:1042B000FF03AC0304008603880389038A03B10368
:1042C0001103C2030200A303A303C4030803CC0326
:1042D00003008C038E038F03D8031801F2030A0036
:1042E000F903F303F403F503F603F703F703F90304
:1042F000FA03FA033004200350041007600422017B
:104300008A043601C1040E01CF040100C004D004A8
:1043100044016105260400007D1D0100632C001E80
:104320009601A01E5A01001F0806101F0606201F36
:104330000806301F0806401F0606511F0700591FB8
:10434000521F5B1F541F5D1F561F5F1F601F080613
:10435000701F0E00BA1FBB1FC81FC91FCA1FCB1F6B
:10436000DA1FDB1FF81FF91FEA1FEB1FFA1FFB1FE5
:10437000801F0806901F0806A01F0806B01F040033
:10438000B81FB91FB21FBC1FCC1F0100C31FD01F15
:104390000206E01F0206E51F0100EC1FF31F0100EB
:1043A000FC1F4E21010032217021100284210100E6
:1043B0008321D0241A05302C2F04602C0201672C95
:1043C0000601752C0201802C6401002D260841FF96
:1043D0001A0300000707122000020060400200607C
:1043E0001C02006024020060440000800000007095
:1043F000A810004001FFFF46450000000080FE3F7E
:104400004F484149A4ABFF3F0CABFE3F808000000A
:10441000C41910400C000060000000010000010001
:1044200000100000FFFF00008C8000001040000022
:104430000000FFFF004000000080FE3F9C2BFF3F7C
:10444000A02BFF3F1027000014000060FFFF0F00AB
:10445000A4ABFF3FA4ABFF3FA42BFF3FB4ABFF3F98
:104460000080000020290000F88DFE3F5880FE3FAC
:10447000A8ABFF3F98AEFF3F989BFE3F84AEFF3F47
:10448000801B0000A00D00000008000020090000B3
:10449000500E000050120000ACABFF3FB0ABFF3F2E
:1044A0001F2900003CA9FE3F08AEFF3F8CADFF3F37
:1044B000800B00000CADFF3F8CACFF3FB01500003F
:1044C000F1FF000000ABFE3F00A9FE3FBC0F004023
:1044D000880F0040A80F0040583F00402C4C00407F
:1044E000303B004078480040004A0040B44900405A
:1044F000CC2E00401CE20040D839004068E2004069
:1045000048DF004090E100404C26004084490040D4
:1045100021BCFF92A1109011C022612322A00002B1
:104520006143C26142D26141E26140F2613F01E711
:10453000FFC0000021B2FF31B3FF0C0406010000F0
:1045400049024B223732F822A08C2A210C4305B1B4
:104550000121AEFFC1ADFF31AEFF2A2CC02000C942
:104560000242A00022A00501DAFFC0000021A9FF3D
:1045700032A101C020004802303420C0200039029E
:104580002C0201D4FFC0000001D4FFC0000031A202
:10459000FF41A2FF51A3FF71A3FF0C0262A1000122
:1045A000CFFFC0000031A0FF2198FF3A32C02000A9
:1045B00028031672FFC02000C8030C02C020002987
:1045C000030C13324184320C0122514332418522C3
:1045D0006122669318220C03320C028022113022D1
:1045E00020664209282CC02000280222612222A035
:1045F000C001BBFFC0000022A08410228032A008AE
:1046000045A301F20C03220C0280FF1120FF2021A0
:1046100087FFF7B217059D0122A0EE01B1FFC00090
:104620000022A0C001AFFFC00000C6DDFF320C01B8
:104630000CD2279302C68500373251666302869EEC
:1046400000F67323663302465D00F6430A662302D2
:10465000864C00069D0000006643024671006653CA
:1046600002C68300C69800000C92279302067A00C7
:10467000373208667302C68000869300669302464E
:1046800078000CB2279302466D00468F001C32273B
:104690009302C6390037322866B3028640001C02F6
:1046A00037320A0CF2279302062E000687001C12EE
:1046B0002793024642001C22279302465900468255
:1046C0000022A0D127132C37320922A0D02713189B
:1046D000C67D000022A0D227930286250022A0D307
:1046E0002793028692054678000C1DCC1FC65C05F8
:1046F00006740000668F02465D05067100000179B0
:10470000FFC00000EAED9C12866D0000202C4101E4
:1047100076FFC0000056921AD2DDF0D02EC08C4D2C
:104720002030F45653FEDAF2E13DFF0604000000AB
:104730002020F5016EFFC00000565218E0DDC0D009
:104740002FC0D73EEADAE20604000000202C410127
:1047500066FFC00000569216D2DDF0D02EC056ADD6
:10476000FEC657000C0ED2A0C0268F024658008607
:104770006205000066BF02866005063B0066BF0258
:10478000863F05C64E000C1D26BF02464D00384C24
:104790002129FF0C0ED2A0C2271302864C00463BF3
:1047A000050C1466BF12384C2123FF0C0ED2A0C298
:1047B000271302864600C63A05DD04464100000084
:1047C000211EFF0C0E320200D2A0C6E79302C63FA4
:1047D00000382CD852F2CFF0F033C022A0C030D233
:1047E0009332CC1822A0EF460200EA434204001B99
:1047F000EE402230F72EF2520C05620C04420C06F9
:10480000805511320C07605520004411504420801F
:1048100033014033203022C032A0C10C0E20D3938C
:10482000462B00002105FFD2A0C632020016330934
:104830003832D2A0C856B308324200D852C620003F
:104840001C82279F024620050C0E0C1D46200000EE
:10485000664F02462405061A0066BF02062505C6F5
:1048600001000000664F028624050C0ED2A0C0860F
:104870001700000066BF0246220506110041EFFE48
:10488000F2CFF07804CC37D2A0C6FC6F31EDFED267
:10489000A0C96803F7362CF02014D2A0C092CC181F
:1048A0008C928607002A8988084B2289052A57207E
:1048B00086C0F732EF59048903460C05668F0286DD
:1048C00014050C1D0C0EC601000000E2A000D2A0D1
:1048D000FFD02074057301E02074C5720122A0C0CE
:1048E0000100FFC0000056BDCB220C0132A00F37E3
:1048F000123127331466420206D00466620206D5DE
:10490000042632024627FF461A001C23379202462D
:10491000CA0432A0D23712491C133712020621FFF3
:10492000C61A000021C8FE01F2FEC0000021C6FE2A
:10493000C02000380221C5FE203310222C03202382
:1049400082322C0201ECFEC000003D022D0D01EA76
:10495000FEC0000022A3E801E6FEC000000611FF31
:104960000000222C02322C03422C04585C85750175
:10497000460CFF00320C03220C028033112033203E
:1049800032C3F022CC18455A010606FF000000226F
:104990000C03320C0280221130222022C2F0F2CC11
:1049A0001822612B0C1E86930421A9FE31C6FEB28B
:1049B0002200D1A8FE62A00322230272212B626191
:1049C00025B0DDC02737040C18826125B26135059A
:1049D0004C01B2213571A0FE92212B704BC0DA44FC
:1049E0000B84DA6B62612982612C4058109AAF8C7B
:1049F00015C66C0477BB02C66C0498EC722C10824E
:104A00002C15286C92612672612482612A3C53D84D
:104A10007CE22C1468FC27B3020619043190FE30A6
:104A200022A02802A002002184FE0C0E0C13E992A1
:104A3000E98239D239A2A73F39E261246D0EE261E1
:104A400026E0DE209221250C23303910217BFE9CAC
:104A5000930C1449625D0BCD0F860A04A7BFE432A4
:104A60000F002175FE1BCF3982C605003982CD0F9C
:104A7000060400320F001BCF3982E261246D0EE282
:104A80006126DD0EA73C29460000CD0F7221250CC2
:104A9000255037102169FE9C1359625D0B462E008C
:104AA00000A7BFE5320F002164FE1BCF39924602FA
:104AB00000320C002161FE1BCC3992215FFE1CF3F9
:104AC000588268928025116A2242613052613462B4
:104AD000612FA26133B261350189FEC000000C1361
:104AE00042213052213462212FA22133B22135CC10
:104AF000E22C02206610CC7650203422C2F82036F8
:104B0000835054418B550C127156FE0015400062C3
:104B1000A167370F0005404040910C06406283308A
:104B200066209C460C16460000CD0F2143FE2C4308
:104B300039625D0B46D3030000005D0BF63D40A7D4
:104B40003C29C600005D0BCD0F8221250C222028B8
:104B5000109CC20C332138FE39620C14C6C903A75D
:104B6000BFE21BCF220F005D0B060100220C001BD1
:104B7000CC001D400022A120EE208BDD06EFFF00BF
:104B8000712EFEE0202429B720214129C7E0E3410E
:104B9000D2CDFD561223D0202427BD3BA73C24C6EE
:104BA00000005D0BCD0F9221250C222029100C5303
:104BB0005612FA860400A7BFE81BCF220F005D0B38
:104BC00046010000220C001BCC001D400022A12049
:104BD000EE208BDD86EFFF00D02024000240E0E0D5
:104BE000917C8220DD100C06164D05F68D39A73C10
:104BF00023C600005D0BCD0F7221250C222027104B
:104C00000C6356F2F4460400A7BFE81BCF220F0046
:104C10005D0B060100220C001BCC001D400022A1F0
:104C200020EE208BDD86F0FF2104FE310EFE6A228D
:104C30003A22E24218D2CDF8E0E841061600000020
:104C4000A73C41C600005D0BCD0F8221250C222020
:104C5000281031F9FD9CF20C722963C6BEFFA7BF74
:104C6000E421F5FD4100FE320F006A224A221BCFEB
:104C70003242185D0B86070041FBFD6A334A33223E
:104C8000431846040021ECFD41F7FD320C006A2276
:104C90004A223242181BCC1B66F6460206D2FF910E
:104CA0000AFE62093922093880661120662022092D
:104CB0003B32093A80221130222031DAFD30223095
:104CC000279606861C005D0BCD0F2C7346E2000074
:104CD000F68D3CA73C25C600005D0BCD0F7221254B
:104CE0000C222027103C3356A2E6C604000000A781
:104CF000BFE61BCF220F005D0B060100220C001B3C
:104D0000CC001D400022A120EE208BDD06F0FF002C
:104D1000E08074826126E0E841D2CDF846020000CE
:104D20003C4346F6025D0BCD0F92212997B5F072F8
:104D300021260B667245001B550C020C134D02D048
:104D40004393602393278487861D00000C9346EBD2
:104D5000025D0BCD0F82212987B5F0060700922155
:104D6000250C222C63270902467AFFC600005D0B42
:104D7000CD0F2C8346B8005D0BCD0FA7BCDF722191
:104D8000295027C0C07AC077B2017D0277B6017D75
:104D9000062D053D0C4D0752613462612F72613260
:104DA000A26133B2613501D6FDC0000072213252DA
:104DB000213462212FB22135A221337ACC7A557069
:104DC00066C056F6F8C6EC0266320D4601000000D9
:104DD0005D0BCD0F0CA3C69F002612028621002278
:104DE000A1202267112C0421A0FD42671232A005E8
:104DF00052613462612F726132A26133B261350156
:104E0000C1FDC0000072213222A0E82A773197FD4F
:104E1000B22135A2213362212F5221342D0742A025
:104E2000084243001B337793F732C2708D030C9412
:104E30004242001B223792F722A10032A1180C74C3
:104E4000C60100004248001B221B883792F532AE93
:104E5000E83A880C8732A11F2A487244001B222797
:104E6000B3F5066D01000C062182FD6A22220200C4
:104E700027BD3BA73C25C600005D0BCD0F82212539
:104E80000C222028100CB356A2CCC604000000A7A8
:104E9000BFE61BCF220F005D0B060100220C001B9A
:104EA000CC001D400022A120EE208BDD06EEFF216C
:104EB00070FD0C136A22220200416EFD00124000B8
:104EC00033A14046A00B33E0331020DDC000024088
:104ED000E0E09148042158FD4A332026A0326211B7
:104EE0001B66B636822164FD0C0342A12052613458
:104EF000A26133B261350183FDC000000C0652216E
:104F000034A22133B221354618000000F63D3CA7FB
:104F10003C25C600005D0BCD0F9221250C222029D7
:104F2000100CE356E2C2C604000000A7BFE61BCF88
:104F3000220F005D0B060100220C001BCC001D405F
:104F40000022A120EE208BDD06F0FF00214CFD4168
:104F50003AFD6A22220200E030242A244149FDD28F
:104F6000CDFD4A22324218E0E3411B662133FD3277
:104F700022133736961C333262130627017141FD26
:104F80000C0370728242A04070788072C75822C1B0
:104F90004452613462612F826131A26133B2613562
:104FA0007261270158FDC000007221274137FD22A0
:104FB000A1202A2732A0000153FDC000002133FDAB
:104FC0009221270C032A2942A480014EFDC0000033
:104FD00082213152213428C862212F8082A0822868
:104FE0001122612D82612E0C02A22133B22135865D
:104FF000050000007221272A373203001B221033DC
:10500000A04223111B4442631182212E8792E40C9B
:1050100002291129014D020C13E0831172C1448A47
:105020009798098A819A22F022111B3329189A44F1
:1050300066B3E582A001F6240282A00031FDFC0CDB
:10504000093A220C132093938099107CF216F910E0
:10505000C600005D0BCD0F2C3321F7FC3962C688EA
:10506000028221279A3882030016180F1038A048B0
:10507000030C074261361B444903726138703720C4
:10508000F033113261373221364221373030047229
:1050900021363261284033204221387071411B444F
:1050A0007261364261384798D60CA787373070480E
:1050B000119044200044114040314261280C1400FA
:1050C00018400084A14603004221274073904221EA
:1050D000288A3342579072A3FF37B7EB861F0042EE
:1050E0002127307094407790429790CC642257905B
:1050F0004D0222C2FE3039410C07C60B0032213767
:105100003070047044C07CF74047307221277044EF
:105110009042D409426128429410CCA44221282212
:10512000541020422022C2FE7221361B7772613653
:105130007221363031413261377078C00CB3379705
:10514000BB7221377CF87030043034C030383042C4
:10515000A4907221274033807033909253001B99A2
:1051600082212E871902C6BDFF92212D2629028693
:10517000A700868D000CE2D7B202863300C02AC099
:10518000A6220286290021C2FCE0309471ABFC2AE1
:105190002370229042120C0044114030319693014A
:1051A0004049310C1347BD010C030C020C1740277A
:1051B00093370202062500860B000CA2D7B2299174
:1051C000B5FC7CF8000240E040913038C04040041B
:1051D0004A339A3370339032930CD6E3061B422B3A
:1051E00022273D042D0486F6FFA73C24060100007B
:1051F0005D0BCD0F7221250C222027101C03563287
:1052000095460400A7BFE81BCF220F005D0B0601E7
:1052100000220C001BCC001D400022A120EE208BA0
:10522000DD0CE2D7320206D7FFC6070000320C00C1
:10523000420C018B2D001D400033A10012400024C0
:10524000A120232020EE202BCCD2CD102191FCE0F8
:1052500030947179FC2A2370229032120C003311A1
:10526000302031969200303931202084060A000027
:105270009189FC0CA47CF81B34000440E040912090
:1052800028C04040044A229A2270229022920CD6D2
:1052900052004D03C6F7FF002261268221260CF240
:1052A000000340E0E09130DDC08732112163FC3122
:1052B0006DFC6A223A2282421C1B66C63B00922188
:1052C000260C020C1342C9F07D02407383603293B6
:1052D0003707141C086D0282612646010000005D3C
:1052E0000BCD0F1C13065CFF216CFC9221269A2229
:1052F00022C2F022020022612427BD3FA73C24C61F
:1053000000005D0BCD0F7221250C222027101C23DD
:10531000561284C6040000A7BFE71BCF220F005D12
:105320000B460100220C00C2CC01822124001D404A
:105330000022A1D2CD0820EE20873DBF2158FC825B
:1053400021269221240C178A220019400077A122DD
:10535000C2F02202000B77E077102A772142FC414D
:1053600036FC2A264A22000940E0E09190DDC02266
:10537000C21C0C0366B809314AFC6A443A44320440
:105380001C4D0752613462612F726132A26133B2E7
:105390006135015CFCC0000062212F722132522174
:1053A000347A66A22133B221354600000C06712200
:1053B000FC4227112227122A2427B602466DFF67D6
:1053C00092060602005D0BCD0F1C538622FF31357D
:1053D000FC2126FC52613462612FA26133B2613537
:1053E0007261320147FCC00000722132211EFC3282
:1053F00027114227122A337A33211BFC32C31C01A6
:1054000040FCC00000B22135A2213362212F52217D
:10541000342109FC38C20B3339C28107FC28C8D6B5
:10542000A2B586530100C02AC0E642070CE3D7B3F9
:1054300011C635009221295039C0A62302064F001B
:1054400006FAFFA62202C6280071FBFBE02094703A
:1054500022904212BC0044114030319693014049E1
:10546000310C1347BD010C030C020C174027933776
:105470000202862500C60B000CA2D7B22A7CF89245
:10548000A4B0000240E040913038C04040044A33AC
:105490009A3370339032930CD603071B422B22278A
:1054A0003D052D0486F6FF00A73C25C600005D0BD8
:1054B000CD0F7221250C222027101C738C12C6A43C
:1054C000FD460400A7BFE61BCF220F005D0B0601BF
:1054D00000220C001BCC001D400022A120EE208BDE
:1054E000DD0CE2D73202C6D7FFC6070000320C003F
:1054F000420C018B2D001D400033A10012400024FE
:10550000A1202320E0E2202BCCD2CD1041CBFBE028
:1055100020944022902212BC0022112060319686F5
:10552000002029316060848609000CA37CF782A4E6
:10553000B01B23000340E030916067C03030043A74
:10554000668A6640669062960CD646003D02C6F7B3
:10555000FF000240E0E09120DDC022A0FF67B20220
:105560004649000602001C83C6E4005D0BCD0F8295
:10557000212987B5F06245001B5586FD000CE9D74F
:105580003919320C01220C00803311202320001D18
:10559000400022A120EE202BCCD2CD1032A0B0E0D2
:1055A000209441A5FB3A2240229022120C002211A5
:1055B000203031202931D6A3020CA41B247CF60014
:1055C0000440E040913036C04040044A3372A4B0F9
:1055D000919AFB7A3390339032930CD653004D025C
:1055E000C6F5FF006D03000240E0E09120DDC087BA
:1055F0000302C624000CE2D73219420C01220C002F
:10560000804411202420001D400022A120EE202BE8
:10561000CCD2CD1042A0B0E020947187FB4A22701A
:10562000229042120C00441140903192612740496F
:1056300031D6F9020CA79221271B477CF2000740C4
:10564000E070919022C07070047A22917BFB72A46A
:10565000B07A2290229022920C226127D642007DBD
:105660000446F4FF222127324500000440E0E09187
:1056700040DDC08702061B556D02C602003221279D
:105680003245012B554667FF0060608466F602468E
:10569000BA0022AEFF2A662184FBE066116A222846
:1056A000022261242182FB6A6228066221241626D6
:1056B0000667BD446D02A7BC064608005D0BCD0F12
:1056C0007221250C233037109CA31C934621FD002A
:1056D00000A7BFE71BCF320F005D0BC60100320CE5
:1056E000001BCC4600002D06822124001D40003303
:1056F000A18BDD30EE20873DBA9221240C130019D6
:10570000400033A10B33E0331090DDC0000940E0CE
:10571000E0913A220CE3D7B302C63400C03AC0A6E7
:105720002302C62A007144FBE0309470339032D3D8
:105730000F62130C00661160403196A4016069315C
:105740000C1467BD0242A0000C030C17603793478E
:105750000302862600C60B000CA3D7B32A9154FB84
:105760007CF8000340E060914048C06060046A44F7
:105770009A4470449042940CD644071B632B3337F1
:105780003D053D0686F6FF006D02A7BC06C6070074
:105790005D0BCD0F7221250C233037109C831CA389
:1057A00046ECFCA7BFE91BCF320F005D0BC6010022
:1057B000320C001BCC4600002D06001D400033A11A
:1057C00030EE208BDD0CE3D73302C6D5FFC60700D1
:1057D00000320C00620C018B4D001D400033A10013
:1057E00014400046A140332030EE202BCCD2CD1007
:1057F0007112FBE0309470339032D30F42130C00DF
:10580000441140303196830040493130308486095C
:10581000009127FB0CA67CF81B46000640E0609137
:105820003038C06060046A339A3370339032930C1E
:10583000D643006D04C6F7FF000440E0E09140DD70
:10584000C0411CFBE033113A444804426124411A30
:10585000FB8221243A34380332612616680687BD5C
:10586000426D02A7BC06C607005D0BCD0F92212535
:105870000C233039109C831CB306B6FCA7BFE91B70
:10588000CF320F005D0BC60100320C001BCC46006E
:10589000002D06622124001D400033A18BDD30EE77
:1058A00020673DBC7221240C130017400033A182F5
:1058B00021260B33E033103A88000740E0E0917076
:1058C000DDC082612691E4FA6221269095C07221A2
:1058D0002C41E1FA6039C07033104A3392612A30AA
:1058E000432057B3025045208221292A4447384596
:1058F000C6120021D1FA2C533962C660003C5321F4
:10590000CEFA0C243962465F005D0BCD0F9221293F
:1059100097B5E972212A82212692212C8027C03155
:10592000CEFA9022102A232202001B772245007211
:10593000612A1B552D060B625612FD460D000042D2
:10594000030062C2FD424500420301424501420399
:10595000023B334245023B55A636042D0686F7FF2F
:10596000A616102203002245006626052203012206
:1059700045016A5582A100C6AAFE000021AFFA289F
:10598000B207E202066DFCD0202427BD3EA73C27CB
:10599000060100005D0BCD0F7221250C222027107F
:1059A0002C038C12466BFC86040000A7BFE51BCFBE
:1059B000220F005D0B060100220C001BCC001D40D5
:1059C0000022A120EE208BDDC6EEFF00D0202400B7
:1059D0000240E0E0917C8220DD100C0616CD04F63A
:1059E0008D3DA73C26C600005D0BCD0F8221250C06
:1059F000222028102C938C124656FC860400A7BF48
:105A0000E61BCF220F005D0B46010000220C001B9D
:105A1000CC001D400022A120EE208BDDC6EFFF0050
:105A2000E02074D2CDF8E0E841460B00A73C25C643
:105A300000005D0BCD0F9221250C222029102CA3F4
:105A40008C12C643FC460400A7BFE61BCF220F0002
:105A50005D0B060100220C001BCC3177FA1B664857
:105A6000A380441140222029A3F6460706DBFF004D
:105A70005D0BCD0F2171FA2C2339620C04860100D5
:105A8000005D0BCD0F7CF4216CFA7221268221245B
:105A900092212AD972E2621479E269F2826210924A
:105AA00062157CFEF0DCC0B0C5C0E79402C64000C1
:105AB00058D23182FA50E0F42D0C5050F54261304A
:105AC000526134B26135018DFAC000007D028D0C47
:105AD0000C79422130522134B22135462800000091
